:020000040800F2
:100000003007002045010008132B0008792500085F
:10001000112B0008210B0008BD3100080000000072
:10002000000000000000000000000000312E000869
:100030005B0B0008000000002D2C0008332E000888
:100040005F0100085F0100085F0100085F01000810
:100050005F0100085F0100085F0100085F01000800
:100060005F0100085F0100085F0100085F010008F0
:100070005F0100085F0100085F010008250B000810
:100080005F0100085F0100085F0100085F010008D0
:100090005F0100085F0100085F0100085F010008C0
:1000A0005F0100085F0100085F0100085F010008B0
:1000B0005F0100085F0100085F0100085F010008A0
:1000C0005F0100085F0100085F0100085F01000890
:1000D0005F010008B13100085F0100085F010008FE
:1000E0005F0100085F0100085F0100085F01000870
:1000F0005F0100085F0100085F0100085F01000860
:100100005F0100085F0100085F0100085F0100084F
:100110005F0100085F0100085F0100085F0100083F
:100120005F0100085F0100085F0100085F0100082F
:10013000DFF80CD000F054FC00480047514900089B
:10014000300700200648804706480047FEE7FEE7E4
:10015000FEE7FEE7FEE7FEE7FEE7FEE7FEE7FEE777
:10016000872E000831010008202A04DB203A21FAFA
:1001700002F00021704721FA02F3D040C2F12002C0
:10018000914008431946704740EA01039B0703D09A
:1001900009E008C9121F08C0042AFAD203E011F8C6
:1001A000013B00F8013B521EF9D27047D2B201E088
:1001B00000F8012B491EFBD270470022F6E710B56C
:1001C00013460A4604461946FFF7F0FF204610BDC5
:1001D00030B505462A460B4612F8010B13F8014BC1
:1001E00008B1A042F8D01CB1002802D06D1CF1E784
:1001F000284630BD421C10F8011B0029FBD1801A93
:100200007047F0B480EA0102D40F4200B2EB410F14
:1002100002D20246084611464A0042D0C30DDDB262
:10022000C1F3C752AD1A202D35DAC1F3160141F4DE
:10023000000204B15242C5F1200602FA06F12A4139
:100240001044B3EBD05F23D0C4B1012DA0EBC35059
:1002500009DCF0BC4FF0004202EAC352DBB200F509
:10026000000000F008BB400000F1807000EBC350BC
:10027000A0F1807040EAD170490009E0490841EAE4
:10028000C071A0EBC35000F50000400800EBC35064
:10029000F0BC00F0E7BA6142012202EB4101001B11
:1002A000F6E7F0BC704781F00041AAE780F000401B
:1002B000A7E780EA010210B502F00043400022D017
:1002C0004A001FD0010E01EB1261C0F35600C2F3C9
:1002D000560240F4000042F40002A0FB0220000499
:1002E0007F39140400D0401C50EA124001D4400071
:1002F000491EC2B20C0604EBD010401C4008802AF4
:1003000002D003E0002010BD20F00100002900DA37
:100310000020184310BD30B480EA010202F000450D
:1003200030F0004221F0004013D090B1C30DD40D45
:10033000C2F31601C0F31600E41A41F4000140F4C0
:1003400000027D34914201D3641C00E04900002C7E
:1003500002DA30BC002070474FF4000000239142C5
:1003600001D3891A034340084FEA4101F7D151B143
:10037000914202D14FF0004105E002D24FF001015D
:1003800001E06FF0010103EBC450284430BC00F0E1
:1003900069BA420005D0C0F3C7525242914201DC13
:1003A0000020704700EBC15070472DE9FE4F80469A
:1003B00081EA0300C00F0C46009021F0004123F0B9
:1003C0000045B8EB0200A94105D2404621469046BF
:1003D0001C460B46024623F00040104347D0270D31
:1003E000C7F30A00C3F30A510290401A0190402853
:1003F0006BDAC3F3130040F4801B0098924620B1DF
:100400000023D2EB030A63EB0B0B01985946C0F1B2
:100410004002504600F005FA06460D465046594641
:10042000019A00F00DFA10EB08006141002487EA00
:10043000115284EAE7731A4340D0009A62B3019ADA
:10044000012A4FEA075215DC001B61EB02014FF055
:10045000004202EA0752CDE90042001C41F580113A
:1004600032462B4600F042FA03B0BDE8F08F40461A
:100470002146F9E7001B61EB0201001C41F58013E6
:1004800000185B412018A2F5001747EB030140EA72
:10049000D570B6196D4111E06D084FEA360645EA90
:1004A000C0754FEA0752001B61EB0201001C41F5C9
:1004B000801149084FEA30000019514132462B465D
:1004C00003B0BDE8F04F00F004BA009801224000EC
:1004D0000023D0EB020263EBE073009821464FEA61
:1004E000E074B8EB000061EB0401E9E783F000433E
:1004F0005BE781F0004158E72DE9FE4F81EA0304F4
:1005000004F0004421F0004100944FF0000B23F070
:10051000004350EA01045ED052EA03045BD0C3F307
:100520000A54C1F30A552C44A4F2F3340194A0FBFD
:100530000254C1F3130141F48011C3F3130343F4D4
:10054000801301FB024400FB034E840A970A44EA2D
:10055000815447EA8357A4FB076802958D0A05FB7F
:1005600007854FEA932C04FB0C542705029D4FEAA4
:10057000065847EA1637B5EB08056EEB070C870EF1
:10058000920E47EA811742EA8312A7FB0201B6EBFB
:100590000B0164EB00042B0D43EA0C335E1844EBB3
:1005A0001C50DA465146E7FB0201C5F313044FEA3B
:1005B0000B3343EA14534FEA0432019C43EA060327
:1005C000A4F10C040294009CCDE900B400F08EF973
:1005D00003B0BDE8F08F00200146F9E72DE9F04DAA
:1005E00081EA030404F0004B21F0004514464FF06B
:1005F000000A23F0004150EA050220D054EA01022B
:100600001DD0C5F30A570246C5F31303C1F3130007
:10061000C1F30A5640F4801543F48013A7EB060893
:10062000101BD64608F2FD3873EB050002D308F123
:10063000010801E092185B41B8F1000F03DA0020D5
:100640000146BDE8F08D00204FF480110646844637
:100650000EE0171B73EB050705D3121B63EB0503B5
:1006600006434CEA010C49084FEA300092185B41FE
:1006700050EA0107EDD152EA030012D082EA0400E9
:1006800083EA0501084305D0101BAB4106D20122C5
:10069000002306E000224FF0004302E06FF0010269
:1006A00053101AEB06004CEB085110EB0A0041EB1B
:1006B0000B01BDE8F04D00F00CB970B521F000431E
:1006C00003430CD0C1F30A550024D5EB040564EBB9
:1006D0000403D617AD1AB34102DB0020014670BDFA
:1006E000201841EB025170BDC10F80EAE070084450
:1006F000CA079623002100F0BEB8962300221146B7
:1007000000F0B9B800F0004220F00040C10DC0F385
:10071000160040F400007F2901DA00207047962976
:1007200003DCC1F19601C84001E096398840002AF7
:10073000F4D04042704700F0004230F000400AD050
:10074000C10D01F56071C0F3160042EA0151C20803
:1007500040071143704700200146704701F00043F5
:1007600030B421F0004150EA010206D00A0DA2F592
:100770006072C1F31301002A02DC30BC0020704714
:10078000440F44EAC104C100E01830BC00EBC25081
:1007900000F068B830B50B46014600202022012445
:1007A00009E021FA02F59D4205D303FA02F5491B3F
:1007B00004FA02F52844151EA2F10102F1DC30BD55
:1007C0002DE9F05F0546002092469B468846064686
:1007D000814640241BE02846414647462246FFF713
:1007E000C3FC53465A46C01A914110D311461846CD
:1007F000224600F016F82D1A67EB01084F462246F4
:100800000120002100F00DF817EB00094E41201ED9
:10081000A4F10104DFDC484631462A464346BDE8E0
:10082000F09F202A04DB203A00FA02F100207047F2
:100830009140C2F1200320FA03F31943904070471E
:10084000202A06DBCB17203A41FA02F043EAE07394
:1008500006E041FA02F3D040C2F120029140084381
:10086000194670470029A8BF7047401C490008BFBF
:1008700020F00100704710B4B0FA80FC00FA0CF0D0
:1008800050EA010404BF10BC704749B1CCF1200408
:1008900021FA04F411FA0CF118BF01212143084395
:1008A000A3EB0C01CB1D4FEA00614FEA102042BFC1
:1008B000002010BC704700EBC35010440029A4BFB7
:1008C00010BC7047401C490008BF20F0010010BC5C
:1008D000704710B5002B08DA401C41F10001921856
:1008E0005B411A4301D120F0010010BD2DE9F04D0C
:1008F00092469B4611B1B1FA81F202E0B0FA80F261
:1009000020329046FFF78DFF04460F4640EA0A006A
:1009100041EA0B0153465A46084313D0114653EAA5
:10092000010019D0C8F140025046FFF71DFC0546F2
:100930000E46504659464246FFF773FF084305D01E
:10094000012004E020463946BDE8F08D0020054333
:1009500046EAE0762C4337430A986305E40AA0EBA5
:1009600008000022FD0A44EA47540A3002D500205C
:100970000146E9E7010510196941DDE9084500195B
:100980006941BDE8F04DA4E7C1F30A52C1F3130178
:1009900040F2FF3341F480119A4202DA002001460E
:1009A000704740F233439A42A2F2334202DC524291
:1009B000FFF7DABBFFF735BF30B5002904DB4FF096
:1009C0000044404264EB0101002B04DB4FF0004483
:1009D000524264EB0303994208BF904230BD0000CD
:1009E000064C074D06E0E06840F0010394E807007C
:1009F00098471034AC42F6D3FFF79EFB1452000820
:100A0000345200082DE9F04D00231A461B1A8A4182
:100A100003DB00200146BDE8F08DC1F30A52C1F3AB
:100A2000130141F480154FF0000BD10702D10018DB
:100A30006D41521E0027044640F2FF11384601EB7B
:100A4000620A3E468046024600204FF48011FFF7BE
:100A50008BFBC2197141BB1846EB0100B4EB030CD0
:100A600075EB000C04D3E41A65EB000517460E463F
:100A7000241908F101006D4180463428E3DDF9199D
:100A800046EB0600091BA84103D24FF0FF32134684
:100A900001E0002213461BEB070046EB0A51BDE8BC
:100AA000F04DFFF716BF0EB5C10F80EAE0700844A5
:100AB000CA07002140F233438DE80E000A460B4678
:100AC000FFF714FF03B000BD0EB540F233410291B1
:100AD0000021CDE900110A460B46FFF707FF03B0DE
:100AE00000BD70B5C1F30A5201F000450024C1F306
:100AF000130140F2FF3341F480119A4201DA0020E1
:100B000070BD40F233439A42A2F2334203DC5242B8
:100B1000FFF72AFB00E090402C43F1D0404270BD2B
:100B2000FEE70000014800F081BA00004802002002
:100B300030B590F840500124AC40C56B6C6004683F
:100B400063604368102B036803D099600068C2603B
:100B500030BD9A600068C16030BD704710B511A00B
:100B600000F0B2F84FF47A74204600F0F9FB10A1BF
:100B70001148FFF72DFB08B1002010BD0FA10E4852
:100B8000FFF726FB60B107A000F09EF8204600F0BA
:100B9000E7FB0AA10848FFF71BFB08B1012010BDC5
:100BA000022010BD41542B43574A41503F000000E2
:100BB0002B43574A41503A00E80000204E6F204135
:100BC0005000000000B50C488DB0007870B13421A1
:100BD0006846FFF7F2FA094809A10278684602F070
:100BE000EFFA684600F070F80DB000BD0DB008A037
:100BF0005DF804EB00F068B800000020020000205F
:100C000041542B434950434C4F53453D256400000C
:100C100041542B434950434C4F53450038B50BA02A
:100C2000002400680090642303226946084801F00C
:100C300049FC322000F094FBFFF7C4FF322000F0A3
:100C40008FFB641C032CEEDB38BD00002B2B2B002C
:100C5000A400002010B50C4601468EB04422114875
:100C6000FFF792FAFFF7DAFF34216846FFF7A5FA9B
:100C700022460DA1684602F0A3FA684600F024F867
:100C8000322000F06DFB012C03D0022C04D0032C89
:100C900006D109A1012001E007A1022000F032F8ED
:100CA0000EB010BDA400002041542B43574D4F44BB
:100CB000453D2564000000003139322E3136382E92
:100CC000312E31313100000030B599B00546FFF7C3
:100CD00091FA044664216846FFF76FFA2A4606A196
:100CE000684602F06DFAA41CA2B264236946044867
:100CF00001F0E8FB19B030BD25730D0A00000000BB
:100D0000A400002030B58DB00D460446342168465D
:100D1000FFF753FA012C02D0022C03D007E02A4639
:100D200007A101E02A460AA1684602F049FA68468E
:100D3000FFF7CAFF322000F013FB0DB030BD0000FA
:100D400041542B4349505354413D22257322000006
:100D500041542B43495041503D222573220000004D
:100D6000F0B50E46074699B064211B48FFF725FAF7
:100D70001AA0FFF7A9FF1C4D002432202C7000F0B0
:100D8000EFFA1AA0FFF7A0FF322000F0E9FA642181
:100D90006846FFF712FA33463A4618A1684602F051
:100DA0000FFA6846FFF790FF322000F0D9FA1AA137
:100DB0000948FFF70DFA0028F3D019A0FFF784FFC8
:100DC000322000F0CDFA19A10348FFF701FA0028FC
:100DD000F3D06C7019B0F0BDE800002041542B43F3
:100DE00049504D55583D30000000002041542B43E0
:100DF00049504D4F44453D310000000041542B43C4
:100E0000495053544152543D22544350222C2225E0
:100E100073222C2564000000434F4E4E454354007E
:100E200041542B43495053454E4400003E000000BE
:100E300010B50446FFF7DEF9214682B2BDE8104046
:100E40006423014801F03EBBA400002030B599B0F6
:100E50000C46054664216846FFF7AFF923462A464B
:100E600009A1684602F0ACF94FF4FA746846FFF73E
:100E70002BFF204600F074FA08A10C48FFF7A8F9F0
:100E80000028F3D019B030BD41542B43574A41508C
:100E90003D222573222C2225732200005749464902
:100EA00020434F4E4E45435445440000E800002087
:100EB00072B6FEE710B590F821100022022905D085
:100EC0000421816380F82020012010BD01680B6897
:100ED00023F00E030B6001680B6823F001030B6025
:100EE00090F84030C46B012101FA03F3636080F88D
:100EF000211080F82020104610BD00002DE9F05F81
:100F000090F821100024022903D0042181630124D8
:100F100085E001680A6822F00E020A6001680A682A
:100F200022F001020A603F4E3E4FB215DFF8F4C0D6
:100F3000DFF8F090DFF8ECA0DFF8E8B0DFF8E4E0ED
:100F40000168783F13011502ACF1640CA9F1500956
:100F5000AAF13C0AABF1280BAEF1140E4FF4801845
:100F6000B14227D9B9420ED0614512D049451DD0B2
:100F7000514518D0594518D0714501D1424615E068
:100F8000294EB14201D1012210E0274E1436B14260
:100F900001D110220AE0244E2836B14206D0224A5E
:100FA0003C32914201D11A4600E02A461E49091FEF
:100FB0000A602BE0B94213D0614517D0494522D0D1
:100FC00051451DD059451DD0714501D142461AE009
:100FD000B14202D14FF0807215E0134EB14201D1FF
:100FE000012210E0104E1436B14201D110220AE065
:100FF0000D4E2836B14206D00B4A3C32914201D107
:101000001A4600E02A46074980394A60012180F8E3
:101010002110002180F82010416B01B18847204643
:10102000BDE8F09F80000240080402402DE9F05F17
:10103000C16B0A6801680B68046C4FF0040808FA79
:1010400004F8844D844E854FDFF814C2DFF8149203
:10105000DFF814A2DFF814B2DFF814E218EA020F86
:1010600065D05FEA437862D50A68920603D40A68BD
:1010700022F004020A60DFF8F0814FF48062016818
:1010800008F1140813011402414524D9A9420DD0D6
:10109000B1420FD0B9421AD0614515D0494515D09B
:1010A000514501D1120312E0594501D104220EE04D
:1010B000714501D140220AE06D4D1435A94206D098
:1010C0006B4A2832914201D11A4600E02246674914
:1010D000091F0A6029E0A94213D0B14215D0B942D4
:1010E00020D061451BD049451BD0514502D14FF45A
:1010F000800217E0414502D14FF0806212E059456D
:1011000001D104220EE0714501D140220AE0584D80
:101110001435A94206D0564A2832914201D11A46C6
:1011200000E022464B4908394A60C16A71E04FF03D
:10113000020808FA04F818EA020F70D05FEA837810
:101140006DD50A68920606D40A6822F00A020A607F
:10115000012180F82110DFF810814FF4007201683E
:1011600008F1140813011402414524D9A9420DD0F5
:10117000B1420FD0B9421AD0614515D0494515D0BA
:10118000514501D1120312E0594501D102220EE06E
:10119000714501D120220AE0354D1435A94206D00F
:1011A000334A2832914201D11A4600E022462F49A3
:1011B000091F0A6029E0A94213D0B14215D0B942F3
:1011C00020D061451BD049451BD0514502D14FF479
:1011D000001217E0414502D14FF0007212E059456C
:1011E00001D102220EE0714501D120220AE0204DFA
:1011F0001435A94206D01E4A2832914201D11A461E
:1012000000E02246134908394A60002180F8201086
:10121000816A00291CD0BDE8F05F0847FFE7082578
:10122000A540154214D01A0712D50A6822F00E0202
:101230000A6090F84020C36B012101FA02F25A6063
:10124000816380F82110002180F82010016BE0E715
:10125000BDE8F09F080002401C0002403000024040
:1012600044000240580002406C0002400804024062
:101270001C04024030B560B11A4B026814219A4236
:1012800009D2194B1344B3FBF1F1890001641749EA
:101290000AE0012030BD134B5B421344B3FBF1F174
:1012A000890001640F490839C163022180F82110C7
:1012B000136843F6F0718B43F0E901142143D0E940
:1012C00002452C4321430469214344692143846935
:1012D00021431943116000214163012242770177C4
:1012E000084630BD08040240F8FFFDBF0000024080
:1012F00070B5044690F82000002501280CD001208C
:1013000084F8200094F821600020012E06D084F893
:1013100020000225284670BD022070BD022684F8F8
:101320002160A0632068066826F00106066020465A
:10133000FFF7FEFBE06A00282068016802D041F058
:101340000E0106E021F0040101602068016841F00F
:101350000A0101602068016841F001010160D9E7DC
:1013600070B5044600F00AF90546601C02D0044836
:101370000078044400F002F9401BA042FAD370BD8B
:10138000900000202DE9F84FDFF8C891002409F102
:10139000040A0AF1040B23460F270BF1040ED1E0D7
:1013A0000125A54006EA0502AA4276D1DFF8A8C1C8
:1013B0004E68A6EB0C0866452BD00DDC032E34D00E
:1013C00005DC36B3012E19D0022E2FD11BE0112ED1
:1013D00016D0122E2AD119E0B8F5881F19D006DCD4
:1013E000B8F5803F15D0B8F5801F1FD111E0B8F5D2
:1013F000001F0ED0B8F5041F18D10AE0CB6815E025
:10140000CB681B1D12E0CB6808330FE0CB680C33B0
:101410000CE08B682BB1012B4FF0080303D0456122
:1014200004E0042302E0056100E00023FF2A01D864
:10143000064601E000F104064FEA840501D9A5F152
:101440002005D6F8008007FA05FC28EA0C0803FA04
:1014500005F548EA0508C6F800804D68ED0070D52E
:101460003E4DAE6946F00106AE61AD6924F003065B
:1014700005F0010500953A4D06EB050CDCF8085027
:10148000A607360F07FA06F825EA0805DFF8D48024
:10149000404503D14FF0000825E052E0DFF8C88056
:1014A000404502D14FF001081DE0DFF8C080404503
:1014B00002D14FF0020816E0DFF8B480404502D1B7
:1014C0004FF003080FE0DFF8AC80404502D14FF049
:1014D000040808E0DFF8A080404502D14FF005087D
:1014E00001E04FF0060808FA06F848EA0508CCF8CB
:1014F00008804D68D9F80060ED034D4601D51643CC
:1015000000E096432E604D68DAF80060AD03554662
:1015100001D5164300E096432E604D68DBF800606D
:10152000ED025D4601D5164300E096432E604D68FE
:10153000DEF80060AD02754601D5164300E0964323
:101540002E60641C0A681646E2407FF429AFBDE8AD
:10155000F88F00000004014000001110001002404C
:101560000000014000080140000C01400010014053
:101570000014014000180140001C0140014880682F
:10158000704700009000002070B5040025D094F84A
:101590003D00002520B984F83C50204600F06AFA4E
:1015A000242084F83D002068016821F001010160D9
:1015B0002068016841F4004101602068016821F45D
:1015C0000041016000F0B2FB4A4A6168914201D8D3
:1015D000494900E04949884201D2012070BD48498B
:1015E0002368B0FBF1F15E6826F03F060E435E60B3
:1015F0006368934206D94FF4967359434FF47A7354
:10160000B1FBF3F12368491C1E6A26F03F06314303
:101610001962616891420AD84900401EB0FBF1F09E
:10162000401CC0F30B0004281ED204201CE0A36859
:10163000F3B301EBC10202EB0116421EB2FBF6F25C
:10164000521C42F48042120549D093B301EBC1020F
:1016500002EB0111401EB0FBF1F0401CC0F30B0087
:1016600040F4804040F400402168CA694CF6FF73A2
:101670009A431043C861D4E9071001432068026807
:1016800022F0C00211430160D4E903010143206844
:10169000826848F2FF339A4311438160D4E905011F
:1016A00008432168CA6822F0FF021043C86001E0C5
:1016B0000EE016E02068016841F001010160256438
:1016C000202084F83D00256384F83E50002070BD42
:1016D00001EB4106421EB2FBF6F2521CB3E70120B9
:1016E000C2E701EB4101401EB0FBF1F0401CC0F32A
:1016F0000B00B7E7A086010080841E0000093D00B2
:1017000040420F002DE9F84F0025DDF8289098465B
:1017100017468A4604460095FFF730FF064694F8C0
:101720003D0020287AD119230122834920460096C2
:1017300001F042F80028F5D194F83C0001286DD062
:10174000012084F83C0020680168C90703D10168C2
:1017500041F0010101602068016821F4006101602D
:10176000222084F83D00102084F83E002564676242
:10177000A4F82A80608D20857048E06233464A468E
:101780005146204600F010FF00287DD1208DDFF863
:10179000B081202768B1012814D002282068016890
:1017A0001ED041F480610160206841698069009029
:1017B000B5E02068416981690091016841F40071D8
:1017C0000160ACE02068016821F48061016072B6BC
:1017D0002068416981690091016841F400710AE063
:1017E00041F40061016072B620684169816900912D
:1017F000016821F48061016062B690E0032868D836
:1018000001280CD002284B464FF0000241462046EA
:1018100000960FD000F0D0FFB0BB10E08AE0324657
:101820004946204601F047F870BB20680069616AAC
:1018300008706BE000F0C0FF30BB72B634E0206887
:10184000016821F48061016072B620680069616AF4
:101850000870606A401C6062208D401E2085608D8B
:10186000401E6085374846F2A8110068B0FBF1F0D1
:10187000C0EBC00000EB80000090401E009008D03C
:1018800020684069C04300E029E040070CD500987B
:10189000F3E744F8305F6773A573206940F02000D8
:1018A000206162B625731AE02068016841F4007176
:1018B000016020680069616A0870606A401C6062AB
:1018C000218D491E2185618D491E618562B6216881
:1018D0001AE032464946204600F0EDFF10B10120E3
:1018E000BDE8F88F20680069616A0870606A401C72
:1018F0006062218D491E2185618D491E61852168A7
:101900004A69D24352070AD409690170606A401CCF
:101910006062208D401E2085608D401E6085208D78
:1019200000287FF46BAF84F83D7084F83E5084F853
:101930003C50D5E70220D3E7020010000000FFFF73
:10194000040001009C0000202DE9F84F1F4690463E
:101950008A460446DDF82890FFF710FE054694F805
:101960003D0020287FD119230122404920460095BF
:1019700000F022FF002876D194F83C00012872D0B4
:10198000012084F83C0020680168C90703D1016880
:1019900041F0010101602068016821F400610160EB
:1019A000212084F83D00102084F83E0000262664A3
:1019B000C4F824806785608D20852D48E0622B4621
:1019C0004A465146204600F065FE90B920684169BC
:1019D0008069009036E02A464946204600F09EFF86
:1019E00050B1206C042804D12068016841F40071D2
:1019F00001600120BDE8F88F606A21680078086105
:101A0000606A401C6062618D491E6185218D491E9E
:101A100089B2218522685369DB435B070BD451B13E
:101A200000781061606A401C6062608D401E6085B5
:101A3000208D401E20852A464946204600F096FE0D
:101A40000028CED1208D0028C5D154F83D0B016867
:101A500041F400710160202004F81E09E6776677E2
:101A60000020C7E7FFE70220C4E7000002001000E3
:101A70000000FFFF10B586B0002100910191029196
:101A8000039100680F4988421AD10F4CA06940F0B9
:101A90000800A061A069694600F008000490C02019
:101AA000009012200190032003900848FFF76AFC81
:101AB000E06940F40010E061E06900F40010049077
:101AC00006B010BD0054004000100240000C014060
:101AD00002488168027811448160704790000020BC
:101AE000074810B5016841F010010160032000F0C3
:101AF00075F8002000F006F800F024F8002010BD72
:101B00000020024070B50D4D04464FF47A712878DC
:101B1000B1FBF0F00A490968B1FBF0F000F0ECFA13
:101B200048B9102C07D200222146501E00F036F88A
:101B300000206C6070BD012070BD0000900000208E
:101B40009C0000200C4808B5816941F001018161C9
:101B5000816901F001010091C16941F08051C161C9
:101B6000C06900F0805000900448416821F0E061B5
:101B700041F00071416008BD0010024000000140CA
:101B8000002809DB00F01F0201219140400980007C
:101B900000F1E020C0F8001170470000F0B40E4BD7
:101BA0001B680C46C3F30223C3F10705042D00D9BB
:101BB0000425191D072901D2002300E0DB1E0126A0
:101BC00006FA05F1491E214099409E40761E1640B6
:101BD0003143F0BC01F01CBB0CED00E0064900F005
:101BE000070208684FF6FF03184040EA0220034A44
:101BF00010430860704700000CED00E00000FA059B
:101C00002DE9F0470F46050061D0434E306800F0E3
:101C10000700B84209D2306820F00700384330602E
:101C2000306800F00700B84251D128683B4C81076A
:101C300012D5400703D5606840F4E0606060287802
:101C4000000703D5606840F4605060606068A96870
:101C500020F0F000084360602878C00728D068684A
:101C6000012810D02168022810D0890700292EDA17
:101C7000616821F0030101436160FFF77FFC80464A
:101C800041F288390DE021688903EFE78901EDE72A
:101C9000FFF774FCA0EB0801494502D90320BDE819
:101CA000F0876068696800F00C00B0EB810FEFD13D
:101CB000306800F00700B8420BD9306820F0070008
:101CC00038433060306800F00700B84201D001208E
:101CD000E5E72878400705D56068E96820F4E0600A
:101CE000084360602878000706D56068296920F4F9
:101CF000605040EAC100606000F038F86168084A4E
:101D0000C1F30311515CC8400649086006480068E9
:101D1000FFF7F8FE0020C2E700200240001002405A
:101D2000C44F00089C00002094000020044805498E
:101D300000684968044AC1F30221515CC8407047F9
:101D40009C00002000100240D44F000804480549C0
:101D500000684968044AC1F3C221515CC840704719
:101D60009C00002000100240D44F000812A185B052
:101D70000FC98DE80F0014A0144A00680490516840
:101D8000134801F00C03042B10D0082B0ED1C1F323
:101D90008343C9031DF803000AD5516804AAC1F39F
:101DA0004041515C0A4A5043B0FBF1F005B0704726
:101DB00008494843FAE7000002030405060708093A
:101DC0000A0B0C0D0E0F1010010200000010024053
:101DD00000127A0000093D002DE9F84F040070D090
:101DE0002078C04DC00749D06868C0F38100012841
:101DF00007D06868C0F38100022809D16868C00371
:101E000006D52868800339D560680028E7D035E01A
:101E10006068B0F5803F0BD010B1B0F5A02F11D0A5
:101E2000286820F480302860286820F4802002E0B0
:101E3000286840F480302860606890B1FFF79EFB0E
:101E400006460AE0286840F480202860F0E700BFDA
:101E5000FFF794FB801B642873D828688003F7D5AC
:101E60000CE0FFF78BFB064605E000BFFFF786FBA3
:101E7000801B6428F0D828688003F7D420789A4E15
:101E800080074FF001094FF0000839D5686810F05D
:101E90000C0F07D06868C0F38100022809D1686878
:101EA000C00306D42868800714D52069012808D10A
:101EB00010E02069B0B1C6F80090FFF75FFB07465D
:101EC00005E00AE1FFF75AFBC01B0228C4D82868C6
:101ED0008007F7D52868616920F0F80040EAC10062
:101EE00028600DE0C6F80080FFF748FB074604E0D5
:101EF000FFF744FBC01B022823D828688007F7D4CB
:101F0000207800072CD57948A169D9B1C0F8009094
:101F1000FFF734FB074604E0FFF730FBC01B022845
:101F20000FD8686A8007F7D571484FF4FA510068F6
:101F3000B0FBF1F0009000BF0098411E0091FAD272
:101F40000EE080E0C0F80080FFF718FB074604E0D1
:101F5000FFF714FBC01B022875D8686A8007F7D406
:101F60002078400760D5E8690027C00008D4E869F8
:101F700040F08050E861E869012700F0805000904F
:101F80005C480168C90513D40168834641F4807137
:101F90000160FFF7F3FA824606E000BFFFF7EEFAB2
:101FA000A0EB0A0064284ED8DBF80000C005F5D588
:101FB000E06801280AD008B1052813D0286A20F06B
:101FC00001002862286A20F0040002E0286A40F03C
:101FD00001002862E06841F2883B98B1FFF7CEFA31
:101FE00082460BE0286A40F004002862EEE700BF5A
:101FF000FFF7C4FAA0EB0A0159455AD8286A8007AE
:10200000F6D50CE0FFF7BAFA824605E0FFF7B6FA1C
:10201000A0EB0A0159454CD8286A8007F6D41FB1B5
:10202000E86920F08050E861E06988B36968C1F32D
:102030008101022944D00228C6F8608004D0FFF74D
:102040009DFA044638E034E0FFF798FA074604E0CA
:10205000FFF794FAC01B02282BD828688001F7D418
:10206000206AB0F5803F05D16868A16820F400308F
:1020700008436860D4E908010843696821F47411D1
:1020800008436860C6F86090FFF778FA044606E0F7
:1020900025E000BFFFF772FA001B022809D8286864
:1020A0008001F7D51BE000BFFFF768FA001B02288C
:1020B00002D90320BDE8F88F28688001F4D40EE02F
:1020C0000128F7D06868226A00F48031914204D177
:1020D000616A00F47010884201D00120EAE7002014
:1020E000E8E7000000100240000042428004424243
:1020F0009C0000200070004010B5401EB0F1807FB1
:1021000001D3012010BD4FF0E02460610F21601762
:1021100001F07EF80020A06107202061002010BDA2
:1021200038B5044690F83E0020281CD181B17AB120
:1021300094F83C00012816D0012084F83C0020636C
:10214000204600F0CBFF002803D1216B012901D0EC
:10215000012038BD21680A684A680092CA6842F0C6
:102160001002CA6038BD022038BD000010B50068FA
:10217000074988420BD10749642201F58E70FFF7A9
:10218000CFFF05480068416921F00401416110BD9D
:1021900000380140E80000200402002070470000E1
:1021A000F8B5026804461068D168536910F00F0F43
:1021B0004FF0000554D003F0010601F49077374347
:1021C0005FD0C20705D0CA0503D5226C42F00102D8
:1021D0002264420705D5DA0703D0226C42F00202DE
:1021E0002264820705D5DA0703D0226C42F004028C
:1021F0002264020707D501F02002324303D0226C8B
:1022000042F008022264226C002A35D0800604D5F0
:10221000880602D5204600F0BFFE20684069216C88
:10222000C0F3801001F008010143204625D000F0E2
:1022300092FE2068416949061BD5416921F04001A1
:102240004161A06BA8B158494163A06BFEF756FEEF
:10225000002811D0A06B416B01B0BDE8F0400847E9
:1022600083060ED58B060CD52046BDE8F84000F05D
:1022700093BE2046FFF792FFF8BDFFF78FFF25645E
:10228000F8BD266B2023012E52D1C60650D5CE06AE
:102290004ED5106850680090506940062AD5A16B51
:1022A000086840680004000CEAD0A68D8642E7D991
:1022B000E0858869202818D0D06820F48070D0602C
:1022C0002068416921F0010141612068416921F0E4
:1022D0004001416184F83E3025632068C16821F0E7
:1022E0001001C160A06BFEF7E5FDA08DE18D401AE5
:1022F00081B219E0A08DE18D401A81B2E08D0028F5
:10230000BED00029BCD0D06820F49070D060206886
:10231000426922F00102426184F83E302563206860
:10232000C26822F01002C2602046FFF71FFFF8BD0E
:1023300005062BD50D0629D594F83D002128F6D1A8
:10234000A068B0F5805F01D12069B0B1206A411C5E
:102350002162216800784860E08C401E0004000C77
:10236000E084E4D12068C16821F08001C160206868
:10237000C16841F04001C160F8BD206A0088C0F327
:1023800008005060206A801C2062E5E74006F3D513
:102390004806F1D5D168204621F04001D16084F88B
:1023A0003D3000F0E8F8F8BD892E000870B5040053
:1023B00004D094F83D00002510B106E0012070BD66
:1023C00084F83C50204600F023F8242084F83D0097
:1023D0002068C16821F40051C160204600F038FE39
:1023E0002068016921F4904101612068416921F070
:1023F0002A0141612068C16841F40051C16025642F
:10240000202084F83D0084F83E00002070BD0000CC
:1024100070B586B000250646009501950295039596
:102420000068224988423FD12149886940F48040B0
:102430008861886900F480400490886940F0040055
:10244000886188691B4C00F00400049048150090D6
:10245000022001900320039069462046FEF792FF78
:102460002015CDE90005694620460295FEF78AFF52
:10247000124C1148C4E900058020C4E902502561CE
:1024800040016561C4E906502046FEF7F3FE08B13D
:10249000FEF70EFDB4630022114625206662FFF7A9
:1024A0007DFB2520FFF76CFB06B070BD00380140B6
:1024B000001002400008014058000240480200207D
:1024C000704770472DE9F843044690F83D001F46D9
:1024D00016460D4620284CD1C5B1BEB194F83C003B
:1024E000012846D0012084F83C004FF00008C4F8D1
:1024F0004080212084F83D00FFF740F8A684814603
:10250000E684A068B0F5805F03D004E00120BDE858
:10251000F883206928B12E465FF0000584F83C80DE
:102520000EE00026FAE78021204600F00FFEA0B959
:10253000AEB116F8010B21684860E08C401EE084C3
:10254000E08C4B464FF0000200970028EBD14FF093
:102550004001204600F0FAFD30B10320D7E735F8FE
:10256000020BC0F30800E6E7202084F83D000020BD
:10257000CDE70220CBE77047FEE701684A69D24306
:1025800052050FD46FF480624A61002140F8301F79
:10259000202242738173026942F0040202610173D6
:1025A00001207047002070472DE9F84F0446C06AAB
:1025B0001E4693460D4621680A6842F480620A600E
:1025C000082807D0012805D010F5803F02D0206BE5
:1025D000112804D12068016841F4807101604FF036
:1025E00001195B46002249462046009600F0E4F8B7
:1025F0004FF4007840B120680068C00501D5C4F8E8
:1026000040800320BDE8F88F2069DFF884A0B0F592
:10261000804F0FD00620216800EAD51747F0F00060
:10262000086133465A460AF10601204600F0F8F8E0
:1026300058BB03E0E8B240F001001CE02168E8B2BA
:10264000086133465A465146204600F0E9F8E0B9A1
:102650002068416981690091016841F480710160DD
:102660005B46002249462046009600F0A5F8002867
:10267000C1D147F0F1002168086133465A465146FE
:10268000204600F0CDF80028BCD00120BAE70000B9
:1026900002000100F8B50446C06A1E460D46174602
:1026A000082807D0012805D010F5803F02D0206B04
:1026B000122804D12068016841F48071016013463A
:1026C00000224FF001112046009600F075F840B14D
:1026D00020680068C00502D54FF400702064032014
:1026E000F8BD2069B0F5804F0ED00620216800EAC1
:1026F000D51040F0F000086133463A460B492046B9
:1027000000F08EF878B902E005F0FE0000E0E8B2D3
:1027100021680861054933463A46891F204600F082
:102720007FF80028DCD00120F8BD0000080001007F
:10273000F8B50F460B491646D025087005240A4601
:102740000123294608480094FFF7FEF840B93346B4
:102750003A46294604480094FEF7D4FF002800D0EA
:102760000120F8BD54000020C002002070B51646BC
:102770000D4604460DE02046FFF7FFFE08B101209C
:1027800070BD681C05D0FEF7F9FE801BA84207D873
:1027900035B120684069C0434007ECD4002070BDCB
:1027A000002044F8300F20216173A073216941F0AB
:1027B000200121612073E2E72DE9F0471E46904693
:1027C0000D460446C1F30747DDF8209008E0701C71
:1027D00006D0FEF7D3FEA0EB0900B0420FD876B1C9
:1027E0002068012F18D0806925EA00000004000C41
:1027F00014D000214145EAD00020BDE8F087002038
:1028000044F8300F20216173A073216941F0200149
:10281000216120730120F0E74069E5E70121E9E744
:102820002DE9F0479A4691460E46044600254FF0A2
:102830002008C1F3074725E020684069C0434005F0
:1028400014D42068016841F40071016021686FF4BC
:1028500080604861256384F83D8084F83E50206C98
:1028600040F00400206484F83C501FE0B9F1FF3FC1
:1028700008D0FEF783FEA0EB0A0149450CD8B9F158
:10288000000F09D02068012F13D0806926EA0000CC
:102890000004000C0BD0CFE744F8305F84F80D80C3
:1028A000A573206940F02000206125730120BDE858
:1028B000F0874069EAE72DE9F041002590460E4691
:1028C0000446202717E04069C043C0060CD454F8E2
:1028D000301B6FF01000486144F810596777A577F6
:1028E000206A2062257717E0FEF748FEA0EB08007B
:1028F000B04208D83EB120684169C9434906E2D4D4
:102900000020BDE8F08144F8305F6773A57320694B
:1029100040F02000206125730120F2E770B51646D3
:102920000D4604460DE02046FFF727FE08B10120C2
:1029300070BD681C05D0FEF721FE801BA84207D899
:1029400035B120684069C0430006ECD4002070BD5A
:10295000002044F8300F20216173A073216941F0F9
:10296000200121612073E2E71CB502238DF80400E9
:1029700005208DF805100090D02101AA0348FEF72C
:10298000E3FF002800D001201CBD0000C002002091
:102990002DE9F05FDFF87080DFF870908346002447
:1029A0004FF07E5A58F82400FDF7C5FE184A194B1F
:1029B000FDF7FBFCFDF7D2FE06465146FDF721FC74
:1029C00001463046FDF7A7FC59F8247005465BF830
:1029D00024003946FDF767FC2946FDF76AFC3946B5
:1029E000FDF70FFC49F8240029465046FDF75BFC33
:1029F0003146FDF75EFC48F82400641C062CD1DB50
:102A00000248BDE8F09F0000780000201403002079
:102A1000A4703D0AD7A3C03F10B582F00042029CCB
:102A200083F0004384F0004480E81E0010BD0000E5
:102A300070B504462A4E80216B20FFF795FF642075
:102A4000FEF78EFC20782179402200F0070002EA90
:102A5000811101436B20FFF787FF6420FEF780FCA4
:102A6000E07800F007011A20FFF77EFF6078182554
:102A700005EAC0011B20FFF777FFA07805EAC00137
:102A80001C20FFF771FF042000F03EF8A078154DE0
:102A900030B1012807D0022816D0032809D116E04A
:102AA0006FF00D0101E06FF00C013046FDF771FC95
:102AB0006860607870B101280ED002280ED003281B
:102AC00001D10948A86070BD6FF00B01EDE76FF010
:102AD0000A01EAE70548F5E70548F3E70548F1E7A5
:102AE000CDCC1C4154000020398E8B3A398E0B39E5
:102AF000398E8B39398E0B3A014654220148FDF745
:102B000043BB0000C002002001461920FFF72CBF84
:102B1000FEE7FEE70FB42DE9F04F87B00C4615A98C
:102B2000DDF8509091E8800D15461E4659464846FE
:102B3000FDF7BFFB049051463046FDF7BAFB01900C
:102B400041462846FDF7B5FB009039462046FDF783
:102B5000B0FB0099FDF7A7FB0199FDF7A4FB0499D1
:102B6000FDF7A1FB039051464846FDF7A2FB0090FC
:102B700059463046FDF79DFB019039462846FDF742
:102B800098FB049041462046FDF793FB0499FDF71E
:102B900038FB0199FDF735FB0099FDF784FB0490A4
:102BA00041464846FDF785FB019039463046FDF722
:102BB00080FB009059462846FDF77BFB0590514667
:102BC0002046FDF776FB0599FDF76DFB0099FDF7B3
:102BD00018FB0199FDF715FB059039464846FDF7AE
:102BE00068FB074641463046FDF763FB0646514603
:102BF0002846FDF75EFB054659462046FDF759FB82
:102C00002946FDF7FEFA3146FDF74DFB3946FDF743
:102C1000F8FA0DF10C0C03469CE80700109C84E8C0
:102C20000F0007B0BDE8F00F5DF814FB704700001F
:102C30002DE9F84F0A46064658491046FDF76BFB4A
:102C4000FDF779FD01F06EFAFDF788FD544D28601F
:102C5000FDF771FD01F076FD02460B464FF0204076
:102C60005049FDF749FC07460C4686F00040FDF749
:102C700062FD3A462346FDF7B1FC01F053FAFDF739
:102C80006DFD494C494E4FF0FF39206000204A4607
:102C900001463060FDF711FD01F054FDFDF75EFDCA
:102CA00080463068FDF747FD4A46FDF706FD02F015
:102CB00065F8FDF753FD07462868FDF73CFD4A46D9
:102CC000FDF7FBFC01F03EFDFDF748FD06462868D8
:102CD000FDF731FD4A46FDF7F0FC02F04FF8FDF735
:102CE0003DFD05462068FDF726FD4A46FDF7E5FC5B
:102CF00001F028FDFDF732FD82462068FDF71BFD3F
:102D00004A46FDF7DAFC02F039F8FDF727FD814667
:102D10002946FDF7CEFA39460090FDF7CAFA044677
:102D200031465046FDF7C5FA83464146FDF7C1FAE4
:102D30002146FDF766FA1E4C294620605046FDF7F5
:102D4000B8FA82463946FDF7B4FA05463146484698
:102D5000FDF7AFFA06464146FDF7ABFA2946FDF707
:102D6000A2FA606030463946FDF7A3FA05465046A0
:102D70004146FDF79EFA2946FDF743FAA060414619
:102D80000098FDF796FA054658463946FDF791FA40
:102D90002946FDF788FAE060BDE8F88FCDCC1C41EC
:102DA00018000020999923401C00002020000020DA
:102DB000B00200201FB50446062269463B20FFF7FB
:102DC000B7FC28B9062202A94320FFF7B1FC60B185
:102DD0001448FEF7D9FB2046FFF72AFE1248016887
:102DE000491C0160012004B010BDBDF8000041BACB
:102DF0000E480180BDF8021049BA4180BDF80410A8
:102E000049BA8180BDF8080041BA0848801D018098
:102E1000BDF80A1049BA4180BDF80C1049BA81804A
:102E20000020E0E7C00200205000002060000020E9
:102E30007047FEF74DBE10B590B028216846FDF7EB
:102E4000BCF914210AA8FDF7B8F90220009001206E
:102E5000049010200024059007946846FEF7BCFFFC
:102E600008B172B6FEE70F20CDE90A040C940D9468
:102E700000210AA80E94FEF7C3FE002801D072B606
:102E8000FEE710B010BD704710B5406A0021C18543
:102E9000C184FFF783F910BD70B5446A20684069AA
:102EA00094F83D10C0F3C0100025212904D118B1B9
:102EB000E584204600F067F82068406994F83E10E9
:102EC000C0F38010222904D118B1E585204600F016
:102ED00042F8206C40F0100020642046FFF75EF9B5
:102EE00070BD10B50146406A0968096889061BD49F
:102EF0000021C1850168CA6822F48072CA60016835
:102F00004A6922F001024A6101684A6922F04002DE
:102F10004A61202180F83E10016B012904D101682B
:102F2000CA6822F01002CA60016B012902D0FFF7C3
:102F3000C7FA10BD818DFFF719F910BD10B5406AB1
:102F4000016B012902D0FFF7BCFA10BD818D490841
:102F5000FFF70CF910BD0168CA6822F49072CA60CC
:102F600001684A6922F001024A61016B012904D11A
:102F70000168CA6822F01002CA60202180F83E1061
:102F80000021016370470168CA6822F0C002CA606C
:102F9000202180F83D10704708B590F83E10222996
:102FA00001D0022008BD82684FF480539A4201D1BB
:102FB000016921B1816A9A421BD04AB10AE00268D4
:102FC000816A5268C2F308020A80816A891C08E09B
:102FD000026972B10268526802F07F020A70816A67
:102FE000491C8162C18D491E0904090CC18503D0A9
:102FF00019E002685268F1E70168CA6822F020020D
:10300000CA600168CA6822F48072CA6001684A69AD
:1030100022F001024A61202180F83E10016B012953
:1030200003D0FFF74DFA002008BD002101630168BD
:10303000CA6822F01002CA6001680A68D20602D586
:103040000A6849680091818DFFF790F8EBE700006E
:1030500010B5044600680169E26821F4405111434B
:1030600001612169A0680843616908432168CA6851
:1030700041F20C639A430243CA6020684169A26925
:1030800021F440711143416113492068884202D103
:10309000FEF75CFE01E0FEF749FE00EBC00101EB2C
:1030A0000010616864228900B0FBF1F1B1FBF2F01D
:1030B0006FF01803434301EB8303322101EB03114B
:1030C000B1FBF2F101F0F00202EB001001F00F0190
:1030D00008442168886010BD0038014038B581621D
:1030E00082850025134604460564222084F83E00AC
:1030F000A26B13489062A26B1248D062A26B124876
:103100001063A06B0A4645632168A06B091DFEF79A
:10311000EFF8206801684168009184F83C50C1686C
:1031200041F48071C1602068416941F00101416151
:103130002068416941F040014161002038BD000034
:10314000E32E00083D2F0008992E00082DE9F041DC
:10315000984617460E460446069D1DE0681C1BD087
:103160002DB1FEF70BFAA0EB0800A84214D9206895
:10317000C16821F4D071C1602068416921F001016A
:103180004161202084F83D0084F83E00002084F84E
:103190003C000320BDE8F0812068006836EA0000AA
:1031A00004D00020B842D9D00020F3E70120F9E78D
:1031B0000148FEF7F5BF000004020020FEE7000012
:1031C0000FB4084B10B504A902AA039800F00EFC36
:1031D000044602A9002000F0A0FF204610BC5DF8C4
:1031E00014FB00001B410008490050EAC12018BF31
:1031F00004204A0D18BF40F0010040F2FF72B2EB0C
:10320000515F08BF40F00200012808BF0520704749
:103210000907090E002804DB00F1E02080F8001403
:10322000704700F00F0000F1E02080F8141D704797
:103230002DE9F74F144696B00021C4E90211179901
:10324000089121F00045CA498D4206DC1799C4E96E
:10325000000119B00020BDE8F08FC649DFF818A3BF
:10326000A9423CDD0899C54E0029C54FC54A1799AA
:10327000534619DDFDF73AF9554506D0C24AC34B0E
:10328000FDF734F9C4E900010AE04FF0D352BF4B17
:10329000FDF72CF932463B46FDF728F9C4E9000159
:1032A00019B00120BDE8F08FFDF77FF8554506D035
:1032B000B54AB64BFDF779F8C4E900010AE04FF0D2
:1032C000D352B24BFDF771F832463B46FDF76DF82D
:1032D000C4E9000119B04FF0FF30BDE8F08FAC49F0
:1032E000A942179978DB21F000488346A94AAA4BE6
:1032F0004146FDF701F90022A84BFDF756F8FDF70E
:10330000F0FB0990FDF7CFFB06460F469D4A53465A
:10331000FDF7F2F85A464346FDF7EBF880468A4639
:10332000994A9A4B30463946FDF7E6F82A0D0125B1
:103330000B9242465346FDF7DCF8032DC4E9000129
:1033400039D00B98C1F30A51401A05EB45111139D8
:10335000814230DA9248C346784400EB0510CDF83C
:103360001CA00C90D0E9002330463946FDF7C4F884
:10337000CDE9020102460B4658460799FDF7B6F81B
:1033800080468A4602460B4658460799FDF7AEF836
:10339000DDE90223FDF7AAF883460C98039139462C
:1033A000D0E902233046FDF7A7F85A46039BFDF704
:1033B0009DF86D1CBDE708980028A2BF099819B0B8
:1033C000BDE8F08F616881F000416160099819B033
:1033D0004042BDE8F08FFFE7C1F3130141F48011D3
:1033E0000E911799C1F30A51A1F2F532511102F071
:1033F0001F08C8F12002129200220C920D92694A15
:103400007A4402EB810101F1140C0DA95FF006076B
:10341000DCF80020DCF8045002FA08F3129AD1F824
:1034200000A025FA02F21A430E9BA2FB0356A2FB50
:1034300000329A4415449A4534BF4FF0010B4FF0C7
:10344000000B51F8043C05EB0B0E7344954234BF5E
:10345000012200221644BBF1000F02D0AB4202D978
:1034600003E0AB4201D2012200E0002241F808A9AA
:103470003244E1E801237F1EACF1040CC8D1089866
:10348000DDE90A6500F10050800F11900898099F4E
:103490008000FDF708FB80468A463846FDF714FB9E
:1034A0006FF01D02FDF709F9074630460591FDF75B
:1034B0000BFB6FF03D02FDF700F9CDE90310284644
:1034C000FDF702FB6FF05D02FDF7F7F806460246D6
:1034D0000B460191DDE90310FCF767FF3A46059BB7
:1034E000FCF763FF42465346FCF75FFF00200D46A2
:1034F000834642465346FCF7F9FF3A46059BFCF7E4
:10350000F5FFDDE90332FCF7F1FF3246019BFCF7E2
:10351000F0FFDFF89880244A4346FCF7EDFF0646AB
:103520000F46234A234B58462946FCF7E5FF32460F
:103530003B46FCF73AFF0F4606464FF0A84243468B
:1035400058462946FCF7D8FF32463B46FCF72DFF8C
:10355000179A12F0004F04D0119A81F000415242A4
:103560001192C4E90001119819B0BDE8F08F000074
:10357000FB21E93F7CD90240FB21F93F7370032E08
:103580008A19A33B000040543163621A61B4D03DF4
:10359000FB21394183C8C96D305FE43F0000E03F43
:1035A000A41D00002C1D0000182D4454FB21F93DE2
:1035B0003326A611460B113C2DE9FF4D21F00048A2
:1035C00007460C46B8F1795F08DAFDF78AFA002859
:1035D00001BF0020324904B0BDE8F08D3A462346D1
:1035E00010461946FCF788FF054602462D480E4650
:1035F0000B460621784400F05DF82A463346FCF776
:103600007BFFDDE9022382468B4638462146FCF7E4
:1036100073FF04460F4652465B4628463146FCF788
:103620006BFF22463B46FCF761FF07468A464FF098
:10363000FF3228463146FDF740F81B4A90450ADA2A
:103640003A465346FCF752FF04B00022BDE8F04D65
:10365000134BFCF74EBF154A4245A8BFA8F500150D
:103660004FF00004B8BF124D22462B46FCF73EFF38
:103670000646884622462B4600200949FCF736FFBD
:1036800004460D463A46534630464146FCF72EFF67
:1036900004B022462B46BDE8F04DFCF72ABF0000DF
:1036A0000000F03FD01A00003333D33F0000E93F61
:1036B0000000D23F2DE9F0414F1E00EBC701044648
:1036C000D1E9000115461E4637F006020DD02A4604
:1036D0003346FCF711FF7F1E04EBC703D3E9002339
:1036E000FCF763FE37F00602F1D1022F25D0042F3C
:1036F00013D0062F18BFBDE8F0812A463346FCF7E9
:10370000FBFED4E90A23FCF750FE2A463346FCF7B9
:10371000F3FED4E90823FCF748FE2A463346FCF7BB
:10372000EBFED4E90623FCF740FE2A463346FCF7BD
:10373000E3FED4E90423FCF738FE2A463346FCF7BF
:10374000DBFED4E90223FCF730FE2A463346FCF7C1
:10375000D3FED4E90023BDE8F041FCF726BE00000B
:103760002DE9FF4D054621F0004084B00C46B0F134
:10377000795F0BDA2846FFF737FD042808BF00F011
:1037800065F8284608B02146BDE8F08D2A460B466C
:103790001046FCF7B1FE06460F462A462346FCF7C4
:1037A000ABFE804626488A4632463B460521784491
:1037B000FFF780FF83461098029160B3214A224BA5
:1037C00040465146FCF798FECDE900015A46404676
:1037D0005146029BFCF790FE82468846DDE90601D1
:1037E0004FF0FF32FCF769FF52464346FCF77EFE7E
:1037F00032463B46FCF780FEDDE90623FCF776FE09
:10380000DDE90023FCF772FE08B02A462346BDE836
:10381000F04DFCF76EBE0B465A4630463946FCF773
:103820006BFE084A084BFCF7C0FD42465346FCF7C6
:1038300063FE08B02A462346BDE8F04DFCF7B5BD4F
:10384000161A0000495555555555C5BF024A002066
:103850001107FCF732BF000001FDFFFF02E008C8BE
:10386000121F08C1002AFAD170477047002001E0FA
:1038700001C1121F002AFBD17047000001490860F6
:1038800070470000A00000202DE9FF5FDDE9022065
:10389000010DDDF838B0024318D044F61050A1F203
:1038A000FF3141430D140F98012820D0A5EB0B00E8
:1038B000401C5FEA000A4FF00004474EDFF81C91FD
:1038C000A046504616D5CAF1000728E00F980124FB
:1038D00043A2012808D0002100980F9BC0E90021D5
:1038E000C0E90243BDE8FF9F6FEA0B01F4E7CBF1AB
:1038F0000000DEE7074612E0F80707D0224633460D
:1039000040464946FCF7F8FD804689462246334644
:1039100010461946FCF7F0FD04460E467F10002FB6
:10392000EAD1DDE90201BAF1000F42464B4602DA64
:10393000FCF7E2FD01E0FCF751FE04460E460022D2
:10394000284BFDF739F803D84FF0FF30014607E068
:103950000022254B20463146FCF727FDFDF714F8E1
:10396000102409E0002C0ADB0A220023FCF728FFC0
:10397000019B30321A55641E50EA0102F2D1641CD8
:10398000019AC4F1110314440F9A012A03D00122B1
:1039900008430DD10AE0084304D000204FF0110B7A
:1039A0000F9080E7A3EB0B056D1E0DE05B4504DD7A
:1039B0004FF0000205F1010504E003DA4FF00002C8
:1039C000A5F10105002AECD000980F99C0E9023159
:1039D000C0E9004586E70000000024400000F03FF9
:1039E000300000000000F0430000E03F2DE9FF4FF1
:1039F00095B09B468946064600250FE2252877D1DB
:103A000000242746F84A0121059400E0044316F8F3
:103A1000013F203B01FA03F01042F7D130782A2809
:103A200011D06FF02F033078A0F13002092A16D898
:103A3000059A44F0020402EB820203EB42021044B6
:103A4000761C0590EFE759F8042B0592002A03DA5B
:103A5000504244F40054059044F00204761C30783F
:103A60002E2816D116F8010F44F004042A280DD090
:103A70006FF02F023078A0F13003092B09D807EB43
:103A8000870302EB4303C718761CF3E759F8047B5E
:103A9000761C30786C280FD006DC4C2817D06828AC
:103AA0000DD06A2814D104E0742810D07A280FD1E0
:103AB0000DE044F400140AE044F4801401E044F4FE
:103AC00040147278824202D104F58014761C761C70
:103AD000307866280BD013DC582877D009DC002812
:103AE00075D04528F6D04628F4D047281AD19DE154
:103AF00018E0632835D0642879D0652812D195E183
:103B0000702873D008DC6728F1D069286FD06E2840
:103B10000DD06F2806D1B5E073282CD0752875D04C
:103B2000782874D05A46179990476D1C75E1C4F3F4
:103B30000250022809D003280DD0D9F8001004281B
:103B40000DD00D6009F1040967E1D9F80010EA17FA
:103B5000C1E90052F6E7D9F800100D80F2E70D70C8
:103B6000F0E719F8041B8DF8001000208DF8010013
:103B7000EA46012003E059F804AB4FF0FF3061073B
:103B80004FF0000102D40DE008F101018846B9426E
:103B90000FDA8045F8DB1AF808100029F4D108E0A4
:103BA00008F1010188468142FADB1AF80810002961
:103BB000F6D105985B46A0EB080721463846179AD0
:103BC00000F094FA284400EB080507E04DE029E1F5
:103BD0000DE01AF8010B5A4617999047B8F1010801
:103BE000F7D25B4621463846179A13E142E00A2293
:103BF0000092C4F302524FF0000A022A08D059F88A
:103C000004CB032A4FEAEC710AD00DE029E02AE048
:103C100009F1070121F00702F2E802C1914609E02B
:103C20000FFA8CFC4FEAEC71042A03D14FFA8CFC9A
:103C30004FEAEC71002907DA0A460021DCF1000C9A
:103C400061EB02012D2202E0220504D52B228DF822
:103C50000420012203E0E20701D02022F7E790468A
:103C600059E00A2102E010220DE010214FF0000A75
:103C700000910BE010224FF0000A44F004040827E2
:103C8000009203E008224FF0000A0092C4F30252AF
:103C9000022A05D059F804CB0021032A08D009E0F4
:103CA00009F1070121F00702F2E802C1914605E09F
:103CB0001FFA8CFC042A01D10CF0FF0C4FF0000815
:103CC000220728D5702806D0009B83F0100353EA02
:103CD0000A0305D00EE040228DF80420012208E0FE
:103CE0005CEA010206D030228DF804208DF8050030
:103CF00002229046009B83F0080353EA0A030AD18C
:103D00005CEA010201D1620705D530228DF804205A
:103D10004FF001087F1E582804D034A003900EA84D
:103D200002900DE036A0F9E753466046009AFCF792
:103D300047FD84460398825C0298401E0290027000
:103D40005CEA0100F0D1029806A9081A00F1200AE5
:103D5000600702D524F4803400E00127574502DDD6
:103D6000A7EB0A0000E0002000EB0A010090059894
:103D70004144401A0590E00306D45B462146179A59
:103D8000059800F0B3F90544002706E001A85A465B
:103D9000C05D179990476D1C7F1C4745F6DBE0031B
:103DA0000CD55B462146179A059800F09FF905440B
:103DB00004E030205A46179990476D1C0099481E20
:103DC00000900029F5DC08E0029802995A46007834
:103DD000491C0291179990476D1CBAF10001AAF194
:103DE000010AF1DC65E100000928010030313233BD
:103DF0003435363738396162636465660000000027
:103E00003031323334353637383941424344454610
:103E10000000000000F058F90544761C30780028B6
:103E20007FF4ECAD19B02846BDE8F08F620700D4EE
:103E3000062709F1070222F0070CFCE80223E146FD
:103E400003F000485FEA080C02D00FF2702C0DE07E
:103E50005FEA045C02D50FF2682C07E05FEAC47CDD
:103E600002D00FF2602C01E0AFF2700C4FF0FF387F
:103E700023F00043CDF850C065280CD006DC45285F
:103E800009D046281DD047283DD13DE0662818D0EE
:103E900067287ED138E00021112F01DB112000E0DE
:103EA000781CCDE9000106A90EA8FFF7EDFCDDE9BD
:103EB0000F010E9A03910021009207F1010A04916B
:103EC0004DE04FF000400097CDE9011006A90EA883
:103ED000FFF7DAFCDDE90F0203920E9B1199002235
:103EE000DDF80CA00093049211B9791C00EB010AD3
:103EF000B7EB0A0004D4C0F1FF3007F1010A0490C7
:103F0000AAEB0700019044E0012F00DA012700210D
:103F1000112F01DD112000E03846CDE9000106A98E
:103F20000EA8FFF7B1FCDDE90F010E9A0391002105
:103F300004910092BA4621070CD40399514500DA46
:103F40008A46BAF1010F05DD009AAAF10101515C20
:103F5000302908D0B84202DA10F1040F06DA012144
:103F6000CDE9011015E0AAF10101E9E7002805DC1F
:103F7000049901440491AAEB000102E0411C51455F
:103F800000DD8A460499401A401C01904FF0004021
:103F90000290200704D40198504501DBCDF804803D
:103FA00000208DF84F0002980DF14F07B0F1004F3F
:103FB00025D02B200E9002984FF0020800280CDA32
:103FC000404202902D200E9007E00A210298FCF753
:103FD000E1FB3031029007F8011DB8F10001A8F1B2
:103FE0000108F2DC02980028EFD1791E0E980870C3
:103FF000307800F0200040F0450007F8020D12A8CC
:10400000C01B00F107081498007800B1012000EBF4
:104010000A01019801EBE07105984144401A401EE5
:104020000590E00306D45B462146179A059800F0F8
:104030005DF805441498007818B15A4617999047CE
:104040006D1CE00324D55B462146179A059800F0C5
:104050004DF805441CE00498002807DBDDE9030166
:10406000884203DD0098405C179901E017993020E1
:104070005A469047049805F10105401C04900198A8
:10408000401E019004D12E205A46179990476D1C6E
:10409000BAF10001AAF1010ADDDC05E017F8010B15
:1040A0005A46179990476D1CB8F10001A8F1010814
:1040B000F4DC5B462146179A0598ABE62D0000001C
:1040C0002B000000200000002DE9F04104460025EF
:1040D0001E461746880404D405E039462020B04720
:1040E0006D1C641EF9D52846BDE8F0812DE9F0412C
:1040F000044600251E469046C80301D5302700E03F
:104100002027880404D505E041463846B0476D1C99
:10411000641EF9D52846BDE8F0810A68531C0B607F
:10412000107070472DE9F04D904F21F0004A86B095
:1041300005460C46BA4530DBAAEB070028430CD0F5
:104140008B48824501DC1CD1DDB106B02846BDE8B4
:10415000F04D4FF00102FCF7B0BA864A864B284674
:10416000FCF7CAF907460E46844A854B2846214685
:10417000FCF7C2F906B03A463346BDE8F04DFCF70D
:1041800014B90120FFF77AFB06B00022BDE8F04D1C
:10419000134610461146FCF721BA7A48824542DAA6
:1041A000BAF1795F0BDA2846FFF71EF8042808BF3A
:1041B000FFF74CFB284606B02146BDE8F08D2A46A5
:1041C0000B461046FCF798F9834602466E480E46A9
:1041D0000B4606217844FFF76DFA5A463346FCF742
:1041E0008BF9804669488A465A463346042178440A
:1041F000FFF760FA5A463346FCF77EF900223B4649
:10420000FCF7D3F802460B4640465146FCF7E6F968
:104210002A462346FCF770F906B02A462346BDE835
:10422000F04DFCF7C2B8284624F0004100223D467C
:104230003B46FCF75EF94FF0FF32FCF73EFA0646CC
:10424000024653480F460B4606217844FFF732FAE0
:1042500032463B46FCF750F9CDE900014D48324665
:104260003B4604217844FFF725FA32463B46FCF7EB
:1042700043F900222B46FCF798F88346029130461A
:10428000394600F0D3FD804643480D46504517DCC3
:10429000DDE900015A46029BFCF7A0F942462B4695
:1042A000FCF72AF942462B46FCF77FF80122FCF77F
:1042B00004FA304A304BFCF719F9304A304B4CE0E5
:1042C0004FF0000A52460B464046FCF76EF8CDE927
:1042D000031052462B4610461946FCF70DF932469C
:1042E0003B46FCF706F9DDE90332FCF777F90646B1
:1042F0000F46DDE900015A46029BFCF76FF9834641
:104300000091012230463946FCF7D7F9194A1A4B79
:10431000FCF7EFF806460F46012240462946FCF717
:10432000CCF95A46009BFCF7E7F832463B46FCF7CF
:10433000DDF807460E46012250462946FCF7BDF936
:104340000E4DDFF858802A464346FCF7D2F83A462D
:104350003346FCF7CEF82A464346FCF7CAF8002C51
:10436000D8BF81F0004106B0BDE8F08D0000F03FFD
:104370000000F07F075C143326A6913C182D4454AE
:10438000FB21F93F0000E03F080E00001E0E000078
:10439000920D0000A80D00003333EF3FFB21E93FF1
:1043A0002DE9F84F04460D4621F000400091744974
:1043B000814213DC7349884201DC08D13CB12046BC
:1043C0002946BDE8F84F4FF00102FCF776B96E4878
:1043D000002DCCBF6D496E49BDE8F88F6D49814213
:1043E00011DD6D498142D8BF4FF0FF366DDD2046AB
:1043F0002946FEF7F9FE042808BFFFF727FA2046F2
:104400002946BDE8F88F6549654F25F00045814292
:1044100033DD6449814219DD002632464FF0804386
:1044200020462946FBF7C1FF80468A4601222046E6
:104430002946FCF742F900223B46FCF757F8424672
:104440005346FCF7CBF804460D463EE00126002219
:10445000BA463B4620462946FBF7A7FF80460F4653
:104460000022534620462946FCF740F842463B4688
:10447000FCF7B4F804460D4627E04B4981421BDDAA
:10448000DFF8288102260022434620462946FCF711
:1044900033F800223B46FBF788FF07468A46002296
:1044A000434620462946FCF721F83A465346FCF796
:1044B00095F804460D4608E0032622462B460020C8
:1044C0003B49FCF78BF804460D4622462B46104626
:1044D0001946FCF711F88B46824602460B46FCF75C
:1044E0000BF807460246334888460B4606217844B7
:1044F000FFF7E0F852465B46FBF7FEFF82462E4888
:104500008B463A46434605217844FFF7D3F83A46AE
:104510004346FBF7F1FF02460B46002E5046594634
:104520000CDAFBF742FF22462B46FBF7E5FF01B012
:1045300022462B46BDE8F04FFBF7DBBFFBF735FF0C
:1045400022462B46FBF7D8FF1C4A7A4402EBC603EF
:10455000D3E90023FBF7CAFF22462B46FBF7C6FF31
:10456000174A7A4402EBC603D3E90023FBF7C1FFE5
:10457000009A002AB8BF81F00041BDE8F88F000022
:10458000000010440000F07F182D4454FB21F93F37
:10459000FB21F9BF0000DC3F0000203E0000F33F9C
:1045A0000000F03F0000E63F008003400000F83FBD
:1045B0000000F0BFA60B0000640B0000020B00001F
:1045C000CA0A00002DE9F04D9446CCF1000423F016
:1045D00000464CEA0404524F46EAD4749A46884690
:1045E00021F00042BC4206D8454240EA050442EAB6
:1045F000D474BC4204D9BDE8F04D6246FBF7D5BE89
:10460000AAF14055A5F17F6555EA0C040BD00224B0
:1046100004EAAA74434DDFF810E144EAD87452EA80
:10462000000B04D00CE0BDE8F04DFFF7B9BE002C44
:1046300014BF012CBDE8F08D022C30D0032C32D0F9
:1046400056EA0C0B0AD0BE4220D1BA4209D126F05C
:10465000804622F080423346114617E000291ADBDB
:1046600025E0DFF8C8B0FB44002C04BFDBE9000103
:10467000BDE8F08D012C02BFDBE9000181F00041B3
:10468000BDE8F08D022C0AD0032C0CD0BA4212D116
:10469000B8F1000F0BDA23482549BDE8F08D284614
:1046A0002449BDE8F08D28467146BDE8F08D1D48CF
:1046B0002149BDE8F08D921B12153C2AC4BF194850
:1046C0001D490EDCBAF1000FBEBF12F13C0F0020F5
:1046D000014606DB6246FBF781FF21F00041FFF750
:1046E0005FFE002C08BFBDE8F08D012C04BF81F0F7
:1046F0000041BDE8F08D114A114B022C07D0FBF7A9
:10470000F5FE2A46BDE8F04D0A4BFBF7EFBEFBF77E
:10471000EDFE2A46BDE8F04D064BFBF7EABE000071
:104720000000F07F182D4454FB2109C08E0A0000C0
:10473000FB21F9BFFB210940FB21F93F075C143342
:1047400026A6A13C00B5284B21F0004287B09A4232
:10475000DCBF0022134631DD244B9A420DD168B9EB
:104760004FF00100FFF78AF8002207B01346104609
:1047700011465DF804EBFBF731BF06DB07B04FF0E5
:1047800001025DF804EBFBF798BF02AAFEF750FDAB
:1047900010F0030104BF0DF1080C9CE80F000DD0D0
:1047A000012001290ED0022914D00DF1080C00902F
:1047B0009CE80F00FEF7D4FF07B000BDFEF7FCFE3B
:1047C00007B000BD0DF1080C00909CE80F00FEF74B
:1047D000C7FF05E00DF1080C9CE80F00FEF7ECFEAA
:1047E00007B081F0004100BDFB21E93F0000F07FF0
:1047F0002DE9F041504C6168E068FBF75AFD054631
:10480000A1682068FBF755FD2946FBF74CFD012107
:10481000FBF7BFFDFBF776FF002801DB074600E052
:104820004742454E454DB1683068FBF742FD804632
:104830007168F068FBF73DFD01464046FBF733FD2C
:104840000121FBF7A6FDFBF776FF012F04DB3D4AB4
:104850003B4862F31E0101E0FFF764FCFBF77EFFBB
:104860002860D4E902713846FBF723FD0646D4E9F7
:1048700000052946FBF71DFD3146FBF7C2FC01216F
:10488000FBF787FD064639460846FBF712FD07464B
:1048900029460846FBF70DFD3946FBF7B2FC01211E
:1048A000FBF777FD4FF07E584146FBF7FFFCFBF727
:1048B00042FF07460D463046FBF73DFF3A462B4682
:1048C000FFF780FEFBF74AFF1F490860D4E90107A4
:1048D0003946FBF7EEFCE568064629462068FBF7FB
:1048E000E8FC3146FBF78DFC0121FBF752FD064643
:1048F00029460846FBF7DDFC044639460846FBF727
:10490000D8FC2146FBF77DFC0121FBF742FD414627
:10491000FBF7CCFCFBF70FFF05460C463046FBF7D8
:104920000AFF2A462346FFF74DFEFBF717FF07490C
:104930000860BDE8F0810000B002002018000020EF
:104940001F85EB51B81EF93F1C00002020000020FD
:1049500094B0FDF7C5F8FEF76EFAEF48816941F0B3
:1049600020018161816901F020010091816941F09C
:1049700004018161816901F004010091816941F0C4
:1049800008018161816901F008010091416941F0EC
:10499000010141614069002200F0010000901146D0
:1049A0000F20FDF7FBF80F20FDF7EAF8DC4DDB48A0
:1049B000002428604FF46130C5E901040C20EC604C
:1049C000C5E90440AC612846EC61FDF7EFFC08B195
:1049D00072B6FEE7D248D34954380160D249C0E9E3
:1049E00001144FF48041C0E9034144618461C46112
:1049F0000462FCF7C9FD08B172B6FEE7C848543836
:104A0000FEF77AF88DF846408DF8444001208DF885
:104A100047008DF845008DF8484011A8FEF708F8CA
:104A20006422C249BE48FDF77BFB2868416921F03A
:104A3000040141610321BA48FCF70CF9FCF78EF838
:104A4000BB4D03E0012815D0FCF788F80028F9D108
:104A5000B7480188C068FCF783F9002425462E4634
:104A6000A046FCF78BFD0027089011A8FEF7A2F9DD
:104A700028B112E0D5E90101FCF7E8F9E8E7AD4813
:104A8000B0F900100C44B0F90210B0F904000D4464
:104A9000064408F1010000F0FF087F1C0A2FE4DB48
:104AA0004046FBF72AFE07462046FBF71DFEA249BB
:104AB00009688846FBF7FDFB3946FBF72CFC0446EA
:104AC0002846FBF711FE4146FBF7F3FB3946FBF79F
:104AD00022FC05463046FBF707FE4146FBF7E9FBA3
:104AE0003946FBF718FC024629462046FEF7A0F897
:104AF00092A18E48FBF76CFB30B1FCF78FF8642174
:104B00008A48FBF75AFBF3E74FF00008C246D3464A
:104B10005C462546A946464618210BA8FBF74DFBE7
:104B2000FCF72CFD07460898381AFBF7E6FD864986
:104B3000FBF7BFFB7E4908610897002711A8FEF725
:104B400039F9A8B97B48761CF6B2B0F90020904438
:104B5000B0F90220B0F90400924483447B48B0F9D4
:104B600000100C44B0F90210B0F904000D44814467
:104B70007F1C032FE2DB002EBAD03046FBF7BDFDD1
:104B800006464046FBF7B0FD6B4909680F46FBF748
:104B900090FB3146FBF7BFFB0B905046FBF7A4FDA3
:104BA0003946FBF786FB3146FBF7B5FB0C905846C0
:104BB000FBF79AFD3946FBF77CFB3146FBF7ABFB75
:104BC0000D902046FBF790FD614909680C46FBF704
:104BD00070FB3146FBF79FFB0E902846FBF784FDE8
:104BE0002146FBF766FB3146FBF795FB0F903546F8
:104BF0004846FBF779FD2146FBF75BFB2946FBF7AF
:104C00008AFB10900BA8FDF7C3FE494C0168216395
:104C1000416861638168A163C168E16301692164DE
:104C20004069606400F028F9FFF7E2FD00F076F9D2
:104C30002169206A0D46FBF73CFBA16AFBF7E1FA0C
:104C4000A06209902946606AFBF733FBE16AFBF733
:104C5000D8FAE0623F4D0A9029466069FBF729FBCC
:104C6000FBF769FD3C4E3D4F32463B46FBF7B6FC39
:104C7000FBF774FD834660612946A069FBF719FBC9
:104C8000FBF759FD32463B46FBF7A8FCFBF766FDF8
:104C90008046A0612946E069FBF70BFBFBF74BFD63
:104CA00032463B46FBF79AFCFBF758FDE061A16CEE
:104CB0000322B1FBF2F302FB131141BBFBF73BFDF7
:104CC00006460F464046FBF736FD81468A46584663
:104CD000FBF731FD054688460A98FBF72CFD00904E
:104CE0008B460998FBF727FD0DF1080CCDF804B0B1
:104CF0008CE8200702460D480B4619A16430CDE927
:104D00000667FEF75DFA09486430FCF791F8A06C7D
:104D1000401CA064ECE60000001002400038014096
:104D20000402002000540040801A0600E800002021
:104D30000400002060000020580000206B657420F3
:104D400074687563000000006F12833A66000020EB
:104D50005C000020000034431F85EB51B81E094061
:104D6000252E31662C252E31662C252E31662C25DC
:104D70002E31662C252E31660D0A000000B5294B18
:104D800021F0004287B09A4203DC002213460092D1
:104D900033E0254B9A420DD168B94FF00100FEF780
:104DA0006DFD002207B01346104611465DF804EB76
:104DB000FBF714BC06DB07B04FF001025DF804EB13
:104DC000FBF77BBC02AAFEF733FA10F003014FF0A9
:104DD00001000DD0012914D002291AD00DF1080CC0
:104DE0009CE80F00FEF7E8FB07B081F0004100BD32
:104DF0000DF1080C00909CE80F00FEF7B1FC07B025
:104E000000BD0DF1080C9CE80F00FEF7D5FB07B0C4
:104E100000BD0DF1080C00909CE80F00FEF7A0FC0F
:104E2000E2E70000FB21E93F0000F07F2DE9F041BF
:104E300006460F46FBF7E6FD04000D4618BF0120AD
:104E4000284320F00040C0F17F6000F1E040C00F37
:104E50000ED0301C18BF0120384320F00040C0F1B4
:104E60007F6000F1E040C00F04BF0120FEF706FDA7
:104E700020462946BDE8F0812DE9F04122488AB05C
:104E80004FF07E570068FBF756FC05461F480E465C
:104E90000068FBF750FC4FF0FF32FBF70EFC884632
:104EA00004462A463346FBF727FBFBF757FC05462B
:104EB00017480068FBF73FFC22464346FBF71CFB04
:104EC000FBF74CFC064613480068FBF734FC22460F
:104ED0004346FBF711FBFBF741FCCDE903600E4CA9
:104EE000CDE90175206B0090243405A894E80E00EC
:104EF000243CFDF70FFE05AD243495E80F0084E84F
:104F00000F000AB0BDE8F08140000020140000202E
:104F100044000020480000208C0200202DE9F041D0
:104F20002148244C92B00668204800250768204894
:104F3000D0F80080206B009024340DA894E80E0077
:104F4000243CFDF769FD01A880E8E001109800907D
:104F50000DA890E80E0005A8FDF7DCFD243494E8C8
:104F60000F0001AC84E80F000898009005A890E8B5
:104F70000E0009A8FDF7CEFD0F480A990068054606
:104F8000FBF797F90D4C2168FBF73BF920602846A9
:104F90000B99FBF78EF90A4C2168FBF732F9206078
:104FA00012B0BDE8F081000034000020380000207D
:104FB0003C0000208C02002014000020240000206F
:104FC000280000200000000000000000010203048F
:104FD00006070809000000000102030400000000A9
:104FE000555555555555C53F7D6FEB0312D6D4BF6A
:104FF0005544880E55C1C93F3B8F68B52882A4BF70
:1050000088B20175E0EF493F09F7FD0DE13D023F30
:105010004B2D8A1C273A03C0C88A599CE52A0040B8
:1050200059018D1B6C06E6BF82922EB1C5B8B33F05
:105030004FBB610567ACDD3F182D4454FB21E93FB0
:105040009BF681D20B73EF3F182D4454FB21F93F9F
:10505000E2652F227F2B7A3C075C143326A6813C25
:10506000BDCBF07A8807703C075C143326A6913CD0
:10507000C4EB98999999C9BF711623FEC671BCBF3C
:105080006D9A74AFF2B0B3BF9AFDDE522DDEADBFA4
:105090002F6C6A2C44B4A2BF0D5555555555D53FBC
:1050A000FF8300922449C23F6E204CC5CD45B73FD7
:1050B000513DD0A0660DB13FEB0D76244B7BA93F4F
:1050C00011DA22E33AAD903F4C5555555555A53F61
:1050D0007751C1166CC156BF9015CB19A001FA3E8D
:1050E000AD529C804F7E92BEC4B1B4BD9EEE213EB7
:1050F000D43888BEE9FAA8BD000000000000000016
:1051000000004054FB21F93F3163621A61B4D03D85
:105110000000601A61B4D03D7370032E8A19A33B5E
:105120000000002E8A19A33BC14920259A837B39B0
:1051300000000000000000006E83F9A22915444E13
:10514000D15727FCC0DD34F5999562DB4190433C93
:10515000AB6351FE61C5BBDE3A6E24B7E0D24D426F
:10516000EA2E49061C92D1091CEB1DFE3EA729B16F
:10517000F53582E88444BB2E26709CE9417E5FB4FD
:1051800039D69139F43953838B5F849C3B28F9BD20
:10519000FF97F81F0F9805DE8B112FEF1F6D0A5A2E
:1051A000CF7E366DB709CB27663F464F2DEA5F9E0F
:1051B000C7BA27757BF1E5EBF739073DEA92528ACA
:1051C000B15FFB6B085D8D1FA6F810111111813FB7
:1051D000D561C119A0012ABF7DFEB157E31DC73EAD
:1051E000EB9C2B8AE6E55ABE7CD5CF5A3AD9E53DF1
:1051F0003139322E3136382E312E31303000000028
:1052000074616E686F383838380000006168616812
:10521000610000003452000800000020A4000000DB
:105220005C380008D8520008A40000208C0600005A
:105230006C38000800010000500000000C5200080B
:1052400000520008F05100080000000000000000BB
:10525000000000000000000000000000000000004E
:10526000000000000000000000000000000000003E
:10527000000000000000000000000000000000002E
:10528000000000000000000000000000000000001E
:10529000000000000000000000000000000000000E
:1052A00000000000000000000000000000007A4440
:1052B00000000000000000000000000000000000EE
:1052C00000000000010000001000000000000000CD
:0852D0000024F40000000000BE
:0400000508000131BD
:00000001FF
