:020000040800F2
:10000000C005002045010008B5160008B11600081B
:10001000B316000835020008451A00080000000069
:10002000000000000000000000000000B9160008F9
:100030006F02000800000000B7160008BB16000899
:100040005F0100085F0100085F0100085F01000810
:100050005F0100085F0100085F0100085F01000800
:100060005F0100085F0100085F0100085F010008F0
:100070005F0100085F0100085F0100083902000805
:100080005F0100085F0100085F0100085F010008D0
:100090005F0100085F0100085F0100085F010008C0
:1000A0005F0100085F0100085F0100085F010008B0
:1000B0005F0100085F0100085F0100085F010008A0
:1000C0005F0100085F0100085F0100085F01000890
:1000D0005F010008391A00085F0100085F0100088D
:1000E0005F0100085F0100085F0100085F01000870
:1000F0005F0100085F0100085F0100085F01000860
:100100005F0100085F0100085F0100085F0100084F
:100110005F0100085F0100085F0100085F0100083F
:100120005F0100085F0100085F0100085F0100082F
:10013000DFF80CD000F06CF800480047751C000890
:10014000C00500200648804706480047FEE7FEE756
:10015000FEE7FEE7FEE7FEE7FEE7FEE7FEE7FEE777
:100160000F1700083101000840EA01039B0703D084
:1001700009E008C9121F08C0042AFAD203E011F8E6
:10018000013B00F8013B521EF9D27047D2B201E0A8
:1001900000F8012B491EFBD270470022F6E710B58C
:1001A00013460A4604461946FFF7F0FF204610BDE5
:1001B00030B505462A460B4612F8010B13F8014BE1
:1001C00008B1A042F8D01CB1002802D06D1CF1E7A4
:1001D000284630BD421C10F8011B0029FBD1801AB3
:1001E000704730B50B46014600202022012409E06B
:1001F00021FA02F59D4205D303FA02F5491B04FAE0
:1002000002F52844151EA2F10102F1DC30BD000008
:10021000064C074D06E0E06840F0010394E8070053
:1002200098471034AC42F6D3FFF786FFE01D000874
:10023000001E0008FEE70000014800F037BA000089
:100240007801002030B590F840500124AC40C56BD7
:100250006C60046863604368102B036803D0996086
:100260000068C26030BD9A600068C16030BD7047F0
:1002700070B564211648FFF790FF16A000F06EF8E5
:1002800000240A2000F0ACFB641C642CF9DB14A1F0
:100290000F48FFF78DFF08B1002070BD11A10C4879
:1002A000FFF786FF90B10BA000F058F800244FF440
:1002B000C8750A2000F094FB641CAC42F9DB09A16C
:1002C0000348FFF775FF08B1012070BD022070BD23
:1002D0006C00002041542B43574A41503F0000001E
:1002E0004F4B00004E6F20415000000010B50C46EF
:1002F00001469AB044221048FFF736FF6421684651
:10030000FFF74BFF22460DA1684601F09DFB6846B2
:1003100000F024F8322000F063FB012C03D0022C03
:1003200004D0032C06D109A1012001E007A102207D
:1003300000F032F81AB010BD2800002041542B43C1
:10034000574D4F44453D2564000000003139322EA1
:100350003136382E312E31313100000030B599B0B0
:100360000546FFF737FF044664216846FFF715FF8F
:100370002A4606A1684601F067FBA41CA2B26423CA
:100380006946044801F03AF919B030BD25730D0AE9
:10039000000000002800002030B599B00D4604464A
:1003A00064216846FFF7F9FE012C02D0022C03D02D
:1003B00007E02A4607A101E02A460AA1684601F0A3
:1003C00043FB6846FFF7CAFF322000F009FB19B073
:1003D00030BD000041542B4349505354413D222528
:1003E0007322000041542B43495041503D22257354
:1003F00022000000FFF7B2BF70B505469AB00C4668
:100400001BA0FFF7ABFF1D4E00203070322000F024
:10041000E7FA1BA0FFF7A2FF322000F0E1FA642107
:1004200001A8FFF7BAFE5020009023462A4618A1E3
:1004300001A801F009FB01A8FFF790FF322000F0AE
:10044000CFFA1BA11C48FFF7B3FE0028F3D01BA076
:10045000FFF784FF322000F0C3FA1BA11648FFF714
:10046000A7FE0028F3D0012070701AB070BD000004
:1004700041542B4349504D55583D30000000002059
:1004800041542B4349504D4F44453D31000000003D
:1004900041542B43495053544152543D22554450EA
:1004A000222C222573222C25642C25642C3000005C
:1004B000434F4E4E454354006C00002041542B43A3
:1004C000495053454E4400003E00000030B599B0FD
:1004D0000C46054664216846FFF75FFE23462A4620
:1004E0000CA1684601F0B0FA64210F48FFF755FEF1
:1004F0006846FFF733FF00240A2000F071FA641CFD
:10050000642CF9DB09A10848FFF752FE0028EFD060
:1005100019B030BD41542B43574A41503D222573F9
:10052000222C2225732200006C0000204F4B00007B
:1005300072B6FEE710B590F821100022022905D00E
:100540000421816380F82020012010BD01680B6820
:1005500023F00E030B6001680B6823F001030B60AE
:1005600090F84030C46B012101FA03F3636080F816
:10057000211080F82020104610BD00002DE9F05F0A
:1005800090F821100024022903D004218163012462
:1005900085E001680A6822F00E020A6001680A68B4
:1005A00022F001020A603F4E3E4FB215DFF8F4C060
:1005B000DFF8F090DFF8ECA0DFF8E8B0DFF8E4E077
:1005C0000168783F13011502ACF1640CA9F15009E0
:1005D000AAF13C0AABF1280BAEF1140E4FF48018CF
:1005E000B14227D9B9420ED0614512D049451DD03C
:1005F000514518D0594518D0714501D1424615E0F2
:10060000294EB14201D1012210E0274E1436B142E9
:1006100001D110220AE0244E2836B14206D0224AE7
:100620003C32914201D11A4600E02A461E49091F78
:100630000A602BE0B94213D0614517D0494522D05A
:1006400051451DD059451DD0714501D142461AE092
:10065000B14202D14FF0807215E0134EB14201D188
:10066000012210E0104E1436B14201D110220AE0EE
:100670000D4E2836B14206D00B4A3C32914201D190
:100680001A4600E02A46074980394A60012180F86D
:100690002110002180F82010416B01B188472046CD
:1006A000BDE8F09F80000240080402402DE9F05FA1
:1006B000C16B0A6801680B68046C4FF0040808FA03
:1006C00004F8844D844E854FDFF814C2DFF814928D
:1006D000DFF814A2DFF814B2DFF814E218EA020F10
:1006E00065D05FEA437862D50A68920603D40A6847
:1006F00022F004020A60DFF8F0814FF480620168A2
:1007000008F1140813011402414524D9A9420DD05F
:10071000B1420FD0B9421AD0614515D0494515D024
:10072000514501D1120312E0594501D104220EE0D6
:10073000714501D140220AE06D4D1435A94206D021
:100740006B4A2832914201D11A4600E0224667499D
:10075000091F0A6029E0A94213D0B14215D0B9425D
:1007600020D061451BD049451BD0514502D14FF4E3
:10077000800217E0414502D14FF0806212E05945F6
:1007800001D104220EE0714501D140220AE0584D0A
:100790001435A94206D0564A2832914201D11A4650
:1007A00000E022464B4908394A60C16A71E04FF0C7
:1007B000020808FA04F818EA020F70D05FEA83789A
:1007C0006DD50A68920606D40A6822F00A020A6009
:1007D000012180F82110DFF810814FF400720168C8
:1007E00008F1140813011402414524D9A9420DD07F
:1007F000B1420FD0B9421AD0614515D0494515D044
:10080000514501D1120312E0594501D102220EE0F7
:10081000714501D120220AE0354D1435A94206D098
:10082000334A2832914201D11A4600E022462F492C
:10083000091F0A6029E0A94213D0B14215D0B9427C
:1008400020D061451BD049451BD0514502D14FF402
:10085000001217E0414502D14FF0007212E05945F5
:1008600001D102220EE0714501D120220AE0204D83
:100870001435A94206D01E4A2832914201D11A46A7
:1008800000E02246134908394A60002180F8201010
:10089000816A00291CD0BDE8F05F0847FFE7082502
:1008A000A540154214D01A0712D50A6822F00E028C
:1008B0000A6090F84020C36B012101FA02F25A60ED
:1008C000816380F82110002180F82010016BE0E79F
:1008D000BDE8F09F080002401C00024030000240CA
:1008E00044000240580002406C00024008040240EC
:1008F0001C04024030B560B11A4B026814219A42C0
:1009000009D2194B1344B3FBF1F189000164174973
:100910000AE0012030BD134B5B421344B3FBF1F1FD
:10092000890001640F490839C163022180F8211050
:10093000136843F6F0718B43F0E901142143D0E9C9
:1009400002452C43214304692143446921438469BE
:10095000214319431160002141630122427701774D
:10096000084630BD08040240F8FFFDBF0000024009
:1009700070B5044690F82000002501280CD0012015
:1009800084F8200094F821600020012E06D084F81D
:1009900020000225284670BD022070BD022684F882
:1009A0002160A0632068066826F0010606602046E4
:1009B000FFF748FCE06A00282068016802D041F097
:1009C0000E0106E021F0040101602068016841F099
:1009D0000A0101602068016841F001010160D9E766
:1009E00070B5044600F00AF90546601C02D00448C0
:1009F0000078044400F002F9401BA042FAD370BD15
:100A0000180000202DE9F84FDFF8C891002409F103
:100A1000040A0AF1040B23460F270BF1040ED1E060
:100A20000125A54006EA0502AA4276D1DFF8A8C151
:100A30004E68A6EB0C0866452BD00DDC032E34D097
:100A400005DC36B3012E19D0022E2FD11BE0112E5A
:100A500016D0122E2AD119E0B8F5881F19D006DC5D
:100A6000B8F5803F15D0B8F5801F1FD111E0B8F55B
:100A7000001F0ED0B8F5041F18D10AE0CB6815E0AE
:100A8000CB681B1D12E0CB6808330FE0CB680C333A
:100A90000CE08B682BB1012B4FF0080303D04561AC
:100AA00004E0042302E0056100E00023FF2A01D8EE
:100AB000064601E000F104064FEA840501D9A5F1DC
:100AC0002005D6F8008007FA05FC28EA0C0803FA8E
:100AD00005F548EA0508C6F800804D68ED0070D5B8
:100AE0003E4DAE6946F00106AE61AD6924F00306E5
:100AF00005F0010500953A4D06EB050CDCF80850B1
:100B0000A607360F07FA06F825EA0805DFF8D480AD
:100B1000404503D14FF0000825E052E0DFF8C880DF
:100B2000404502D14FF001081DE0DFF8C08040458C
:100B300002D14FF0020816E0DFF8B480404502D140
:100B40004FF003080FE0DFF8AC80404502D14FF0D2
:100B5000040808E0DFF8A080404502D14FF0050806
:100B600001E04FF0060808FA06F848EA0508CCF854
:100B700008804D68D9F80060ED034D4601D5164355
:100B800000E096432E604D68DAF80060AD035546EC
:100B900001D5164300E096432E604D68DBF80060F7
:100BA000ED025D4601D5164300E096432E604D6888
:100BB000DEF80060AD02754601D5164300E09643AD
:100BC0002E60641C0A681646E2407FF429AFBDE837
:100BD000F88F0000000401400000111000100240D6
:100BE0000000014000080140000C014000100140DD
:100BF0000014014000180140001C014001488068B9
:100C000070470000180000200248816802781144F3
:100C10008160704718000020074810B5016841F056
:100C200010010160032000F075F8002000F006F8C4
:100C300000F024F8002010BD0020024070B50D4DDA
:100C400004464FF47A712878B1FBF0F00A4909683C
:100C5000B1FBF0F000F0ECFA48B9102C07D20022FA
:100C60002146501E00F036F800206C6070BD012057
:100C700070BD000018000020240000200C4808B5BA
:100C8000816941F001018161816901F001010091F7
:100C9000C16941F08051C161C06900F0805000908D
:100CA0000448416821F0E06141F00071416008BDF5
:100CB0000010024000000140002809DB00F01F0284
:100CC000012191404009800000F1E020C0F80011AE
:100CD00070470000F0B40E4B1B680C46C3F30223B0
:100CE000C3F10705042D00D90425191D072901D2D8
:100CF000002300E0DB1E012606FA05F1491E214013
:100D000099409E40761E16403143F0BC00F0B0BEC4
:100D10000CED00E0064900F0070208684FF6FF03FB
:100D2000184040EA0220034A104308607047000060
:100D30000CED00E00000FA052DE9F0470F46050034
:100D400061D0434E306800F00700B84209D23068E5
:100D500020F0070038433060306800F00700B842E8
:100D600051D128683B4C810712D5400703D56068F4
:100D700040F4E06060602878000703D5606840F4C4
:100D8000605060606068A96820F0F000084360600F
:100D90002878C00728D06868012810D02168022868
:100DA00010D0890700292EDA616821F00301014380
:100DB0006160FFF723FF804641F288390DE021682A
:100DC0008903EFE78901EDE7FFF718FFA0EB0801C2
:100DD000494502D90320BDE8F0876068696800F0E2
:100DE0000C00B0EB810FEFD1306800F00700B84283
:100DF0000BD9306820F0070038433060306800F0CD
:100E00000700B84201D00120E5E72878400705D562
:100E10006068E96820F4E0600843606028780007B3
:100E200006D56068296920F4605040EAC10060601E
:100E300000F038F86168084AC1F30311515CC840FA
:100E40000649086006480068FFF7F8FE0020C2E780
:100E50000020024000100240A41D000824000020D1
:100E60001C0000200448054900684968044AC1F391
:100E70000221515CC840704724000020001002404D
:100E8000B41D00080448054900684968044AC1F3D4
:100E9000C221515CC840704724000020001002406D
:100EA000B41D000812A185B00FC98DE80F0014A071
:100EB000144A006804905168134801F00C03042B95
:100EC00010D0082B0ED1C1F38343C9031DF80300D2
:100ED0000AD5516804AAC1F34041515C0A4A504303
:100EE000B0FBF1F005B0704708494843FAE700004D
:100EF00002030405060708090A0B0C0D0E0F10105B
:100F0000010200000010024000127A0000093D00BA
:100F10002DE9F84F040070D02078C04DC00749D0AB
:100F20006868C0F38100012807D06868C0F38100B9
:100F3000022809D16868C00306D52868800339D51E
:100F400060680028E7D035E06068B0F5803F0BD0DE
:100F500010B1B0F5A02F11D0286820F4803028609F
:100F6000286820F4802002E0286840F4803028605F
:100F7000606890B1FFF742FE06460AE0286840F438
:100F800080202860F0E700BFFFF738FE801B642850
:100F900073D828688003F7D50CE0FFF72FFE0646CC
:100FA00005E000BFFFF72AFE801B6428F0D8286800
:100FB0008003F7D420789A4E80074FF001094FF054
:100FC000000839D5686810F00C0F07D06868C0F3C6
:100FD0008100022809D16868C00306D42868800708
:100FE00014D52069012808D110E02069B0B1C6F8F5
:100FF0000090FFF703FE074605E00AE1FFF7FEFD5C
:10100000C01B0228C4D828688007F7D52868616902
:1010100020F0F80040EAC10028600DE0C6F800802A
:10102000FFF7ECFD074604E0FFF7E8FDC01B0228D0
:1010300023D828688007F7D4207800072CD5794872
:10104000A169D9B1C0F80090FFF7D8FD074604E0C8
:10105000FFF7D4FDC01B02280FD8686A8007F7D5B8
:1010600071484FF4FA510068B0FBF1F0009000BFF6
:101070000098411E0091FAD20EE080E0C0F8008096
:10108000FFF7BCFD074604E0FFF7B8FDC01B0228D0
:1010900075D8686A8007F7D42078400760D5E8697A
:1010A0000027C00008D4E86940F08050E861E86992
:1010B000012700F0805000905C480168C90513D4F6
:1010C0000168834641F480710160FFF797FD824615
:1010D00006E000BFFFF792FDA0EB0A0064284ED89F
:1010E000DBF80000C005F5D5E06801280AD008B19A
:1010F000052813D0286A20F001002862286A20F011
:10110000040002E0286A40F001002862E06841F231
:10111000883B98B1FFF772FD82460BE0286A40F0E9
:1011200004002862EEE700BFFFF768FDA0EB0A01AC
:1011300059455AD8286A8007F6D50CE0FFF75EFDBE
:10114000824605E0FFF75AFDA0EB0A0159454CD84D
:10115000286A8007F6D41FB1E86920F08050E86162
:10116000E06988B36968C1F38101022944D002288B
:10117000C6F8608004D0FFF741FD044638E034E053
:10118000FFF73CFD074604E0FFF738FDC01B0228CF
:101190002BD828688001F7D4206AB0F5803F05D1AC
:1011A0006868A16820F4003008436860D4E9080149
:1011B0000843696821F4741108436860C6F86090B8
:1011C000FFF71CFD044606E025E000BFFFF716FD13
:1011D000001B022809D828688001F7D51BE000BF52
:1011E000FFF70CFD001B022802D90320BDE8F88F91
:1011F00028688001F4D40EE00128F7D06868226ADC
:1012000000F48031914204D1616A00F47010884288
:1012100001D00120EAE70020E8E7000000100240CA
:10122000000042428004424224000020007000403E
:1012300010B5401EB0F1807F01D3012010BD4FF0EA
:10124000E02460610F21601700F012FC0020A06113
:1012500007202061002010BD38B5044690F83E00FC
:1012600020281CD181B17AB194F83C00012816D015
:10127000012084F83C002063204600F073FB002826
:1012800003D1216B012901D0012038BD21680A68F2
:101290004A680092CA6842F01002CA6038BD022053
:1012A00038BD000010B50068084988420CD10849D3
:1012B000642201F1C800FFF7CFFF0548C83000687D
:1012C000416921F00401416110BD00000038014076
:1012D0006C00002070470000F8B5026804461068F2
:1012E000D168536910F00F0F4FF0000554D003F090
:1012F000010601F4907737435FD0C20705D0CA05D5
:1013000003D5226C42F001022264420705D5DA07B8
:1013100003D0226C42F002022264820705D5DA076C
:1013200003D0226C42F004022264020707D501F0C8
:101330002002324303D0226C42F008022264226C65
:10134000002A35D0800604D5880602D5204600F054
:1013500067FA20684069216CC0F3801001F0080131
:101360000143204625D000F03AFA20684169490639
:101370001BD5416921F040014161A06BA8B15849DA
:101380004163A06BFFF7FAF8002811D0A06B416B06
:1013900001B0BDE8F040084783060ED58B060CD59A
:1013A0002046BDE8F84000F03BBA2046FFF792FF28
:1013B000F8BDFFF78FFF2564F8BD266B2023012EB3
:1013C00052D1C60650D5CE064ED510685068009052
:1013D000506940062AD5A16B086840680004000CDB
:1013E000EAD0A68D8642E7D9E0858869202818D002
:1013F000D06820F48070D0602068416921F001013C
:1014000041612068416921F04001416184F83E302A
:1014100025632068C16821F01001C160A06BFFF74F
:1014200089F8A08DE18D401A81B219E0A08DE18D7F
:10143000401A81B2E08D0028BED00029BCD0D0680F
:1014400020F49070D0602068426922F0010242616D
:1014500084F83E3025632068C26822F01002C26022
:101460002046FFF71FFFF8BD05062BD50D0629D531
:1014700094F83D002128F6D1A068B0F5805F01D135
:101480002069B0B1206A411C21622168007848605F
:10149000E08C401E0004000CE084E4D12068C168A8
:1014A00021F08001C1602068C16841F04001C16045
:1014B000F8BD206A0088C0F308005060206A801CD4
:1014C0002062E5E74006F3D54806F1D5D16820460D
:1014D00021F04001D16084F83D3000F0E8F8F8BD1B
:1014E0001117000870B5040004D094F83D000025E1
:1014F00010B106E0012070BD84F83C50204600F099
:1015000023F8242084F83D002068C16821F40051AC
:10151000C160204600F0E0F92068016921F49041A3
:1015200001612068416921F02A0141612068C16898
:1015300041F40051C1602564202084F83D0084F806
:101540003E00002070BD000070B586B00025064644
:1015500000950195029503950068224988423FD184
:101560002149886940F480408861886900F480409E
:101570000490886940F00400886188691B4C00F081
:10158000040004904815009002200190032003906D
:1015900069462046FFF736FA2015CDE90005694671
:1015A00020460295FFF72EFA124C1148C4E90005B7
:1015B0008020C4E90250256140016561C4E90650FC
:1015C0002046FFF797F908B1FEF7B2FFB463002297
:1015D000114625206662FFF77DFB2520FFF76CFB97
:1015E00006B070BD00380140001002400008014004
:1015F0005800024078010020704770472DE9F843F9
:10160000044690F83D001F4616460D4620284CD152
:10161000C5B1BEB194F83C00012846D0012084F841
:101620003C004FF00008C4F84080212084F83D00C1
:10163000FFF7E4FAA6848146E684A068B0F5805FEF
:1016400003D004E00120BDE8F883206928B12E46CC
:101650005FF0000584F83C800EE00026FAE7802168
:10166000204600F0B7F9A0B9AEB116F8010B216819
:101670004860E08C401EE084E08C4B464FF0000256
:1016800000970028EBD14FF04001204600F0A2F96E
:1016900030B10320D7E735F8020BC0F30800E6E7C6
:1016A000202084F83D000020CDE70220CBE77047E2
:1016B000FEE7FEE7FEE770477047FFF7A5BA10B5F3
:1016C00090B028216846FEF768FD14210AA8FEF7AD
:1016D00064FD022000900120049010200024059059
:1016E00007946846FFF714FC08B172B6FEE70F20B6
:1016F000CDE90A040C940D9400210AA80E94FFF77A
:101700001BFB002801D072B6FEE710B010BD704779
:1017100010B5406A0021C185C184FFF7DBFD10BD13
:1017200070B5446A2068406994F83D10C0F3C01059
:101730000025212904D118B1E584204600F067F87E
:101740002068406994F83E10C0F38010222904D12B
:1017500018B1E585204600F042F8206C40F01000FA
:1017600020642046FFF7B6FD70BD10B50146406A03
:101770000968096889061BD40021C1850168CA6807
:1017800022F48072CA6001684A6922F001024A614B
:1017900001684A6922F040024A61202180F83E1027
:1017A000016B012904D10168CA6822F01002CA60E5
:1017B000016B012902D0FFF71FFF10BD818DFFF7DC
:1017C00071FD10BD10B5406A016B012902D0FFF711
:1017D00014FF10BD818D4908FFF764FD10BD01683D
:1017E000CA6822F49072CA6001684A6922F0010254
:1017F0004A61016B012904D10168CA6822F0100214
:10180000CA60202180F83E10002101637047016802
:10181000CA6822F0C002CA60202180F83D107047DB
:1018200008B590F83E10222901D0022008BD826838
:101830004FF480539A4201D1016921B1816A9A42E1
:101840001BD04AB10AE00268816A5268C2F30802FA
:101850000A80816A891C08E0026972B102685268D4
:1018600002F07F020A70816A491C8162C18D491EA3
:101870000904090CC18503D019E002685268F1E738
:101880000168CA6822F02002CA600168CA6822F4AE
:101890008072CA6001684A6922F001024A6120210F
:1018A00080F83E10016B012903D0FFF7A5FE002050
:1018B00008BD002101630168CA6822F01002CA60F5
:1018C00001680A68D20602D50A6849680091818DCC
:1018D000FFF7E8FCEBE7000010B50446006801697B
:1018E000E26821F44051114301612169A068084375
:1018F000616908432168CA6841F20C639A43024354
:10190000CA6020684169A26921F4407111434161B4
:1019100013492068884202D1FFF7B4FA01E0FFF7CB
:10192000A1FA00EBC00101EB00106168642289009C
:10193000B0FBF1F1B1FBF2F06FF01803434301EBA0
:101940008303322101EB0311B1FBF2F101F0F0024C
:1019500002EB001001F00F0108442168886010BDFF
:101960000038014038B5816282850025134604465F
:101970000564222084F83E00A26B13489062A26B9B
:101980001248D062A26B12481063A06B0A464563EE
:101990002168A06B091DFEF7EBFF20680168416814
:1019A000009184F83C50C16841F48071C1602068A6
:1019B000416941F0010141612068416941F0400104
:1019C0004161002038BD00006B170008C5170008F2
:1019D000211700082DE9F041984617460E460446A7
:1019E000069D1DE0681C1BD02DB1FFF707F9A0EB89
:1019F0000800A84214D92068C16821F4D071C160E0
:101A00002068416921F001014161202084F83D00F6
:101A100084F83E00002084F83C000320BDE8F081FB
:101A20002068006836EA000004D00020B842D9D00F
:101A30000020F3E70120F9E70148FFF74DBC000063
:101A400034010020FEE700000FB4084B10B504A9D4
:101A500002AA039800F02CF8044602A9002000F026
:101A600003F9204610BC5DF814FB0000691C000857
:101A70000907090E002804DB00F1E02080F80014BB
:101A8000704700F00F0000F1E02080F8141D70474F
:101A900002E008C8121F08C1002AFAD17047704737
:101AA000002001E001C1121F002AFBD17047000095
:101AB0002DE9FF4F8BB09A460F460546002606E0FB
:101AC00025280BD052460D9990476D1C761C28781E
:101AD0000028F5D10FB03046BDE8F08F0024A046B5
:101AE0000122604900E0044315F8013F203B02FA5F
:101AF00003F00842F7D128782E2817D115F8010FE6
:101B000044F004042A280ED06FF02F022878A0F1A8
:101B1000300109290AD808EB880102EB410100EBEA
:101B200001086D1CF2E757F8048B6D1C28786928B2
:101B30003ED006DC0028CDD063280BD0642804D129
:101B400036E0732810D075284BD052460D99904737
:101B5000761C85E017F8040B8DF8000000208DF846
:101B60000100E946012003E057F8049B4FF0FF30E5
:101B700061074FF0000401D40AE0641C44450DDA0B
:101B80008442FADB19F804100029F6D106E0641C3F
:101B90008442FCDB19F804100029F8D1264404E043
:101BA00019F8010B52460D999047641EF8D257E080
:101BB00001CF4FF00A0B002802DA40422D2102E04B
:101BC000210504D52B218DF82410012103E0E10724
:101BD00005D02021F7E70DF1200908910CE0002144
:101BE000F9E701CF4FF00A0BF9E75946FEF7F9FA8A
:101BF00001F1300209F8012D0028F6D1ADEB090002
:101C000000F1200B600701D44FF00108D84502DD38
:101C1000A8EB0B0000E000208046002406E009A8A5
:101C20005246005D0D999047641C761C08988442CA
:101C3000F5DB04E0302052460D999047761CB8F150
:101C40000001A8F10108F5DC05E019F8010B524686
:101C50000D999047761CBBF10001ABF1010BF4DC50
:101C60006D1C34E7092801000A68531C0B601070D2
:101C7000704700001FB5FEF7CFFFFFF720FD3D487E
:101C8000816941F020018161816901F020010091A9
:101C9000816941F004018161816901F004010091D1
:101CA000416941F0010141614069002200F00100F9
:101CB000009011460F20FFF70DF80F20FEF7FCFFF4
:101CC0002E4C2D480C2120604FF4E1306060002044
:101CD000A060E060C4E90401A061E0612046FFF774
:101CE00001FC08B172B6FEE724496422C8392348D2
:101CF000FFF7B2FA2068416921F004014161032134
:101D00001E48FEF7F3FAFEF7B3FA1D4C03E0012874
:101D100016D0FEF7ADFA0028F9D12188E068FEF769
:101D20006BFB00256E1E154816A1C838FEF740FA59
:101D300058B10096019602963346324603960BE060
:101D4000D4E90101FEF7C2FBE7E76D1C00950195A0
:101D500002952B462A46039508480DA16438FFF7E3
:101D600073FE06486438FEF745FB2069401C20617D
:101D7000D9E7000000100240003801403401002083
:101D8000040000206C612074616F2064696F0000A2
:101D900025642C25642C25642C25642C25642C2595
:101DA00064000000000000000000000001020304C5
:101DB0000607080900000000010203043139322E31
:101DC0003136382E312E31303000000074616E68AB
:101DD0006F383838380000006168616861000000C1
:101DE000001E00080000002028000000901A0008D3
:101DF000281E00082800002098050000A01A0008EE
:101E00000001000050000000D81D0008CC1D000893
:101E1000BC1D0008000000000100000010000000D0
:081E2000000000000024F400A2
:0400000508000131BD
:00000001FF
