:020000040800F2
:10000000880700204901000817340008212900084A
:10001000153400082F0B0008F93C00080000000010
:100020000000000000000000000000002938000867
:100030005F0C000800000000313500084539000859
:100040006301000863010008630100086301000800
:1000500063010008630100086301000863010008F0
:1000600063010008630100086301000863010008E0
:10007000630100086301000863010008290C0008FF
:1000800063010008630100086301000863010008C0
:1000900063010008630100086301000863010008B0
:1000A00063010008630100086301000863010008A0
:1000B0006301000863010008630100086301000890
:1000C0006301000863010008630100086301000880
:1000D00063010008ED3C00086301000863010008AB
:1000E0006301000863010008630100086301000860
:1000F0006301000863010008630100086301000850
:10010000630100086301000863010008630100083F
:10011000630100086301000863010008630100082F
:10012000630100086301000863010008630100081F
:10013000DFF810D000F0DCFC004800474D54000808
:10014000AFF3008088070020064880470648004734
:10015000FEE7FEE7FEE7FEE7FEE7FEE7FEE7FEE777
:10016000FEE7FEE79939000831010008202A04DB88
:10017000203A21FA02F00021704721FA02F3D04020
:10018000C2F12002914008431946704740EA01033A
:100190009B0703D009E008C9121F08C0042AFAD23D
:1001A00003E011F8013B00F8013B521EF9D2704701
:1001B000D2B201E000F8012B491EFBD270470022A9
:1001C000F6E710B513460A4604461946FFF7F0FF56
:1001D000204610BD30B505462A460B4612F8010BE5
:1001E00013F8014B08B1A042F8D01CB1002802D08E
:1001F0006D1CF1E7284630BD421C10F8011B002998
:10020000FBD1801A7047F0B480EA0102D40F42009B
:10021000B2EB410F02D20246084611464A0042D0D4
:10022000C30DDDB2C1F3C752AD1A202D35DAC1F3CB
:10023000160141F4000204B15242C5F1200602FA4F
:1002400006F12A411044B3EBD05F23D0C4B1012D95
:10025000A0EBC35009DCF0BC4FF0004202EAC352ED
:10026000DBB200F5000000F01FBB400000F1807021
:1002700000EBC350A0F1807040EAD170490009E062
:10028000490841EAC071A0EBC35000F500004008E6
:1002900000EBC350F0BC00F0FEBA6142012202EB59
:1002A0004101001BF6E7F0BC704781F00041AAE76E
:1002B00080F00040A7E780EA010210B502F0004399
:1002C000400022D04A001FD0010E01EB1261C0F3A2
:1002D0005600C2F3560240F4000042F40002A0FBB4
:1002E000022000047F39140400D0401C50EA124060
:1002F00001D44000491EC2B20C0604EBD010401CD1
:100300004008802A02D003E0002010BD20F0010048
:10031000002900DA0020184310BD30B480EA010241
:1003200002F0004530F0004221F0004013D090B1BF
:10033000C30DD40DC2F31601C0F31600E41A41F444
:10034000000140F400027D34914201D3641C00E0BE
:100350004900002C02DA30BC002070474FF4000046
:100360000023914201D3891A034340084FEA410117
:10037000F7D151B1914202D14FF0004105E002D2D4
:100380004FF0010101E06FF0010103EBC45028447C
:1003900030BC00F080BA420005D0C0F3C7525242D0
:1003A000914201DC0020704700EBC15070472DE9FD
:1003B000FE4F804681EA0300C00F0C46009021F0FA
:1003C000004123F00045B8EB0200A94105D24046A8
:1003D000214690461C460B46024623F0004010433F
:1003E00047D0270DC7F30A00C3F30A510290401A01
:1003F000019040286BDAC3F3130040F4801B00988F
:10040000924620B10023D2EB030A63EB0B0B019859
:100410005946C0F14002504600F01CFA06460D460F
:1004200050465946019A00F024FA10EB0800614149
:10043000002487EA115284EAE7731A4340D0009AF5
:1004400062B3019A012A4FEA075215DC001B61EBE7
:1004500002014FF0004202EA0752CDE90042001CBF
:1004600041F5801132462B4600F05BFA03B0BDE83F
:10047000F08F40462146F9E7001B61EB0201001CAA
:1004800041F5801300185B412018A2F5001747EBD7
:10049000030140EAD570B6196D4111E06D084FEACD
:1004A000360645EAC0754FEA0752001B61EB0201B0
:1004B000001C41F5801149084FEA300000195141F4
:1004C00032462B4603B0BDE8F04F00F01BBA00984F
:1004D000012240000023D0EB020263EBE07300989E
:1004E00021464FEAE074B8EB000061EB0401E9E754
:1004F00083F000435BE781F0004158E72DE9FE4FB0
:1005000081EA030404F0004421F0004100944FF01C
:10051000000B23F0004350EA01045ED052EA0304CA
:100520005BD0C3F30A54C1F30A552C44A4F2F3344C
:100530000194A0FB0254C1F3130141F48011C3F3F1
:10054000130343F4801301FB024400FB034E840AAF
:10055000970A44EA815447EA8357A4FB0768029547
:100560008D0A05FB07854FEA932C04FB0C542705E5
:10057000029D4FEA065847EA1637B5EB08056EEBC1
:10058000070C870E920E47EA811742EA8312A7FBF7
:100590000201B6EB0B0164EB00042B0D43EA0C33B4
:1005A0005E1844EB1C50DA465146E7FB0201C5F3E6
:1005B00013044FEA0B3343EA14534FEA0432019C0D
:1005C00043EA0603A4F10C040294009CCDE900B4B4
:1005D00000F0A7F903B0BDE8F08F00200146F9E76D
:1005E0002DE9F04D81EA030404F0004B21F00045B1
:1005F00014464FF0000A23F0004150EA050220D0D3
:1006000054EA01021DD0C5F30A570246C5F313038D
:10061000C1F31300C1F30A5640F4801543F480136C
:10062000A7EB0608101BD64608F2FD3873EB050051
:1006300002D308F1010801E092185B41B8F1000F04
:1006400003DA00200146BDE8F08D00204FF4801150
:10065000064684460EE0171B73EB050705D3121BF5
:1006600063EB050306434CEA010C49084FEA3000EE
:1006700092185B4150EA0107EDD152EA030012D013
:1006800082EA040083EA0501084305D0101BAB4150
:1006900006D20122002306E000224FF0004302E0D0
:1006A0006FF0010253101AEB06004CEB085110EBEF
:1006B0000A0041EB0B01BDE8F04D00F023B970B525
:1006C00021F0004303430CD0C1F30A550024D5EBBD
:1006D000040564EB0403D617AD1AB34102DB002016
:1006E000014670BD201841EB025170BDC10F80EA78
:1006F000E0700844CA079623002100F0D5B896237D
:100700000022114600F0D0B80EB5C10F80EAE070AB
:100710000844CA07002140F233438DE80E000A4620
:100720000B4600F0FEF803B000BD70B5C1F30A52ED
:1007300001F000450024C1F3130140F2FF3341F4FE
:1007400080119A4201DA002070BD40F233439A4290
:10075000A2F2334203DC5242FFF708FD00E0904072
:100760002C43F1D0404270BD00F0004230F0004018
:100770000AD0C10D01F56071C0F3160042EA0151C3
:10078000C20840071143704700200146704701F03E
:10079000004330B421F0004150EA010206D00A0DB6
:1007A000A2F56072C1F31301002A02DC30BC002004
:1007B0007047440F44EAC104C100E01830BC00EBAC
:1007C000C25000F068B830B50B4601460020202228
:1007D000012409E021FA02F59D4205D303FA02F54E
:1007E000491B04FA02F52844151EA2F10102F1DCAE
:1007F00030BD2DE9F05F0546002092469B468846B5
:100800000646814640241BE028464146474622468C
:10081000FFF7ACFC53465A46C01A914110D311461B
:100820001846224600F016F82D1A67EB01084F46CD
:1008300022460120002100F00DF817EB00094E417F
:10084000201EA4F10104DFDC484631462A46434617
:10085000BDE8F09F202A04DB203A00FA02F10020D4
:1008600070479140C2F1200320FA03F319439040EE
:100870007047202A06DBCB17203A41FA02F043EA00
:10088000E07306E041FA02F3D040C2F12002914049
:100890000843194670470029A8BF7047401C49000B
:1008A00008BF20F00100704710B4B0FA80FC00FAD5
:1008B0000CF050EA010404BF10BC704749B1CCF100
:1008C000200421FA04F411FA0CF118BF012121438C
:1008D0000843A3EB0C01CB1D4FEA00614FEA102047
:1008E00042BF002010BC704700EBC35010440029E9
:1008F000A4BF10BC7047401C490008BF20F0010095
:1009000010BC704710B5141E73F1000408DA401CC7
:1009100041F1000192185B411A4301D120F001001E
:1009200010BD2DE9F04D92469B4611B1B1FA81F20E
:1009300002E0B0FA80F220329046FFF78BFF0446C7
:100940000F4640EA0A0041EA0B0153465A46084363
:1009500013D0114653EA010019D0C8F140025046A5
:10096000FFF704FC05460E46504659464246FFF73F
:1009700071FF084305D0012004E020463946BDE858
:10098000F08D0020054346EAE0762C4337430A9871
:100990006305E40AA0EB08000022FD0A44EA47547C
:1009A0000A3002D500200146E9E701051019694126
:1009B000DDE9084500196941BDE8F04DA2E72DE9E0
:1009C000F04D00231A461B1A8A4103DB0020014622
:1009D000BDE8F08DC1F30A52C1F3130141F4801553
:1009E0004FF0000BD10702D100186D41521E0027B5
:1009F000044640F2FF11384601EB620A3E4680464B
:100A0000024600204FF48011FFF7B0FBC21971417C
:100A1000BB1846EB0100B4EB030C75EB000C04D3E0
:100A2000E41A65EB000517460E46241908F101008B
:100A30006D4180463428E3DDF91946EB0600091BB9
:100A4000A84103D24FF0FF32134601E000221346C3
:100A50001BEB070046EB0A51BDE8F04DFFF752BF14
:100A6000C1F30A52C1F3130140F2FF3341F4801184
:100A70009A4202DA00200146704740F233439A421C
:100A8000A2F2334202DC5242FFF770BBFFF7E2BE34
:100A900030B5041E71F1000404DB4FF00044404205
:100AA00064EB0101141E73F1000405DB1C464FF0DA
:100AB0000043524263EB04038B4208BF824230BDC5
:100AC00030B5041E71F1000404DB4FF000444042D5
:100AD00064EB0101141E73F1000405DB1C464FF0AA
:100AE0000043524263EB0403994208BF904230BD79
:100AF000064C074D06E0E06840F0010394E807006B
:100B000098471034AC42F6D3FFF716FB2460000878
:100B1000446000080EB540F2334102910021CDE956
:100B200000110A460B46FFF7FCFE03B000BDFEE7CE
:100B30002DE9F04300208FB0394E06900A900790BF
:100B4000089009900B900090DFF8D88001900290F7
:100B50000390049005900546044608F1060944F602
:100B60002067306002F024FE20BBB8F90020009915
:100B70006D1C11440091B8F902200199ADB21144E5
:100B80000191B8F9040002990844A0F58040029050
:100B9000B9F90020039911440391B9F9022004998D
:100BA00011440491B9F9040005990844059030688E
:100BB000401C3060641CBC42D4DB43F69820854264
:100BC00003D201200FB0BDE8F083002406AE09AFC8
:100BD000E8460DF10C092846FFF791FD4FEA0005A4
:100BE00058F82400FFF782FD80F000402946FFF707
:100BF00094FB46F8240059F82400FFF777FD80F0B5
:100C000000402946FFF789FB47F82400641C032CA9
:100C1000E6DB09A906A802F033FE0020D2E70000B7
:100C20005400002080000020014800F011BB0000AB
:100C30005C02002030B590F840500124AC40C56BF8
:100C40006C60046863604368102B036803D099608C
:100C50000068C26030BD9A600068C16030BD7047F6
:100C600070B512A000F0B8F84FF47A75284600F07D
:100C700089FC134C10A1A068FFF7ACFA08B1002062
:100C800070BD10A1A068FFF7A5FA60B107A000F041
:100C9000A3F8284600F076FC0AA1A068FFF79AFAAC
:100CA00008B1012070BD022070BD000041542B43EB
:100CB000574A41503F0000002B43574A41503A00E9
:100CC000000000204E6F20415000000010B50C4C79
:100CD0008EB0207868B134216846FFF770FAA278A8
:100CE00008A1684603F00AF8684600F075F80EB0EF
:100CF00010BD0EB007A0BDE8104000F06DB80000B8
:100D00000000002041542B434950434C4F53453D74
:100D10002564000041542B434950434C4F53450038
:100D200038B50BA0002400680090642303226946B4
:100D3000084801F09BFD322000F024FCFFF7C6FFBD
:100D4000322000F01FFC641C032CEEDB38BD0000D9
:100D50002B2B2B00B800002010B50C4614498EB088
:100D60008A608B80014644221248FFF70FFAFFF792
:100D7000D7FF34216846FFF722FA22460EA16846C3
:100D800002F0BCFF684600F027F8322000F0FAFBC2
:100D9000012C03D0022C04D0032C06D10AA101207F
:100DA00001E009A1022000F035F80EB010BD0000EE
:100DB00000000020B800002041542B43574D4F4401
:100DC000453D2564000000003139322E3136382E81
:100DD000312E31313100000030B599B00546FFF7B2
:100DE0000BFA044664216846FFF7E9F92A4606A192
:100DF000684602F083FFA41CA2B26423694604483B
:100E000001F034FD19B030BD25730D0A000000005B
:100E1000B800002030B58DB00D4604463421684638
:100E2000FFF7CDF9012C02D0022C03D007E02A46AF
:100E300007A101E02A460AA1684602F05FFF684662
:100E4000FFF7CAFF322000F09DFB0DB030BD00005F
:100E500041542B4349505354413D222573220000F5
:100E600041542B43495041503D222573220000003C
:100E7000F0B51D4C0E46074699B0A188A068FFF753
:100E80009EF91AA0FFF7A8FF00252570322000F078
:100E900079FB19A0FFF7A0FF322000F073FB64215B
:100EA0006846FFF78CF933463A4617A1684602F0C8
:100EB00025FF6846FFF790FF322000F063FB19A181
:100EC000A068FFF787F90028F3D018A0FFF784FF88
:100ED000322000F057FB18A1A068FFF77BF900282B
:100EE000F3D0657019B0F0BD0000002041542B43D1
:100EF00049504D55583D300041542B4349504D4FBA
:100F000044453D310000000041542B4349505354A7
:100F10004152543D22544350222C222573222C2529
:100F200064000000434F4E4E4543540041542B4350
:100F3000495053454E4400003E00000010B50446A1
:100F4000FFF75AF9214682B2BDE8104064230148F8
:100F500001F08CBCB800002030B599B00C460546B5
:100F600064216846FFF72BF923462A460AA1684602
:100F700002F0C4FE0D4D4FF4FA746846FFF72CFFE3
:100F8000204600F0FFFA0AA1A868FFF723F900281D
:100F9000F3D019B030BD000041542B43574A4150A3
:100FA0003D222573222C2225732200000000002000
:100FB0005749464920434F4E4E454354454400004F
:100FC00072B6FEE706490020C8610648016941F093
:100FD00004010161016941F04001016170470000B5
:100FE0006803002000200240064A0021D161064922
:100FF0000A6942F002020A614861086940F0400053
:10100000086170476803002000200240044B002262
:10101000DA61044A136943F00103136101807047E8
:10102000680300200020024014480022C168CB065B
:10103000134904D5CA6942F00202CA611022C3688A
:101040005B0705D5CB6943F00103CB6142F0040295
:10105000C369DB0707D0CB6943F00403CB61C169E7
:1010600021F00101C161A2F58071013901D0C26096
:101070007047C16921F00101C16170470020024041
:101080006803002070B5054600F03CFC0646114C94
:1010900009E0681C07D025B100F034FC801BA84291
:1010A00001D9032070BDE068C007F2D1E068800676
:1010B00001D52020E060E068C00605D4E069C007E3
:1010C00002D1E068400703D5FFF7AEFF012070BDF5
:1010D000002070BD0020024010B590F821100022C1
:1010E000022905D00421816380F82020012010BD51
:1010F00001680B6823F00E030B6001680B6823F096
:1011000001030B6090F84030C46B012101FA03F336
:10111000636080F8211080F82020104610BD000088
:101120002DE9F05F90F821100024022903D004215A
:101130008163012485E001680A6822F00E020A60DA
:1011400001680A6822F001020A603F4E3E4FB21564
:10115000DFF8F4C0DFF8F090DFF8ECA0DFF8E8B0DB
:10116000DFF8E4E00168783F13011502ACF1640C8C
:10117000A9F15009AAF13C0AABF1280BAEF1140E0B
:101180004FF48018B14227D9B9420ED0614512D030
:1011900049451DD0514518D0594518D0714501D148
:1011A000424615E0294EB14201D1012210E0274EFE
:1011B0001436B14201D110220AE0244E2836B14241
:1011C00006D0224A3C32914201D11A4600E02A461A
:1011D0001E49091F0A602BE0B94213D0614517D0A0
:1011E000494522D051451DD059451DD0714501D1E9
:1011F00042461AE0B14202D14FF0807215E0134E20
:10120000B14201D1012210E0104E1436B14201D199
:1012100010220AE00D4E2836B14206D00B4A3C326D
:10122000914201D11A4600E02A46074980394A60B6
:10123000012180F82110002180F82010416B01B1BC
:1012400088472046BDE8F09F800002400804024025
:101250002DE9F05FC16B0A6801680B68046C4FF000
:10126000040808FA04F8844D844E854FDFF814C250
:10127000DFF81492DFF814A2DFF814B2DFF814E2FA
:1012800018EA020F65D05FEA437862D50A689206D1
:1012900003D40A6822F004020A60DFF8F0814FF4F8
:1012A0008062016808F1140813011402414524D931
:1012B000A9420DD0B1420FD0B9421AD0614515D024
:1012C000494515D0514501D1120312E0594501D1CC
:1012D00004220EE0714501D140220AE06D4D143523
:1012E000A94206D06B4A2832914201D11A4600E049
:1012F00022466749091F0A6029E0A94213D0B1427A
:1013000015D0B94220D061451BD049451BD051456D
:1013100002D14FF4800217E0414502D14FF08062C4
:1013200012E0594501D104220EE0714501D140225D
:101330000AE0584D1435A94206D0564A2832914247
:1013400001D11A4600E022464B4908394A60C16A79
:1013500071E04FF0020808FA04F818EA020F70D0A2
:101360005FEA83786DD50A68920606D40A6822F08F
:101370000A020A60012180F82110DFF810814FF481
:101380000072016808F1140813011402414524D9C0
:10139000A9420DD0B1420FD0B9421AD0614515D043
:1013A000494515D0514501D1120312E0594501D1EB
:1013B00002220EE0714501D120220AE0354D14359C
:1013C000A94206D0334A2832914201D11A4600E0A0
:1013D00022462F49091F0A6029E0A94213D0B142D1
:1013E00015D0B94220D061451BD049451BD051458D
:1013F00002D14FF4001217E0414502D14FF00072C4
:1014000012E0594501D102220EE0714501D120229E
:101410000AE0204D1435A94206D01E4A28329142D6
:1014200001D11A4600E02246134908394A600021DA
:1014300080F82010816A00291CD0BDE8F05F0847C1
:10144000FFE70825A540154214D01A0712D50A68EF
:1014500022F00E020A6090F84020C36B012101FACD
:1014600002F25A60816380F82110002180F8201078
:10147000016BE0E7BDE8F09F080002401C0002405D
:101480003000024044000240580002406C0002401C
:10149000080402401C04024030B560B11A4B0268D7
:1014A00014219A4209D2194B1344B3FBF1F189007C
:1014B000016417490AE0012030BD134B5B4213441D
:1014C000B3FBF1F1890001640F490839C1630221BE
:1014D00080F82110136843F6F0718B43F0E9011492
:1014E0002143D0E902452C43214304692143446947
:1014F0002143846921431943116000214163012282
:1015000042770177084630BD08040240F8FFFDBF6E
:101510000000024070B5044690F820000025012824
:101520000CD0012084F8200094F821600020012EC6
:1015300006D084F820000225284670BD022070BD28
:10154000022684F82160A0632068066826F0010660
:1015500006602046FFF76EFBE06A002820680168FD
:1015600002D041F00E0106E021F004010160206884
:10157000016841F00A0101602068016841F0010141
:101580000160D9E770B5044600F0BCF90546601C5F
:1015900002D004480078044400F0B4F9401BA04293
:1015A000FAD370BDA40000202DE9F0470546264877
:1015B0000F460126017E01290FD0012181460176C7
:1015C0002868DFF888804CF25034022808D0A24600
:1015D0002046FFF757FDA8B131E00220BDE8F087B3
:1015E0002046FFF74FFD08BB0120FFF7EBFC20462C
:1015F000FFF748FDD8F81010064621F00401C8F89E
:1016000010101CE04FF0FF303860AC6811E020464D
:10161000FFF7EAFC5046FFF735FDD8F8101006003A
:1016200021F00201C8F8101001D03C6007E004F579
:101630000064D5E9020100EBC120A042E7D80021F7
:1016400089F818103046C9E76803002000200240DE
:101650000348016941F080010161002070470000EA
:10166000002002402DE9F05F07461C488846002410
:10167000017E15461E46012909D0012181460176C9
:101680004CF2503A5046FFF7FDFC18B122E0022020
:10169000BDE8F09F012F02D0022F00D00427D346CF
:1016A000DFF83CA0220128463146FEF75FFD81B2FB
:1016B00008EB4400FFF7AAFC5846FFF7E3FCDAF812
:1016C000102022F00102CAF8102018B9641CE4B2FC
:1016D000BC42E7D3002289F81820D9E7680300202C
:1016E00000200240064900200A69120607D5054A73
:1016F0004A60054A4A600969090600D50120704719
:101700000020024023016745AB89EFCD2DE9F84F5A
:10171000DFF8C891002409F1040A0AF1040B2346FA
:101720000F270BF1040ED1E00125A54006EA0502C2
:10173000AA4276D1DFF8A8C14E68A6EB0C08664530
:101740002BD00DDC032E34D005DC36B3012E19D09E
:10175000022E2FD11BE0112E16D0122E2AD119E005
:10176000B8F5881F19D006DCB8F5803F15D0B8F55C
:10177000801F1FD111E0B8F5001F0ED0B8F5041F6F
:1017800018D10AE0CB6815E0CB681B1D12E0CB68CE
:1017900008330FE0CB680C330CE08B682BB1012BC6
:1017A0004FF0080303D0456104E0042302E0056123
:1017B00000E00023FF2A01D8064601E000F10406FC
:1017C0004FEA840501D9A5F12005D6F8008007FA73
:1017D00005FC28EA0C0803FA05F548EA0508C6F8EE
:1017E00000804D68ED0070D53E4DAE6946F00106B3
:1017F000AE61AD6924F0030605F0010500953A4D90
:1018000006EB050CDCF80850A607360F07FA06F8B9
:1018100025EA0805DFF8D480404503D14FF00008E1
:1018200025E052E0DFF8C880404502D14FF00108C2
:101830001DE0DFF8C080404502D14FF0020816E0FD
:10184000DFF8B480404502D14FF003080FE0DFF825
:10185000AC80404502D14FF0040808E0DFF8A080DA
:10186000404502D14FF0050801E04FF0060808FAA4
:1018700006F848EA0508CCF808804D68D9F80060F9
:10188000ED034D4601D5164300E096432E604D68AA
:10189000DAF80060AD03554601D5164300E09643E3
:1018A0002E604D68DBF80060ED025D4601D5164301
:1018B00000E096432E604D68DEF80060AD0275468C
:1018C00001D5164300E096432E60641C0A68164654
:1018D000E2407FF429AFBDE8F88F0000000401402A
:1018E00000001110001002400000014000080140FB
:1018F000000C01400010014000140140001801409C
:10190000001C01400148806870470000A4000020CE
:1019100070B5040025D094F83D00002520B984F866
:101920003C50204600F070FA242084F83D002068E6
:10193000016821F0010101602068016841F4004163
:1019400001602068016821F40041016000F0B8FBEB
:101950004D4A6168914201D84C4900E04C498842A7
:1019600001D2012070BD4B492368B0FBF1F15E68E4
:1019700026F03F060E435E606368934206D94FF43B
:10198000967359434FF47A73B1FBF3F12368491C02
:101990001E6A26F03F06314319626168914210D8F1
:1019A0004900401EB0FBF1F2521CC2F30B02042AA4
:1019B00001D2042022E0B0FBF1F0401CC0F30B0088
:1019C0001CE0A268F2B301EBC10303EB0116431E56
:1019D000B3FBF6F35B1C43F480431B0549D092B381
:1019E00001EBC10202EB0111401EB0FBF1F0401C03
:1019F000C0F30B0040F4804040F400402168CA6905
:101A00004CF6FF739A431043C861D4E907100143B1
:101A10002068026822F0C00211430160D4E903018A
:101A200001432068826848F2FF339A431143816082
:101A3000D4E9050108432168CA6822F0FF02104377
:101A4000C86001E00EE016E02068016841F0010185
:101A500001602564202084F83D00256384F83E5011
:101A6000002070BD01EB4106431EB3FBF6F35B1C87
:101A7000B3E70120C2E701EB4101401EB0FBF1F0EA
:101A8000401CC0F30B00B7E7A086010080841E0055
:101A900000093D0040420F002DE9F84F0025DDF818
:101AA0002890984617468A4604460095FFF72AFF75
:101AB000064694F83D0020287AD119230122834953
:101AC0002046009601F04EF80028F5D194F83C002D
:101AD00001286DD0012084F83C0020680168C90706
:101AE00003D1016841F0010101602068016821F41F
:101AF00000610160222084F83D00102084F83E003F
:101B000025646762A4F82A80608D20857048E062B1
:101B100033464A465146204600F01AFF00287DD140
:101B2000208DDFF8B081202768B1012814D0022869
:101B3000206801681ED041F480610160206841691D
:101B400080690090B5E02068416981690091016871
:101B500041F400710160ACE02068016821F480610B
:101B6000016072B62068416981690091016841F4A1
:101B700000710AE041F40061016072B620684169B9
:101B800081690091016821F48061016062B690E092
:101B9000032868D801280CD002284B464FF00002D9
:101BA0004146204600960FD000F0DCFFB0BB10E0AD
:101BB0008AE032464946204601F053F870BB20685F
:101BC0000069616A08706BE000F0CCFF30BB72B650
:101BD00034E02068016821F48061016072B62068F9
:101BE0000069616A0870606A401C6062208D401E56
:101BF0002085608D401E6085374846F2A811006838
:101C0000B0FBF1F0C0EBC00000EB80000090401E84
:101C1000009008D020684069C04300E029E04007F8
:101C20000CD50098F3E744F8305F6773A57320691B
:101C300040F02000206162B625731AE02068016838
:101C400041F40071016020680069616A0870606A8F
:101C5000401C6062218D491E2185618D491E618570
:101C600062B621681AE032464946204600F0F9FF84
:101C700010B10120BDE8F88F20680069616A087022
:101C8000606A401C6062218D491E2185618D491E5C
:101C9000618521684A69D24352070AD409690170F3
:101CA000606A401C6062208D401E2085608D401E51
:101CB0006085208D00287FF46BAF84F83D7084F838
:101CC0003E5084F83C50D5E70220D3E702001000D4
:101CD0000000FFFF04000100B00000202DE9F84FD4
:101CE0001F4690468A460446DDF82890FFF70AFE14
:101CF000054694F83D0020287FD119230122404950
:101D00002046009500F02EFF002876D194F83C0084
:101D1000012872D0012084F83C0020680168C907BE
:101D200003D1016841F0010101602068016821F4DC
:101D300000610160212084F83D00102084F83E00FD
:101D400000262664C4F824806785608D20852D4890
:101D5000E0622B464A465146204600F06FFE90B99D
:101D6000206841698069009036E02A46494620464D
:101D700000F0AAFF50B1206C042804D1206801684B
:101D800041F4007101600120BDE8F88F606A2168AC
:101D900000780861606A401C6062618D491E61853F
:101DA000218D491E89B2218522685369DB435B0777
:101DB0000BD451B100781061606A401C6062608D84
:101DC000401E6085208D401E20852A4649462046BB
:101DD00000F0A2FE0028CED1208D0028C5D154F8F5
:101DE0003D0B016841F400710160202004F81E09D8
:101DF000E67766770020C7E7FFE70220C4E7000028
:101E0000020010000000FFFF10B586B00021009115
:101E100001910291039100680F4988421AD10F4C39
:101E2000A06940F00800A061A069694600F00800C0
:101E30000490C020009012200190032003900848D5
:101E4000FFF764FCE06940F40010E061E06900F431
:101E50000010049006B010BD005400400010024075
:101E6000000C01400248816802781144816070478B
:101E7000A4000020074810B5016841F0100101607E
:101E8000032000F075F8002000F006F800F024F8B8
:101E9000002010BD0020024070B50D4D04464FF4E7
:101EA0007A712878B1FBF0F00A490968B1FBF0F0CB
:101EB00000F0ECFA48B9102C07D200222146501E3F
:101EC00000F036F800206C6070BD012070BD00008D
:101ED000A4000020B00000200C4808B5816941F042
:101EE00001018161816901F001010091C16941F045
:101EF0008051C161C06900F0805000900448416881
:101F000021F0E06141F00071416008BD0010024025
:101F100000000140002809DB00F01F020121914070
:101F20004009800000F1E020C0F800117047000077
:101F3000F0B40E4B1B680C46C3F30223C3F1070534
:101F4000042D00D90425191D072901D2002300E022
:101F5000DB1E012606FA05F1491E214099409E40EC
:101F6000761E16403143F0BC01F0F0BE0CED00E0EF
:101F7000064900F0070208684FF6FF03184040EAE0
:101F80000220034A10430860704700000CED00E097
:101F90000000FA052DE9F0470F46050061D0434ED9
:101FA000306800F00700B84209D2306820F007001E
:101FB00038433060306800F00700B84251D12868DB
:101FC0003B4C810712D5400703D5606840F4E060C0
:101FD00060602878000703D5606840F46050606056
:101FE0006068A96820F0F000084360602878C007A6
:101FF00028D06868012810D02168022810D08907ED
:1020000000292EDA616821F0030101436160FFF7C6
:1020100079FC804641F288390DE021688903EFE7B9
:102020008901EDE7FFF76EFCA0EB0801494502D9F5
:102030000320BDE8F0876068696800F00C00B0EB31
:10204000810FEFD1306800F00700B8420BD930683B
:1020500020F0070038433060306800F00700B842D5
:1020600001D00120E5E72878400705D56068E968D8
:1020700020F4E060084360602878000706D56068B7
:10208000296920F4605040EAC100606000F038F82F
:102090006168084AC1F30311515CC84006490860F1
:1020A00006480068FFF7F8FE0020C2E70020024063
:1020B00000100240D85D0008B0000020A8000020F9
:1020C0000448054900684968044AC1F30221515C8B
:1020D000C8407047B000002000100240E85D0008D2
:1020E0000448054900684968044AC1F3C221515CAB
:1020F000C8407047B000002000100240E85D0008B2
:1021000012A185B00FC98DE80F0014A0144A006811
:1021100004905168134801F00C03042B10D0082BD5
:102120000ED1C1F38343C9031DF803000AD55168DA
:1021300004AAC1F34041515C0A4A5043B0FBF1F09C
:1021400005B0704708494843FAE700000203040558
:10215000060708090A0B0C0D0E0F101001020000F3
:102160000010024000127A0000093D002DE9F84FEE
:10217000040070D02078C04DC00749D06868C0F313
:102180008100012807D06868C0F38100022809D1C6
:102190006868C00306D52868800339D560680028C0
:1021A000E7D035E06068B0F5803F0BD010B1B0F5F6
:1021B000A02F11D0286820F480302860286820F4EF
:1021C000802002E0286840F480302860606890B188
:1021D000FFF798FB06460AE0286840F48020286054
:1021E000F0E700BFFFF78EFB801B642873D82868D8
:1021F0008003F7D50CE0FFF785FB064605E000BF3E
:10220000FFF780FB801B6428F0D828688003F7D490
:1022100020789A4E80074FF001094FF0000839D519
:10222000686810F00C0F07D06868C0F381000228BE
:1022300009D16868C00306D42868800714D52069CE
:10224000012808D110E02069B0B1C6F80090FFF76E
:1022500059FB074605E00AE1FFF754FBC01B0228C3
:10226000C4D828688007F7D52868616920F0F8008D
:1022700040EAC10028600DE0C6F80080FFF742FB8D
:10228000074604E0FFF73EFBC01B022823D828685E
:102290008007F7D4207800072CD57948A169D9B1F7
:1022A000C0F80090FFF72EFB074604E0FFF72AFB7B
:1022B000C01B02280FD8686A8007F7D571484FF411
:1022C000FA510068B0FBF1F0009000BF0098411E89
:1022D0000091FAD20EE080E0C0F80080FFF712FB18
:1022E000074604E0FFF70EFBC01B022875D8686A9A
:1022F0008007F7D42078400760D5E8690027C00040
:1023000008D4E86940F08050E861E869012700F0EE
:10231000805000905C480168C90513D40168834669
:1023200041F480710160FFF7EDFA824606E000BFDC
:10233000FFF7E8FAA0EB0A0064284ED8DBF80000AB
:10234000C005F5D5E06801280AD008B1052813D0EA
:10235000286A20F001002862286A20F0040002E0C8
:10236000286A40F001002862E06841F2883B98B199
:10237000FFF7C8FA82460BE0286A40F004002862A2
:10238000EEE700BFFFF7BEFAA0EB0A0159455AD8A5
:10239000286A8007F6D50CE0FFF7B4FA824605E01C
:1023A000FFF7B0FAA0EB0A0159454CD8286A80071C
:1023B000F6D41FB1E86920F08050E861E06988B385
:1023C0006968C1F38101022944D00228C6F86080FF
:1023D00004D0FFF797FA044638E034E0FFF792FAAA
:1023E000074604E0FFF78EFAC01B02282BD82868A6
:1023F0008001F7D4206AB0F5803F05D16868A168F4
:1024000020F4003008436860D4E908010843696893
:1024100021F4741108436860C6F86090FFF772FAFF
:10242000044606E025E000BFFFF76CFA001B022817
:1024300009D828688001F7D51BE000BFFFF762FAD2
:10244000001B022802D90320BDE8F88F286880010C
:10245000F4D40EE00128F7D06868226A00F48031D5
:10246000914204D1616A00F47010884201D00120C9
:10247000EAE70020E8E700000010024000004242C6
:1024800080044242B00000200070004010B5401EA1
:10249000B0F1807F01D3012010BD4FF0E0246061D6
:1024A0000F21601701F052FC0020A061072020617D
:1024B000002010BD38B5044690F83E0020281CD1FD
:1024C00081B17AB194F83C00012816D0012084F83B
:1024D0003C002063204601F09FFB002803D1216BC4
:1024E000012901D0012038BD21680A684A6800929C
:1024F000CA6842F01002CA6038BD022038BD000030
:1025000010B500680B49884212D10B49642201F5CD
:102510008E70FFF7CFFF09480068416921F0040180
:102520004161054906480A68C264097980F850107B
:1025300010BD000000380140FC00002018020020FF
:102540000C00002070470000F8B5026804461068CF
:10255000D168536910F00F0F4FF0000553D003F00E
:10256000010601F4907737435FD0C20705D0CA0552
:1025700003D5226C42F001022264420705D5DA0736
:1025800003D0226C42F002022264820705D5DA07EA
:1025900003D0226C42F004022264020707D501F046
:1025A0002002324303D0226C42F008022264226CE3
:1025B000002A34D0800604D5880602D5204601F0D2
:1025C00074FA20684069216CC0F38010090700D4B8
:1025D00030B3204601F048FA2068416949061BD50E
:1025E000416921F040014161A06BA8B158494163A4
:1025F000A06BFEF795FD002811D0A06B416B01B0D8
:10260000BDE8F040084783060FD58B060DD5204660
:10261000BDE8F84001F049BA2046FFF793FFF8BD46
:102620002046FFF78FFF2564F8BD266B2023012E7F
:1026300052D1C60650D5CE064ED5106850680090CF
:10264000506940062AD5A16B086840680004000C58
:10265000EAD0A68D8642E7D9E0858869202818D07F
:10266000D06820F48070D0602068416921F00101B9
:1026700041612068416921F04001416184F83E30A8
:1026800025632068C16821F01001C160A06BFEF7CE
:1026900023FDA08DE18D401A81B219E0A08DE18D5E
:1026A000401A81B2E08D0028BED00029BCD0D0688D
:1026B00020F49070D0602068426922F001024261EB
:1026C00084F83E3025632068C26822F01002C260A0
:1026D0002046FFF715FFF8BD05062BD50D0629D5B9
:1026E00094F83D002128F6D1A068B0F5805F01D1B3
:1026F0002069B0B1206A411C2162216800784860DD
:10270000E08C401E0004000CE084E4D12068C16825
:1027100021F08001C1602068C16841F04001C160C2
:10272000F8BD206A0088C0F308005060206A801C51
:102730002062E5E74006F3D54806F1D5D16820468A
:1027400021F04001D16084F83D3000F0E8F8F8BD98
:102750009B39000870B5040004D094F83D000025B2
:1027600010B106E0012070BD84F83C50204600F016
:1027700023F8242084F83D002068C16821F400512A
:10278000C160204601F0ECF92068016921F4904114
:1027900001612068416921F02A0141612068C16816
:1027A00041F40051C1602564202084F83D0084F884
:1027B0003E00002070BD000070B586B000250646C2
:1027C00000950195029503950068224988423FD102
:1027D0002149886940F480408861886900F480401C
:1027E0000490886940F00400886188691B4C00F0FF
:1027F00004000490481500900220019003200390EB
:1028000069462046FEF782FF2015CDE9000569469E
:1028100020460295FEF77AFF124C1148C4E90005E4
:102820008020C4E90250256140016561C4E9065079
:102830002046FEF731FE08B1FEF7C2FBB46300226A
:10284000114625206662FFF773FB2520FFF762FB28
:1028500006B070BD00380140001002400008014081
:10286000580002405C020020704770472DE9F84391
:10287000044690F83D001F4616460D4620284CD1D0
:10288000C5B1BEB194F83C00012846D0012084F8BF
:102890003C004FF00008C4F84080212084F83D003F
:1028A000FFF730F8A6848146E684A068B0F5805F23
:1028B00003D004E00120BDE8F883206928B12E464A
:1028C0005FF0000584F83C800EE00026FAE78021E6
:1028D000204601F0D9F9A0B9AEB116F8010B216874
:1028E0004860E08C401EE084E08C4B464FF00002D4
:1028F00000970028EBD14FF04001204601F0C4F9C9
:1029000030B10320D7E735F8020BC0F30800E6E743
:10291000202084F83D000020CDE70220CBE770475F
:10292000FEE701684A69D24352050FD46FF4806212
:102930004A61002140F8301F2022427381730269EE
:1029400042F00402026101730120704700207047C9
:102950002DE9F84F0446C06A1E4693460D4621688D
:102960000A6842F480620A60082807D0012805D06E
:1029700010F5803F02D0206B112804D12068016837
:1029800041F4807101604FF001195B460022494615
:102990002046009600F0E6F84FF4007840B1206839
:1029A0000068C00501D5C4F840800320BDE8F88F59
:1029B0002069DFF884A0B0F5804F0FD00620216891
:1029C00000EAD51747F0F000086133465A460AF18D
:1029D0000601204600F0FAF858BB03E0E8B240F0E8
:1029E00001001CE02168E8B2086133465A465146AE
:1029F000204600F0EBF8E0B9206841698169009158
:102A0000016841F4807101605B460022494620461E
:102A1000009600F0A7F80028C1D147F0F100216826
:102A2000086133465A465146204600F0CFF8002848
:102A3000BCD00120BAE7000002000100F8B504464E
:102A4000C06A1E460D461746082807D0012805D043
:102A500010F5803F02D0206B122804D12068016855
:102A600041F480710160134600224FF001112046AD
:102A7000009600F077F840B120680068C00502D5E4
:102A80004FF4007020640320F8BD2069B0F5804F3A
:102A90000ED00620216800EAD51040F0F000086151
:102AA00033463A460B49204600F090F878B902E0E8
:102AB00005F0FE0000E0E8B22168086105493346F0
:102AC0003A46891F204600F081F80028DCD001201A
:102AD000F8BD0000080001002DE9FC410F4600216F
:102AE00001911646D0258DF804000524012301AA82
:102AF000294608480094FFF7F1F840B933463A46B2
:102B0000294604480094FEF7C7FF002800D00120A2
:102B1000BDE8FC81E402002070B516460D4604466F
:102B20000DE02046FFF7FDFE08B1012070BD681CD6
:102B300005D0FEF7E7FE801BA84207D835B1206814
:102B40004069C0434007ECD4002070BD002044F829
:102B5000300F20216173A073216941F020012161B0
:102B60002073E2E72DE9F0471E4690460D460446E5
:102B7000C1F30747DDF8209008E0701C06D0FEF78F
:102B8000C1FEA0EB0900B0420FD876B12068012F3A
:102B900018D0806925EA00000004000C14D0002140
:102BA0004145EAD00020BDE8F087002044F8300F0E
:102BB00020216173A073216941F0200121612073FC
:102BC0000120F0E74069E5E70121E9E72DE9F04759
:102BD0009A4691460E46044600254FF02008C1F360
:102BE000074725E020684069C043400514D42068A9
:102BF000016841F40071016021686FF480604861F0
:102C0000256384F83D8084F83E50206C40F0040039
:102C1000206484F83C501FE0B9F1FF3F08D0FEF774
:102C200071FEA0EB0A0149450CD8B9F1000F09D09B
:102C30002068012F13D0806926EA00000004000CF0
:102C40000BD0CFE744F8305F84F80D80A57320697E
:102C500040F02000206125730120BDE8F087406925
:102C6000EAE72DE9F041002590460E46044620276C
:102C700017E04069C043C0060CD454F8301B6FF015
:102C80001000486144F810596777A577206A2062E0
:102C9000257717E0FEF736FEA0EB0800B04208D813
:102CA0003EB120684169C9434906E2D40020BDE82D
:102CB000F08144F8305F6773A573206940F020000D
:102CC000206125730120F2E770B516460D460446D3
:102CD0000DE02046FFF725FE08B1012070BD681CFD
:102CE00005D0FEF70FFE801BA84207D835B120683B
:102CF0004069C0430006ECD4002070BD002044F8B9
:102D0000300F20216173A073216941F020012161FE
:102D10002073E2E71CB5002201928DF80400052023
:102D20008DF805100090D021022301AA0348FEF778
:102D3000D5FF002800D001201CBD0000E4020020C7
:102D40002DE9F05FDFF87080DFF870908346002493
:102D50004FF07E5A58F82400FDF706FD184A194B2B
:102D6000FDF725FBFDF713FD06465146FDF74BFA2F
:102D700001463046FDF7D1FA59F8247005465BF854
:102D800024003946FDF791FA2946FDF794FA3946B1
:102D9000FDF739FA49F8240029465046FDF785FA2F
:102DA0003146FDF788FA48F82400641C062CD1DB74
:102DB0000248BDE8F09F00008C0000205003002076
:102DC000A4703D0AD7A3C03F10B582F00042029C18
:102DD00083F0004384F0004480E81E0010BD000032
:102DE00070B580216B20FFF795FF6420FEF7CAFBCA
:102DF000274C20680178007901F00702402101EAA0
:102E0000801111436B20FFF785FF6420FEF7BAFBAA
:102E10002068C07800F007011A20FFF77BFF2068C8
:102E20001825407805EAC0011B20FFF773FF2068D2
:102E3000807805EAC0011C20FFF76CFF042000F039
:102E40003FF82068817831B1012907D0022913D0D9
:102E5000032906D113E04FF0625101E04FF06451B5
:102E60006160407870B101280ED002280ED003288E
:102E700001D10848A06070BD4FF06651F0E74FF0F7
:102E80006851EDE70448F5E70448F3E70448F1E743
:102E90007400002050A08B3A50A00B3950A08B3901
:102EA00050A00B3A10B50C46014654220248FDF7DB
:102EB0006DF90248046010BDE40200207400002097
:102EC00001461920FFF726BF2DE9F04FFE4899B0C3
:102ED0004FF0FF3401680B914168099181680891B6
:102EE000C068079021460B98FDF755FA10902146CF
:102EF0000998FDF750FA119021460898FDF74BFA12
:102F00000F9021460798FDF746FA0E9001210B9885
:102F1000FDF741FA069001210998FDF73CFA05906A
:102F200001210898FDF737FA049001210798FDF771
:102F300032FAE64F0D9039680846FDF7BCF9E44DCA
:102F4000804629680846FDF7B6F9E24E0446316826
:102F50000846FDF7B0F92146FDF755F94146FDF762
:102F600052F9FDF701FC02F0AFFEFDF710FC04463C
:102F700010F0FF4F7ED03068214680F00040FDF712
:102F8000CCF906462868214680F00040FDF7C5F9D7
:102F900005463868214680F00040FDF7BEF904463A
:102FA00008990698FDF787F9074607990598FDF7F0
:102FB00082F93946FDF779F93146FDF776F982460F
:102FC00007990498FDF777F9064609990698FDF7E1
:102FD00072F93146FDF717F92946FDF766F9814682
:102FE00008990498FDF767F9054609990598FDF7D2
:102FF00062F94FF07E51FDF75BF92946FDF755F96F
:103000002146FDF752F9DDE90545804601212046BC
:10301000049F0D9EFDF7BFF9039001213846FDF78F
:10302000BAF9159051463846FDF745F983464946A9
:103030002046FDF740F95946FDF737F983464146EA
:103040000398FDF738F9039049462846FDF733F910
:10305000179051463046FDF72EF91799FDF7D3F832
:103060000399FDF722F9039051462846FDF723F90D
:10307000414600E0C8E102901598FDF71CF90546AD
:1030800049463046FDF717F92946FDF70EF9029932
:10309000FDF70BF9054649463846FDF70CF906469B
:1030A00051462046FDF707F93146FDF7ACF80646D4
:1030B0000146FDF700F9804629460846FDF7FBF872
:1030C000039907460846FDF7F6F8044659460846B0
:1030D000FDF7F1F82146FDF796F83946FDF793F82C
:1030E0004146FDF790F8FDF73FFB02F0EDFDFDF7DF
:1030F0004EFB044601465846FDF70FF90A9021465B
:103100000398FDF70AF9039021462846FDF705F9D3
:10311000029021463046FDF700F9019002990D9882
:10312000FDF7C9F8064601990498FDF7C4F805466D
:103130000A990598FDF7BFF8044603990698FDF72C
:10314000BAF82146FDF7B1F82946FDF7AEF8314649
:10315000FDF759F8054603990D98FDF7ACF80746B9
:103160000A990498FDF7A7F8064601990598FDF716
:10317000A2F8044602990698FDF79DF82146FDF74E
:1031800042F83146FDF791F83946FDF78EF80746CB
:103190000A990D98FDF78FF88046DDE90310FDF7D9
:1031A0008AF8064602990598FDF785F804460199C4
:1031B0000698FDF780F82146FDF777F83146FDF7D0
:1031C00022F84146FDF771F8064643480168284653
:1031D0000091FDF770F8414C21698846FDF76BF8C6
:1031E0002168FDF710F82060054638460099FDF784
:1031F00062F84146FDF75FF86168FDF704F860602A
:10320000074630460099FDF756F84146FDF753F85A
:10321000A168FCF7F8FFDFF8C8800646A0602946E1
:10322000D8F80000FDF741F8C8F80000DFF8B480D6
:1032300005463946D8F80000FDF737F8C8F8000011
:10324000DFF8A48007463146D8F80000FDF72DF8D6
:103250000646C8F8000031460E98FDF72CF8814666
:1032600039460F98FDF727F880461198294680F0D7
:103270000040FDF720F84146FDF717F84946FDF7F5
:1032800014F8804639460E98FDF715F88246314607
:103290000F98FDF710F8814629461098FDF70BF8B6
:1032A0004946FCF7B0FF5146FCF7FFFF814629462F
:1032B0000E98FDF700F8834631461198FCF7FBFFA6
:1032C00082463946109811E0C402002044000020D4
:1032D000400000203C0000201C0000206000002076
:1032E000480000204C00002050000020FCF7E3FFC5
:1032F0005146FCF7DAFF5946FCF785FF824629461E
:103300000F98FCF7D8FF054639461198FCF7D3FF14
:10331000074631461098FCF7CEFF3946FCF773FF9D
:103320002946FCF7C2FF0646E0680A990746FCF703
:10333000C2FF4146FCF7BCFF0099FCF7BCFF0B99AC
:10334000FCF761FF044638460399FCF7B4FF494691
:10335000FCF7AEFF0099FCF7AEFF0999FCF753FFAD
:10336000054638460299FCF7A6FF5146FCF7A0FF38
:103370000099FCF7A0FF0899FCF745FF8046384606
:103380000199FCF798FF3146FCF792FF0099FCF792
:1033900092FF0799FCF737FF06460146FCF78BFFC3
:1033A000824641460846FCF786FF81462946084684
:1033B000FCF781FF074621460846FCF77CFF3946AB
:1033C000FCF721FF4946FCF71EFF5146FCF71BFFA7
:1033D000FDF7CAF902F078FCFDF7D9F90746014676
:1033E0002046FCF79AFF0A4C394620602846FCF735
:1033F00094FF606039464046FCF78FFFA060394675
:103400003046FCF78AFFE06019B0BDE8F08F00009D
:10341000C4020020FEE7FEE70FB42DE9F04F87B0AD
:103420000C4615A9DDF8509091E8800D15461E4612
:1034300059464846FCF73FFF049051463046FCF79A
:103440003AFF019041462846FCF735FF0090394687
:103450002046FCF730FF0099FCF727FF0199FCF7A5
:1034600024FF0499FCF721FF039051464846FCF7DE
:1034700022FF009059463046FCF71DFF0190394667
:103480002846FCF718FF049041462046FCF713FF3E
:103490000499FCF7B8FE0199FCF7B5FE0099FCF71A
:1034A00004FF049041464846FCF705FF0190394669
:1034B0003046FCF700FF009059462846FCF7FBFE1B
:1034C000059051462046FCF7F6FE0599FCF7EDFE07
:1034D0000099FCF798FE0199FCF795FE0590394696
:1034E0004846FCF7E8FE074641463046FCF7E3FE57
:1034F000064651462846FCF7DEFE0546594620465C
:10350000FCF7D9FE2946FCF77EFE3146FCF7CDFEDE
:103510003946FCF778FE0DF10C0C03469CE80700D9
:10352000109C84E80F0007B0BDE8F00F5DF814FBB5
:10353000704700002DE9FC5F044617460846FDF77A
:1035400013F9DFF8548206460D460020414602F08A
:10355000BBFB32462B46FCF7D1FFFDF718F98F4E27
:10356000F0603846FDF700F907460D460020414659
:1035700002F0AAFB3A462B46FCF7C0FFFDF707F91D
:103580003061D4E9016001462568FCF794FE0746E6
:1035900031460846FCF78FFE044629460846FCF7EC
:1035A0008AFE2146FCF72FFE3946FCF72CFEFDF77C
:1035B000DBF802F089FBFDF7EAF8044610F0FF4F54
:1035C0007ED021462846FCF7A8FE05462146304617
:1035D000FCF7A3FEFDF7C8F801F04AFBFDF7D7F8AA
:1035E0006F4E3060FDF7C0F801F058FE07460C46FC
:1035F00085F00040FDF7B8F83A462346FCF7F0FFA7
:1036000001F036FBFDF7C3F8664C674D20600020E3
:10361000471E3A4601462860FDF751F801F03EFE8C
:10362000FDF7B5F882462868FDF79EF83A46FDF7A3
:1036300046F802F0F9FAFDF7AAF881462068FDF78E
:1036400093F83A46FDF73BF801F028FEFDF79FF8A6
:1036500080462068FDF788F83A46FDF730F802F01A
:10366000E3FAFDF794F805463068FDF77DF83A4631
:10367000FDF725F801F012FEFDF789F88346306862
:10368000FDF772F83A46FDF71AF802F0CDFAFDF7A9
:103690007EF806462946FCF70EFE49460190FCF7E7
:1036A0000AFE044641465846FCF705FE5146009086
:1036B000FCF701FE2146FCF7A6FD3C4C074600E066
:1036C00067E0206029465846FCF7F5FD83464946E9
:1036D000FCF7F1FD054641463046FCF7ECFD80461F
:1036E0005146FCF7E8FD2946FCF7DFFD0646606021
:1036F00040464946FCF7DFFD054658465146FCF773
:10370000DAFD2946FCF77FFD0546A0605146019889
:10371000FCF7D1FD804649460098FCF7CCFD4146B8
:10372000FCF7C3FD0146E060FCF7C5FD8046294675
:103730000846FCF7C0FD054631460846FCF7BBFDD0
:10374000064639460846FCF7B6FD3146FCF75BFDF8
:103750002946FCF758FD4146FCF755FDFDF704F8F6
:1037600002F0B2FAFDF713F8054629462068FCF787
:10377000D4FD206029466068FCF7CFFD60602946D3
:10378000A068FCF7CAFDA0602946E068FCF7C5FD0B
:10379000E060BDE8FC9F00000000E83F6000002002
:1037A000240000202000002028000020C402002067
:1037B0001FB5062269463B20FFF78EF928B906227D
:1037C00002A94320FFF788F958B11448FEF7A0F882
:1037D000FFF706FB12480168491C0160012004B094
:1037E00010BDBDF8000041BA0E480180BDF80210BE
:1037F00049BA4180BDF8041049BA8180BDF808007B
:1038000041BA0848801D0180BDF80A1049BA4180BC
:10381000BDF80C1049BA81800020E0E7E4020020E6
:103820005E000020800000207047000070B5124943
:103830000020124B044601F10C0200BF03EB80058F
:10384000D5F8006841F8206026F00046C6F1FF4632
:10385000002E01D541F82040D5F80C5842F82050F0
:1038600025F00045C5F1FF45002D01D542F8204067
:10387000401C0328E2DB70BD3803002000F0030881
:103880002DE9F04F85B0814600262B4D0120009692
:10389000CDE9010588460390FDF724FF04A9684699
:1038A000FDF782FEDFF894B00024AA4624485D4666
:1038B00000EB8407D7F800084BF8240020F0004004
:1038C000C0F1FF40002801D545F8246059F82410C4
:1038D00055F82400FCF797FC45F8240002460AEB53
:1038E000840100230220FDF7BDFE144DD7F80C081B
:1038F0000C3545F8240020F00040C0F1FF400028BE
:1039000001D545F8246058F8241055F82400FCF738
:103910007AFC094945F824000C31024601EB840188
:1039200000230220FDF79EFE641C032CBEDBFDF786
:103930008FFE05B0BDE8F08F00F8030838030020C3
:1039400000F00308FEF78EBA10B590B02821684643
:10395000FCF735FC14210AA8FCF731FC022000908A
:103960000120049010200024059007946846FEF77B
:10397000FDFB08B172B6FEE70F20CDE90A040C94F6
:103980000D9400210AA80E94FEF704FB002801D034
:1039900072B6FEE710B010BD704710B5406A002146
:1039A000C185C184FEF7CEFD10BD70B5446A2068A4
:1039B000406994F83D10C0F3C0100025212904D1BE
:1039C00018B1E584204600F067F82068406994F853
:1039D0003E10C0F38010222904D118B1E58520469D
:1039E00000F042F8206C40F0100020642046FEF702
:1039F000A9FD70BD10B50146406A096809688906CD
:103A00001BD40021C1850168CA6822F48072CA6093
:103A100001684A6922F001024A6101684A6922F09C
:103A200040024A61202180F83E10016B012904D137
:103A30000168CA6822F01002CA60016B012902D035
:103A4000FEF712FF10BD818DFEF75AFD10BD10B5B7
:103A5000406A016B012902D0FEF707FF10BD818D7E
:103A60004908FEF74DFD10BD0168CA6822F4907246
:103A7000CA6001684A6922F001024A61016B0129AA
:103A800004D10168CA6822F01002CA60202180F8BF
:103A90003E100021016370470168CA6822F0C0022D
:103AA000CA60202180F83D10704708B590F83E109C
:103AB000222901D0022008BD82684FF480539A4227
:103AC00001D1016921B1816A9A421BD04AB10AE051
:103AD0000268816A5268C2F308020A80816A891CFE
:103AE00008E0026972B10268526802F07F020A704F
:103AF000816A491C8162C18D491E0904090CC18576
:103B000003D019E002685268F1E70168CA6822F040
:103B10002002CA600168CA6822F48072CA60016823
:103B20004A6922F001024A61202180F83E10016BAF
:103B3000012903D0FEF798FE002008BD0021016393
:103B40000168CA6822F01002CA6001680A68D206D9
:103B500002D50A6849680091818DFEF7D1FCEBE738
:103B600070B5044600680169E26821F440511143D0
:103B700001612169A0680843616908432168CA6836
:103B800041F20C639A430243CA6020684169A2690A
:103B900021F44071114341611E492068884202D1DD
:103BA000FEF79EFA01E0FEF78BFA00EBC00101EB95
:103BB0000012606864218000B2FBF0F3B3FBF1F304
:103BC0006FF018067343B2FBF0F5B2FBF0F605EBAD
:103BD0008305322303EB0515B5FBF1F5B6FBF1F6D2
:103BE00005F0F00505EB0615B2FBF0F6B2FBF0F0C0
:103BF000B0FBF1F06FF01802504306EB800003EBCE
:103C00000010B0FBF1F0216800F00F00284488603C
:103C100070BD00000038014038B581628285002502
:103C2000134604460564222084F83E00A26B134824
:103C30009062A26B1248D062A26B12481063A06B14
:103C40000A4645632168A06B091DFDF763FC2068E7
:103C500001684168009184F83C50C16841F480716A
:103C6000C1602068416941F00101416120684169FA
:103C700041F040014161002038BD0000F5390008E5
:103C80004F3A0008AB3900082DE9F0419846174635
:103C90000E460446069D1DE0681C1BD02DB1FDF7A5
:103CA00031FEA0EB0800A84214D92068C16821F4B5
:103CB000D071C1602068416921F00101416120207B
:103CC00084F83D0084F83E00002084F83C00032086
:103CD000BDE8F0812068006836EA000004D00020CA
:103CE000B842D9D00020F3E70120F9E70148FEF7F8
:103CF0002BBC000018020020FEE700000FB4084BA8
:103D000010B504A902AA039800F02AFC044602A9EF
:103D1000002000F0A8FF204610BC5DF814FB000056
:103D2000674C0008490050EAC12018BF04204A0D22
:103D300018BF40F0010040F2FF72B2EB515F08BFC4
:103D400040F00200012808BF052070470907090E4E
:103D5000002804DB00F1E02080F80014704700F038
:103D60000F0000F1E02080F8141D70472DE9F74F97
:103D7000144694B00021C4E902111599079121F06D
:103D80000045C9498D4206DC1599C4E9000117B008
:103D90000020BDE8F08FC549DFF814A3A9423CDD3F
:103DA0000799C44E0029C44FC44A1599534619DDDA
:103DB000FCF79EFB554506D0C14AC24BFCF798FB69
:103DC000C4E900010AE04FF0D352BE4BFCF790FB70
:103DD00032463B46FCF78CFBC4E9000117B00120DA
:103DE000BDE8F08FFCF7E3FA554506D0B44AB54B71
:103DF000FCF7DDFAC4E900010AE04FF0D352B14B01
:103E0000FCF7D5FA32463B46FCF7D1FAC4E900018B
:103E100017B04FF0FF30BDE8F08FAB49A9421599BC
:103E200078DB21F0004183468846A84AA84BFCF77E
:103E300065FB0022A74BFCF7BAFAFCF776FC099069
:103E4000FCF762FC06460F469C4A5346FCF756FBBD
:103E500043465A46FCF74FFB80468A46984A994BA0
:103E600030463946FCF74AFB2A0D01250B924246A3
:103E70005346FCF740FB032DC4E9000139D00B98F1
:103E8000C1F30A51401A05EB45111139814230DA6C
:103E90009148C346784400EB0510CDF80CA00C9077
:103EA000D0E9002330463946FCF728FB02460B4692
:103EB0000491069058460399FCF71AFB80468A46FF
:103EC00002460B4658460399FCF712FB049B069AE0
:103ED000FCF70EFB83460C9803913946D0E9022388
:103EE0003046FCF70BFB5A46039BFCF701FB6D1CAD
:103EF000BDE707980028A2BF099817B0BDE8F08F6A
:103F0000616881F000416160099817B04042BDE8E6
:103F1000F08FFFE784461598C1F31301C0F30A50F0
:103F2000A0F2F5304FEA601800F01F06C6F120003D
:103F3000139000200690079041F4801E05206D46E6
:103F400076B1664A08EB00017A4452F8213002EB60
:103F50008101B3404A68139922FA01F1194305E03F
:103F60005F4908EB0002794451F82210A1FB0E27AB
:103F7000A1FB0C131A449A4234BF0123002303EB24
:103F8000070A05EB8003D3E901B70F448F4234BF22
:103F90000121002193448B4411B1934502D903E0E0
:103FA000934501D2012100E00021C3E901B751444A
:103FB00045F82010011EA0F10100C1DC0298059F08
:103FC00000F10050800F12900298DDE90356800046
:103FD000FCF79AFB834628460D91FCF79BFD6FF09A
:103FE0001D02FCF76CFBCDE90E013046FCF792FD9B
:103FF0006FF03D02FCF763FB80468A463846FCF7CB
:1040000089FD6FF05D02FCF75AFB074642465346B6
:104010001191FCF7CCF9DDE90E23FCF7C8F95A46FB
:104020000D9BFCF7C4F900250E465A4628460D9B09
:10403000FCF75EFADDE90E23FCF75AFA42465346D6
:10404000FCF756FA3A46119BFCF755FADFF898A0B0
:10405000244A5346FCF752FA07468846234A244B23
:1040600031462846FCF74AFA3A464346FCF79FF9A0
:10407000074688464FF0A842534631462846FCF78B
:104080003DFA3A464346FCF792F9159A12F0004F72
:1040900004D0129A81F0004152421292C4E9000108
:1040A000129817B0BDE8F08FFB21E93F7CD90240A0
:1040B000FB21F93F7370032E8A19A33B0000405483
:1040C0003163621A61B4D03DFB21394183C8C96DA7
:1040D000305FE43F0000E03F78200000F41F000064
:1040E000D61F0000182D4454FB21F93D3326A6119C
:1040F000460B113C2DE9FF4D21F0004807460C46C8
:10410000B8F1795F08DAFCF710FB002801BF002046
:10411000324904B0BDE8F08D3A46234610461946B0
:10412000FCF7ECF9054602462D480E460B460621E3
:10413000784400F05DF82A463346FCF7DFF9DDE904
:10414000022382468B4638462146FCF7D7F90446BF
:104150000F4652465B4628463146FCF7CFF92246C9
:104160003B46FCF7C5F907468A464FF0FF32284622
:104170003146FCF7A4FA1B4A90450ADA3A46534600
:10418000FCF7B6F904B00022BDE8F04D134BFCF784
:10419000B2B9154A4245A8BFA8F500154FF0000472
:1041A000B8BF124D22462B46FCF7A2F906468846B8
:1041B00022462B4600200949FCF79AF904460D4691
:1041C0003A46534630464146FCF792F904B022463F
:1041D0002B46BDE8F04DFCF78EB900000000F03F23
:1041E000A41D00003333D33F0000E93F0000D23F5D
:1041F0002DE9F0414F1E00EBC7010446D1E9000153
:1042000015461E4637F006020DD02A463346FCF707
:1042100075F97F1E04EBC703D3E90023FCF7C7F849
:1042200037F00602F1D1022F25D0042F13D0062F2C
:1042300018BFBDE8F0812A463346FCF75FF9D4E9A0
:104240000A23FCF7B4F82A463346FCF757F9D4E9B9
:104250000823FCF7ACF82A463346FCF74FF9D4E9BB
:104260000623FCF7A4F82A463346FCF747F9D4E9BD
:104270000423FCF79CF82A463346FCF73FF9D4E9BF
:104280000223FCF794F82A463346FCF737F9D4E9C1
:104290000023BDE8F041FCF78AB800002DE9FF4D8E
:1042A000054621F0004084B00C46B0F1795F0BDA8E
:1042B0002846FFF737FD042808BF00F071F82846AC
:1042C00008B02146BDE8F08D2A460B461046FCF7A3
:1042D00015F906460F462A462346FCF70FF9804695
:1042E00026488A4632463B4605217844FFF780FF40
:1042F00083461098029160B3214A224B40465146B2
:10430000FCF7FCF8CDE900015A4640465146029BB5
:10431000FCF7F4F882468846DDE906014FF0FF32EB
:10432000FCF7CDF952464346FCF7E2F832463B46ED
:10433000FCF7E4F8DDE90623FCF7DAF8DDE9002311
:10434000FCF7D6F808B02A462346BDE8F04DFCF746
:10435000D2B80B465A4630463946FCF7CFF8084AE1
:10436000084BFCF724F842465346FCF7C7F808B060
:104370002A462346BDE8F04DFCF719B8EA1C0000B8
:10438000495555555555C5BF0122FCF798B9FCF75D
:104390000EB80022134610461146FCF721B9000062
:1043A000024A00201107FCF78AB9000001FDFFFF57
:1043B00002E008C8121F08C1002AFAD170477047EE
:1043C000002001E001C1121F002AFBD1704700004C
:1043D0000149086070470000B40000202DE9FF5F2C
:1043E00082B00021DDE90430020DDDF840B0034366
:1043F00018D044F61050A2F2FF324243151411981F
:1044000001281FD0A5EB0B00401C5FEA000A4FF00B
:1044100000064E4FDFF83891B046504615D5CAF128
:10442000000413E0119801244AA3012801D16FEA86
:104430000B010298119AC0E90031C0E9024206B0AE
:10444000BDE8F09FCBF10000DFE704460021404AC1
:10445000491842EB0450CDE9001012E0E00707D004
:1044600032463B4640464946FCF748F88046894676
:1044700032463B4610461946FCF740F806460F46C2
:104480006410002CEAD1DDE90401DDE90023BAF172
:10449000000F06DAFCF732F842464B46FCF72EF8DE
:1044A00005E0FCF79DF842464B46FCF799F80446B8
:1044B0000E460022284BFCF703FB03D84FF0FF30D9
:1044C000014607E00022254B20463146FBF76FFFEF
:1044D000FCF7C6FA102409E0002C0ADB0A220023AC
:1044E000FCF787F9039B30321A55641E50EA01022B
:1044F000F2D1641C039AC4F111031444119A012AE5
:1045000003D0012208430DD10AE0084304D0002063
:104510004FF0110B119072E7A3EB0B056D1E0DE030
:104520005B4504DD4FF0000205F1010504E003DA0C
:104530004FF00002A5F10105002AECD00298119974
:10454000C0E90231C0E9004579E7000000001440ED
:104550000000F03F300000000000F0430000E03FAA
:104560002DE9FF4F95B09A46884606460025EEE1B4
:10457000252877D100242746F94A0121039400E039
:10458000044316F8013F203B01FA03F01042F7D133
:1045900030782A2811D06FF02F033078A0F1300244
:1045A000092A16D8039A44F0020402EB820203EBB4
:1045B00042021044761C0390EFE758F8042B039254
:1045C000002A03DA504244F40054039044F00204F9
:1045D000761C30782E2816D116F8010F44F004040A
:1045E0002A280DD06FF02F023078A0F13003092B6C
:1045F00009D807EB870302EB4303C718761CF3E7E0
:1046000058F8047B761C30786C280FD006DC4C28D8
:1046100017D068280DD06A2814D104E0742810D06F
:104620007A280FD10DE044F400140AE044F4801419
:1046300001E044F440147278824202D104F58014FF
:10464000761C761C307866280BD013DC582877D07F
:1046500009DC002875D04528F6D04628F4D0472834
:104660001AD193E118E0632835D0642879D0652801
:1046700012D18BE1702873D008DC6728F1D069284B
:104680006FD06E280DD06F2806D1ACE073282CD0E7
:10469000752874D0782853D05246179990476D1CCE
:1046A00054E1C4F30250022809D003280DD0D8F8F1
:1046B000001004280DD00D6008F1040846E1D8F878
:1046C0000010EA17C1E90052F6E7D8F800100D8093
:1046D000F2E70D70F0E718F8041B8DF800100020C9
:1046E0008DF80100EB46012003E058F804BB4FF0C1
:1046F000FF3061074FF0000102D40DE009F1010124
:104700008946B9420FDA8145F8DB1BF80910002908
:10471000F4D108E009F1010189468142FADB1BF876
:1047200009100029F6D103985346A0EB090721464A
:104730003846179A00F080FA284400EB090507E094
:1047400044E008E10DE01BF8010B52461799904731
:10475000B9F10109F7D2534621463846179AF2E0DB
:1047600039E00A21C4F302524FF0000B0091022AF3
:1047700006D058F8040BC117032A09D00AE023E039
:1047800008F1070020F00702F2E80201904605E078
:1047900000B2C117042A01D140B2C117002906DABC
:1047A0000A460021404261EB02012D2202E022056F
:1047B00004D52B228DF80420012203E0E20701D06A
:1047C0002022F7E7914657E00A2100E010214FF040
:1047D000000B00910BE010214FF0000B44F004049B
:1047E0000827009103E008204FF0000B0090C4F36D
:1047F0000252022A05D058F8040B0021032A08D0DF
:1048000008E008F1070020F00702F2E802019046F4
:1048100003E080B2042A00D1C0B24FF000092207A1
:104820002AD53278702A07D0DDF800C08CF0100C41
:104830005CEA0B0C05D00EE040228DF8042001222A
:1048400008E050EA010306D030238DF804308DF8DB
:10485000052002229146009B83F0080353EA0B03D4
:104860000AD150EA010201D1620705D530228DF844
:1048700004204FF001097F1E3278582A04D039A253
:104880000C920CAA02920BE03BA2F9E75B46009A5D
:10489000FBF7AFFF0C9B9B5C029A521E02921370B7
:1048A00050EA0102F2D1029804A9081A00F1200B83
:1048B000600702D524F4803400E001275F4502DD63
:1048C000A7EB0B0000E0002000EB0B010090039829
:1048D0004944401A0390E00306D453462146179AF0
:1048E000039800F0A9F90544002706E001A8524604
:1048F000C05D179990476D1C7F1C4F45F6DBE003A8
:104900000CD553462146179A039800F095F90544B3
:1049100004E030205246179990476D1C0099481EBC
:1049200000900029F5DC08E00298029952460078D0
:10493000491C0291179990476D1CBBF10001ABF126
:10494000010BF1DC5BE100F065F90544761C307881
:1049500000287FF40DAE19B02846BDE8F08F0000A6
:104960000928010030313233343536373839616245
:104970006364656600000000303132333435363709
:10498000383941424344454600000000600700D4E6
:10499000062708F1070020F00700F0E80223804610
:1049A00003F0004C5FEA0C0001D097A009E020055D
:1049B00001D596A005E0E00701D095A001E0AFF297
:1049C0004C001390307823F0004365280CD006DCAF
:1049D000452809D046281DD047287FD13BE06628CE
:1049E00018D067287AD136E00021112F01DB112081
:1049F00000E0781CCDE9000104A90CA8FFF7EEFC4B
:104A0000DDE90D010C9A4FF0000B07F1010910923E
:104A100000914EE04FF000400097CDE9011004A94D
:104A20000CA8FFF7DBFCDDE90D020C9B0F994FF0A2
:104A3000000B91461093009211B9791C00EB01090B
:104A4000B7EB090003D4C0F1FF3B07F10109A9EB63
:104A50000700019042E0012F00DA01270021112F09
:104A600001DD112000E03846CDE9000104A90CA8C1
:104A7000FFF7B4FCDDE90D010C9A00914FF0000B3B
:104A8000B946109221070FD4009A4A4503DA91469D
:104A900001E0A9F10109B9F1010F05DD109AA9F1B1
:104AA0000101515C3029F4D0B84202DA10F1040F50
:104AB00003DA0121CDE9011010E0002803DC834472
:104AC000A9EB000102E0411C494500DD8946A0EB4D
:104AD0000B00401C01904FF000400290200705D4CD
:104AE0000198484502DB4FF0FF30019000208DF81F
:104AF0004B0002980DF14B07B0F1004F25D002207A
:104B00000C902B200D90029800280CDA4042029065
:104B10002D200D9007E00A210298FBF754FE30315A
:104B2000029007F8011D0C99481E0C900029F2DC38
:104B300002980028EFD1791E0D980870307800F0A7
:104B4000200040F0450007F8020D11A8C01BC01D51
:104B500002901398007800B1012000EB0901019840
:104B600001EBE071029801440398401A401E039043
:104B7000E00306D453462146179A039800F05CF8E8
:104B800005441398007818B15246179990476D1C48
:104B9000E00323D553462146179A039800F04CF8BA
:104BA00005441BE0BBF1000F07DB0098584504DD0E
:104BB0001098179910F80B0001E017993020524611
:104BC000904701980BF1010B401E05F10105019082
:104BD00004D12E205246179990476D1CB9F100015F
:104BE000A9F10109DEDC05E017F8010B524617991F
:104BF00090476D1C0299481E02900029F4DC534630
:104C00002146179A03989EE62D0000002B00000015
:104C1000200000002DE9F041044600251E461746FD
:104C2000880404D405E039462020B0476D1C641E7A
:104C3000F9D52846BDE8F0812DE9F041044600256C
:104C40001E469046C80301D5302700E0202788047F
:104C500004D505E041463846B0476D1C641EF9D5C1
:104C60002846BDE8F0810A68531C0B60107070473D
:104C70002DE9F04D8D4F21F0004A86B005460C46D7
:104C8000BA452ADBAAEB070028430AD088488245A8
:104C900001DC1AD1CDB106B02846BDE8F04DFFF7D2
:104CA00073BB844A844B2846FBF728FC07460E4614
:104CB000824A834B28462146FBF720FC06B03A4641
:104CC0003346BDE8F04DFBF772BB0120FFF780FBD8
:104CD00006B0BDE8F04DFFF75CBB7A48824542DA8A
:104CE000BAF1795F0BDA2846FFF71CF8042808BFF1
:104CF000FFF756FB284606B02146BDE8F08D2A4650
:104D00000B461046FBF7FAFB834602466E480E46FA
:104D10000B4606217844FFF76BFA5A463346FBF7F9
:104D2000EDFB804669488A465A463346042178445A
:104D3000FFF75EFA5A463346FBF7E0FB00223B469C
:104D4000FBF735FB02460B4640465146FBF748FC55
:104D50002A462346FBF7D2FB06B02A462346BDE887
:104D6000F04DFBF724BB284624F0004100223D46CD
:104D70003B46FBF7C0FB4FF0FF32FBF7A0FC0646BB
:104D8000024653480F460B4606217844FFF730FA97
:104D900032463B46FBF7B2FBCDE900014D483246B7
:104DA0003B4604217844FFF723FA32463B46FBF7A3
:104DB000A5FB00222B46FBF7FAFA83460291304608
:104DC000394600F081FF804643480D46504517DCC8
:104DD000DDE900015A46029BFBF702FC42462B46E6
:104DE000FBF78CFB42462B46FBF7E1FA0122FBF76F
:104DF00066FC304A304BFBF77BFB304A304B4CE0D3
:104E00004FF0000A52460B464046FBF7D0FACDE978
:104E1000031052462B4610461946FBF76FFB3246ED
:104E20003B46FBF768FBDDE90332FBF7D9FB06469F
:104E30000F46DDE900015A46029BFBF7D1FB834692
:104E40000091012230463946FBF739FC194A1A4BCA
:104E5000FBF751FB06460F46012240462946FBF769
:104E60002EFC5A46009BFBF749FB32463B46FBF7BC
:104E70003FFB06460F46012250462946FBF71FFC22
:104E80000E4DDFF858802A464346FBF734FB324686
:104E90003B46FBF730FB2A464346FBF72CFB002C36
:104EA000D8BF81F0004106B0BDE8F08D0000F03FB2
:104EB0000000F07F075C143326A6913C182D445463
:104EC000FB21F93F0000E03FD8100000EE10000089
:104ED00062100000781000003333EF3FFB21E93F00
:104EE0002DE9F84F04460D4621F00040009173492A
:104EF000814211DC7249884201DC06D12CB1204686
:104F00002946BDE8F84FFFF73FBA6E48002DCCBFE9
:104F10006D496E49BDE8F88F6D49814211DD6D49DB
:104F20008142D8BF4FF0FF366DDD20462946FEF79F
:104F3000F9FE042808BFFFF733FA20462946BDE8EA
:104F4000F88F6549654F25F00045814233DD64499E
:104F5000814219DD002632464FF080432046294623
:104F6000FBF725FA80468A46012220462946FBF7B0
:104F7000A6FB00223B46FBF7BBFA42465346FBF733
:104F80002FFB04460D463EE001260022BA463B4672
:104F900020462946FBF70BFA80460F46002253466F
:104FA00020462946FBF7A4FA42463B46FBF718FB8E
:104FB00004460D4627E04B4981421BDDDFF828A15E
:104FC00002260022534620462946FBF797FA002284
:104FD0003B46FBF7ECF980460F460022534620463D
:104FE0002946FBF785FA42463B46FBF7F9FA0446A9
:104FF0000D4608E0032622462B4600203B49FBF7DE
:10500000EFFA04460D4622462B4610461946FBF79A
:1050100075FA8B46824602460B46FBF76FFA074647
:105020000246334888460B4606217844FFF7E0F8ED
:1050300052465B46FBF762FA82462E488B463A465A
:10504000434605217844FFF7D3F83A464346FBF739
:1050500055FA02460B46002E504659460CDAFBF72D
:10506000A6F922462B46FBF749FA01B022462B4609
:10507000BDE8F04FFBF73FBAFBF799F922462B4604
:10508000FBF73CFA1C4A7A4402EBC603D3E900233F
:10509000FBF72EFA22462B46FBF72AFA174A7A44E8
:1050A00002EBC603D3E90023FBF725FA009A002A96
:1050B000B8BF81F00041BDE8F88F00000000104447
:1050C0000000F07F182D4454FB21F93FFB21F9BF6C
:1050D0000000DC3F0000203E0000F33F0000F03FF6
:1050E0000000E63F008003400000F83F0000F0BFF2
:1050F0007A0E0000380E0000D60D00009E0D000054
:105100002DE9F04D9446CCF1000423F000464CEA22
:105110000404594F46EAD4749A46884621F0004266
:10512000BC4206D8454240EA050442EAD474BC4277
:1051300004D9BDE8F04D6246FFF729B9AAF1405500
:10514000A5F17F6555EA0C040BD0022404EAAA7489
:105150004A4DDFF82CE144EAD87452EA000B04D03F
:105160000CE0BDE8F04DFFF7BBBE002C14BF012CD6
:10517000BDE8F08D022C30D0032C32D056EA0C0B57
:105180000AD0BE4220D1BA4209D126F0804622F090
:1051900080423346114617E000291ADB25E0DFF88C
:1051A000E4B0FB44002C04BFDBE90001BDE8F08D56
:1051B000012C02BFDBE9000181F00041BDE8F08D68
:1051C000022C0AD0032C0CD0BA4212D1B8F1000F35
:1051D0000BDA2A482C49BDE8F08D28462B49BDE85A
:1051E000F08D28467146BDE8F08D24482849BDE879
:1051F000F08D921B12153C2AC4BF204F244E10DCA8
:10520000BAF1000FBEBF12F13C0F00273E4608DB8B
:105210006246FBF7E5F921F00041FFF761FE074622
:105220000E4694B1012C08BF86F000460DD0194AF5
:10523000194B022C3846314615D0FBF759F92A464E
:10524000BDE8F04D114BFBF753B900221346384629
:105250003146FBF71DFC04BF0220FFF7B9F83846C2
:105260003146BDE8F08DFBF743F92A46BDE8F04D25
:10527000064BFBF740B900000000F07F182D4454A6
:10528000FB2109C0620D0000FB21F9BFFB21094091
:10529000FB21F93F075C143326A6A13C00B5244B43
:1052A00021F0004287B09A42DCBF0022134629DD7C
:1052B000204B9A4208D140B94FF00100FFF788F81F
:1052C000FFF767F807B000BD03DBFFF75DF807B035
:1052D00000BD02AAFEF74AFD10F0030104BF0DF164
:1052E000080C9CE80F000DD0012001290ED00229E6
:1052F00014D00DF1080C00909CE80F00FEF7CEFFD3
:1053000007B000BDFEF7F6FE07B000BD0DF1080CBA
:1053100000909CE80F00FEF7C1FF05E00DF1080CBE
:105320009CE80F00FEF7E6FE07B081F0004100BDEB
:10533000FB21E93F0000F07F2DE9F0473F4CD4F816
:105340000C8041464046FAF7B6FFA668054631464E
:105350003046FAF7B0FF2946FAF755FF0121FBF76F
:105360001AF84FF07E594946FAF7A2FFFBF7FCF90D
:1053700005460F4641462068FAF79DFF80463146B4
:105380006068FAF798FF4146FAF73DFF0121FBF705
:1053900002F8FBF7E9F92A463B46FFF7B1FEFBF7B7
:1053A000F6F927490860E1686068FAF784FF054666
:1053B000A1682068FAF77FFF2946FAF776FF0121F6
:1053C000FAF7E9FFFBF7D0F9FFF752FCFBF7DFF93B
:1053D0001C490860D4F8088041464046FAF76BFF44
:1053E0006668054631463046FAF765FF2946FAF702
:1053F0000AFF0121FAF7CFFF4946FAF759FFFBF7F9
:10540000B3F907460D464046E168FAF754FF804677
:1054100031462068FAF74FFF4146FAF7F4FE0121C2
:10542000FAF7B9FFFBF7A0F93A462B46FFF768FEFB
:10543000FBF7ADF904490860BDE8F087C40200201D
:105440002800002020000020240000209CB0FCF751
:1054500011FDFEF779FAFD48816941F02001816173
:10546000816901F020010091816941F004018161AD
:10547000816901F004010091816941F008018161B5
:10548000816901F008010091416941F00101416128
:105490004069002200F00100009011460F20FCF747
:1054A00047FD0F20FCF736FDEA4DE948002428604F
:1054B0004FF46130C5E901040C20EC60C5E90440FB
:1054C000AC612846EC61FDF745F908B172B6FEE71C
:1054D000E048E14954380160E049C0E901144FF463
:1054E0008041C0E9034144618461C4610462FCF706
:1054F0000FFA08B172B6FEE7D64819A95438FDF77D
:10550000D1FC8DF866408DF8644001208DF867006D
:105510008DF865008DF86840FDF762FCFEF786F9AE
:105520006422CF49CB48FCF7C5FF2868416921F0C8
:10553000040141616423CA4A0321C648FBF70CFCFD
:10554000FBF78EFBC74D03E0012839D0FBF788FB42
:105550000028F9D1C34C6188E068FBF789FC002082
:10556000E06484F85000044680461390149015902F
:10557000BD480790BD4E274600203D463146069067
:1055800000F0A2FB4FF0C042B94BFAF7B7FFFBF7B0
:10559000FEF8B84908600020314600F095FB002273
:1055A0001346FAF7ABFFFBF7F2F8B3490860FCF7D4
:1055B000A9F911905FF00006FEF7FAF828B112E0A1
:1055C000D5E90101FBF7C8FCC4E7AC48B0F900100D
:1055D0000C44B0F90210B0F904000F44054408F17E
:1055E000010000F0FF08761C0A2EE5DB4046FBF7C1
:1055F00086F806462046FBF779F8A14909688B46EC
:10560000FAF759FE3146FAF788FE14903846FBF750
:105610006DF85946FAF74FFE3146FAF77EFE1390C1
:105620002846FBF763F85946FAF745FE3146FAF784
:1056300074FE1590139810F0FF4F07D1149810F0D6
:10564000FF4F03D1159810F0FF4FB3D0DDE90621CD
:1056500013A8FDF76FFF002001261B90FCF752F9FD
:105660001690804887A14C30FAF7B4FD30B1FBF7B3
:1056700057FB64217A48FAF7A2FD6BE7794882A1CB
:105680004C30FAF7A7FD48B176484C3001794C38D8
:1056900001700021C16480F85010E2E70024A346A5
:1056A000D846A146A246254618210AA80594FAF72D
:1056B00086FDFCF727F911990190401AFBF71FF8B6
:1056C0007349FAF7F8FD67490027086101981190BE
:1056D000FEF76EF8B8B9694805996D1CB0F900205D
:1056E000EDB29344B0F90220B0F9040090440844AC
:1056F00005906848B0F90010B0F90220B0F9040034
:105700000C44914482447F1CB742E1DB002DA8D0B9
:105710009BFBF5F0FAF7EAFF5F4F3968FAF773FD84
:10572000574909688B46FAF7C6FD0A9098FBF5F0D1
:10573000FAF7DCFF7968FAF766FD5946FAF7BBFD20
:105740000B90059890FBF5F0FAF7D0FFB968FAF7DF
:105750005AFD5946FAF7AFFD0C9094FBF5F0FAF7B5
:10576000C5FF4E4C2168FAF74EFD4D4909680F46BA
:10577000FAF7A1FD0D9099FBF5F0FAF7B7FF616814
:10578000FAF741FD3946FAF796FD0E909AFBF5F0CF
:10579000FAF7ACFFA168FAF736FD3946FAF78BFD48
:1057A000DFF8C0800F9098F8000043284BD04D28B8
:1057B0004AD0512849D1169901980126401A42F23F
:1057C0001071884205D92B48364901602A4936486C
:1057D00008600AA8FDF7B4FA3449C8F8341034490F
:1057E000C8F830103349C8F838103349C8F84010A9
:1057F00032492D48C8F83C10C8F84400FDF764FB56
:10580000FFF79AFD00F086FAD8F81010D8F82000BB
:105810000C46FAF750FDD8F82810FAF7F4FC0746C2
:105820002146D8F82400FAF746FDD8F82C10FAF7EC
:10583000EAFC234C82462146D8F81400FAF73BFDD7
:10584000FAF792FF3EE0D5E04FE1D2E000100240CF
:10585000003801401802002000540040801A060061
:10586000FC0000200C0000208B0A863F0000E83F6F
:1058700051C1F03F6C00002070000020800000202B
:105880007800002065656500636D643A00000000E3
:105890006F12833A86000020380300204403002062
:1058A0007C000020EC51383D0AD7A33CCDCCCC3D48
:1058B000CDCC4CBECDCC4CBF0AD7233C0AD723BCA1
:1058C000000034C3DFF8B0B2AC4B5A46FAF788FE9A
:1058D000FAF75DFF8146AA49D8F81800FAF7EBFC01
:1058E000FAF742FF5A46A54BFAF77AFEFAF74FFF4E
:1058F00005462146D8F81C00FAF7DDFCFAF734FF1C
:105900005A469E4BFAF76CFEFAF741FF04463846BA
:10591000FAF72AFF9B4FDFF870B23A465B46FAF778
:1059200046FDFAF734FFC8F828005046FAF71CFF86
:105930003A465B46FAF73BFDFAF729FFC8F82C0018
:105940004846FAF711FF3A465B46FAF730FDFAF798
:105950001EFFC8F814002846FAF706FF3A465B46D1
:10596000FAF725FDFAF713FFC8F818002046FAF7F2
:10597000FBFE3A465B46FAF71AFDFAF708FFC8F84D
:105980001C003220FBF7FEFDD8F848000321B0FBD5
:10599000F1F201FB120000282BD10A20FBF7F2FDE7
:1059A000D8F81C00FAF7E0FE82468B46D8F81800BB
:1059B000FAF7DAFE07468946D8F81400FAF7D4FE5B
:1059C00004460D46D8F82C00FAF7CEFECDE90001CA
:1059D000D8F82800FAF7C8FE0DF1080C02468CE84A
:1059E000B00E0B4669A17048FEF788F96E48FBF7C8
:1059F000A5FA74E00A99C8F830100B99C8F8341069
:105A00000C99C8F838100D99C8F83C100E99C8F8D0
:105A100040100F990A20C8F84410FBF7B3FDD8F8DE
:105A20004400FAF7A1FE82468B46D8F84000FAF708
:105A30009BFE07468946D8F83C00FAF795FE0446D7
:105A40000D46D8F83800FAF78FFECDE90201D8F8F4
:105A50003400FAF789FECDE90001D8F83000FAF7F2
:105A600083FE0DF1100C02468CE8B00E0B464FA1E0
:105A70004D48FEF743F94C48FBF760FAD8F8480068
:105A80003221B0FBF1F201FB120000281B9802D179
:105A9000401CC0B21B90052821D14DA14248FEF701
:105AA0002DF94148FBF74AFA0A20FBF76BFD54A198
:105AB0003D48FEF723F93C48FBF740FAFBF738F87E
:105AC00000201B904D2188F8001053A13648FEF7A6
:105AD00015F93548FBF732FA0A20FBF753FDD8F8E1
