:020000040800F2
:100000008807002045010008CB330008D5280008E8
:10001000C9330008EF0A00086D3C0008000000002A
:10002000000000000000000000000000C9370008C8
:100030001F0C000800000000E5340008E538000847
:100040005F0100085F0100085F0100085F01000810
:100050005F0100085F0100085F0100085F01000800
:100060005F0100085F0100085F0100085F010008F0
:100070005F0100085F0100085F010008E90B00084C
:100080005F0100085F0100085F0100085F010008D0
:100090005F0100085F0100085F0100085F010008C0
:1000A0005F0100085F0100085F0100085F010008B0
:1000B0005F0100085F0100085F0100085F010008A0
:1000C0005F0100085F0100085F0100085F01000890
:1000D0005F010008613C00085F0100085F01000843
:1000E0005F0100085F0100085F0100085F01000870
:1000F0005F0100085F0100085F0100085F01000860
:100100005F0100085F0100085F0100085F0100084F
:100110005F0100085F0100085F0100085F0100083F
:100120005F0100085F0100085F0100085F0100082F
:10013000DFF80CD000F0BCFC00480047B5530008C5
:10014000880700200648804706480047FEE7FEE78C
:10015000FEE7FEE7FEE7FEE7FEE7FEE7FEE7FEE777
:100160003939000831010008202A04DB203A21FA3D
:1001700002F00021704721FA02F3D040C2F12002C0
:10018000914008431946704740EA01039B0703D09A
:1001900009E008C9121F08C0042AFAD203E011F8C6
:1001A000013B00F8013B521EF9D27047D2B201E088
:1001B00000F8012B491EFBD270470022F6E710B56C
:1001C00013460A4604461946FFF7F0FF204610BDC5
:1001D00030B505462A460B4612F8010B13F8014BC1
:1001E00008B1A042F8D01CB1002802D06D1CF1E784
:1001F000284630BD421C10F8011B0029FBD1801A93
:100200007047F0B480EA0102D40F4200B2EB410F14
:1002100002D20246084611464A0042D0C30DDDB262
:10022000C1F3C752AD1A202D35DAC1F3160141F4DE
:10023000000204B15242C5F1200602FA06F12A4139
:100240001044B3EBD05F23D0C4B1012DA0EBC35059
:1002500009DCF0BC4FF0004202EAC352DBB200F509
:10026000000000F01FBB400000F1807000EBC350A5
:10027000A0F1807040EAD170490009E0490841EAE4
:10028000C071A0EBC35000F50000400800EBC35064
:10029000F0BC00F0FEBA6142012202EB4101001BFA
:1002A000F6E7F0BC704781F00041AAE780F000401B
:1002B000A7E780EA010210B502F00043400022D017
:1002C0004A001FD0010E01EB1261C0F35600C2F3C9
:1002D000560240F4000042F40002A0FB0220000499
:1002E0007F39140400D0401C50EA124001D4400071
:1002F000491EC2B20C0604EBD010401C4008802AF4
:1003000002D003E0002010BD20F00100002900DA37
:100310000020184310BD30B480EA010202F000450D
:1003200030F0004221F0004013D090B1C30DD40D45
:10033000C2F31601C0F31600E41A41F4000140F4C0
:1003400000027D34914201D3641C00E04900002C7E
:1003500002DA30BC002070474FF4000000239142C5
:1003600001D3891A034340084FEA4101F7D151B143
:10037000914202D14FF0004105E002D24FF001015D
:1003800001E06FF0010103EBC450284430BC00F0E1
:1003900080BA420005D0C0F3C7525242914201DCFC
:1003A0000020704700EBC15070472DE9FE4F80469A
:1003B00081EA0300C00F0C46009021F0004123F0B9
:1003C0000045B8EB0200A94105D2404621469046BF
:1003D0001C460B46024623F00040104347D0270D31
:1003E000C7F30A00C3F30A510290401A0190402853
:1003F0006BDAC3F3130040F4801B0098924620B1DF
:100400000023D2EB030A63EB0B0B01985946C0F1B2
:100410004002504600F01CFA06460D46504659462A
:10042000019A00F024FA10EB08006141002487EAE9
:10043000115284EAE7731A4340D0009A62B3019ADA
:10044000012A4FEA075215DC001B61EB02014FF055
:10045000004202EA0752CDE90042001C41F580113A
:1004600032462B4600F059FA03B0BDE8F08F404603
:100470002146F9E7001B61EB0201001C41F58013E6
:1004800000185B412018A2F5001747EB030140EA72
:10049000D570B6196D4111E06D084FEA360645EA90
:1004A000C0754FEA0752001B61EB0201001C41F5C9
:1004B000801149084FEA30000019514132462B465D
:1004C00003B0BDE8F04F00F01BBA009801224000D5
:1004D0000023D0EB020263EBE073009821464FEA61
:1004E000E074B8EB000061EB0401E9E783F000433E
:1004F0005BE781F0004158E72DE9FE4F81EA0304F4
:1005000004F0004421F0004100944FF0000B23F070
:10051000004350EA01045ED052EA03045BD0C3F307
:100520000A54C1F30A552C44A4F2F3340194A0FBFD
:100530000254C1F3130141F48011C3F3130343F4D4
:10054000801301FB024400FB034E840A970A44EA2D
:10055000815447EA8357A4FB076802958D0A05FB7F
:1005600007854FEA932C04FB0C542705029D4FEAA4
:10057000065847EA1637B5EB08056EEB070C870EF1
:10058000920E47EA811742EA8312A7FB0201B6EBFB
:100590000B0164EB00042B0D43EA0C335E1844EBB3
:1005A0001C50DA465146E7FB0201C5F313044FEA3B
:1005B0000B3343EA14534FEA0432019C43EA060327
:1005C000A4F10C040294009CCDE900B400F0A5F95C
:1005D00003B0BDE8F08F00200146F9E72DE9F04DAA
:1005E00081EA030404F0004B21F0004514464FF06B
:1005F000000A23F0004150EA050220D054EA01022B
:100600001DD0C5F30A570246C5F31303C1F3130007
:10061000C1F30A5640F4801543F48013A7EB060893
:10062000101BD64608F2FD3873EB050002D308F123
:10063000010801E092185B41B8F1000F03DA0020D5
:100640000146BDE8F08D00204FF480110646844637
:100650000EE0171B73EB050705D3121B63EB0503B5
:1006600006434CEA010C49084FEA300092185B41FE
:1006700050EA0107EDD152EA030012D082EA0400E9
:1006800083EA0501084305D0101BAB4106D20122C5
:10069000002306E000224FF0004302E06FF0010269
:1006A00053101AEB06004CEB085110EB0A0041EB1B
:1006B0000B01BDE8F04D00F023B970B521F0004307
:1006C00003430CD0C1F30A550024D5EB040564EBB9
:1006D0000403D617AD1AB34102DB0020014670BDFA
:1006E000201841EB025170BDC10F80EAE070084450
:1006F000CA079623002100F0D5B8962300221146A0
:1007000000F0D0B80EB5C10F80EAE0700844CA0707
:10071000002140F233438DE80E000A460B4600F0FC
:10072000FCF803B000BD70B5C1F30A5201F00045FA
:100730000024C1F3130140F2FF3341F480119A42C7
:1007400001DA002070BD40F233439A42A2F23342F4
:1007500003DC5242FFF708FD00E090402C43F1D04B
:10076000404270BD00F0004230F000400AD0C10DA0
:1007700001F56071C0F3160042EA0151C20840075A
:100780001143704700200146704701F0004330B428
:1007900021F0004150EA010206D00A0DA2F5607274
:1007A000C1F31301002A02DC30BC00207047440F63
:1007B00044EAC104C100E01830BC00EBC25000F0B4
:1007C00068B830B50B46014600202022012409E01C
:1007D00021FA02F59D4205D303FA02F5491B04FAFA
:1007E00002F52844151EA2F10102F1DC30BD2DE90D
:1007F000F05F0546002092469B46884606468146A5
:1008000040241BE02846414647462246FFF7ACFC01
:1008100053465A46C01A914110D3114618462246F3
:1008200000F016F82D1A67EB01084F46224601200A
:10083000002100F00DF817EB00094E41201EA4F135
:100840000104DFDC484631462A464346BDE8F09FB6
:10085000202A04DB203A00FA02F100207047914080
:10086000C2F1200320FA03F3194390407047202A75
:1008700006DBCB17203A41FA02F043EAE07306E0C8
:1008800041FA02F3D040C2F12002914008431946D8
:1008900070470029A8BF7047401C490008BF20F0DE
:1008A0000100704710B4B0FA80FC00FA0CF050EA76
:1008B000010404BF10BC704749B1CCF1200421FAF7
:1008C00004F411FA0CF118BF012121430843A3EBF2
:1008D0000C01CB1D4FEA00614FEA102042BF0020FF
:1008E00010BC704700EBC35010440029A4BF10BCDB
:1008F0007047401C490008BF20F0010010BC704741
:1009000010B5002B08DA401C41F1000192185B4140
:100910001A4301D120F0010010BD2DE9F04D92469F
:100920009B4611B1B1FA81F202E0B0FA80F22032B6
:100930009046FFF78DFF04460F4640EA0A0041EA61
:100940000B0153465A46084313D0114653EA01009F
:1009500019D0C8F140025046FFF706FC05460E4686
:10096000504659464246FFF773FF084305D0012021
:1009700004E020463946BDE8F08D0020054346EAF4
:10098000E0762C4337430A986305E40AA0EB08009D
:100990000022FD0A44EA47540A3002D500200146ED
:1009A000E9E7010510196941DDE9084500196941C8
:1009B000BDE8F04DA4E72DE9F04D00231A461B1ABF
:1009C0008A4103DB00200146BDE8F08DC1F30A52E5
:1009D000C1F3130141F480154FF0000BD10702D190
:1009E00000186D41521E0027044640F2FF113846A0
:1009F00001EB620A3E468046024600204FF4801119
:100A0000FFF7B2FBC2197141BB1846EB0100B4EB12
:100A1000030C75EB000C04D3E41A65EB00051746D4
:100A20000E46241908F101006D4180463428E3DDAB
:100A3000F91946EB0600091BA84103D24FF0FF321B
:100A4000134601E0002213461BEB070046EB0A5158
:100A5000BDE8F04DFFF754BFC1F30A52C1F31301D3
:100A600040F2FF3341F480119A4202DA002001463D
:100A7000704740F233439A42A2F2334202DC5242C0
:100A8000FFF772BBFFF7E4BE30B5002904DB4FF07F
:100A90000044404264EB0101002B04DB4FF00044B2
:100AA000524264EB0303994208BF904230BD0000FC
:100AB000064C074D06E0E06840F0010394E80700AB
:100AC00098471034AC42F6D3FFF736FBDC5E0008E3
:100AD000FC5E00080EB540F2334102910021CDE9E1
:100AE00000110A460B46FFF718FF03B000BDFEE7F2
:100AF0002DE9F04300208FB0394E06900A90079000
:100B0000089009900B900090DFF8D8800190029037
:100B10000390049005900546044608F1060944F642
:100B20002067306002F014FE20BBB8F90020009965
:100B30006D1C11440091B8F902200199ADB2114425
:100B40000191B8F9040002990844A0F58040029090
:100B5000B9F90020039911440391B9F902200499CD
:100B600011440491B9F904000599084405903068CE
:100B7000401C3060641CBC42D4DB43F698208542A4
:100B800003D201200FB0BDE8F083002406AE09AF08
:100B9000E8460DF10C092846FFF7AFFD4FEA0005C6
:100BA00058F82400FFF7A0FD80F000402946FFF729
:100BB000B2FB46F8240059F82400FFF795FD80F0B9
:100BC00000402946FFF7A7FB47F82400641C032CCC
:100BD000E6DB09A906A802F023FE0020D2E7000008
:100BE0005400002080000020014800F011BB0000EC
:100BF0005C02002030B590F840500124AC40C56B39
:100C00006C60046863604368102B036803D09960CC
:100C10000068C26030BD9A600068C16030BD704736
:100C200070B512A000F0B8F84FF47A75284600F0BD
:100C300089FC134C10A1A068FFF7CAFA08B1002084
:100C400070BD10A1A068FFF7C3FA60B107A000F063
:100C5000A3F8284600F076FC0AA1A068FFF7B8FACE
:100C600008B1012070BD022070BD000041542B432B
:100C7000574A41503F0000002B43574A41503A0029
:100C8000000000204E6F20415000000010B50C4CB9
:100C90008EB0207868B134216846FFF78EFAA278CA
:100CA00008A1684602F0E4FF684600F075F80EB04F
:100CB00010BD0EB007A0BDE8104000F06DB80000F8
:100CC0000000002041542B434950434C4F53453DB5
:100CD0002564000041542B434950434C4F53450079
:100CE00038B50BA0002400680090642303226946F5
:100CF000084801F095FD322000F024FCFFF7C6FF04
:100D0000322000F01FFC641C032CEEDB38BD000019
:100D10002B2B2B00B800002010B50C4614498EB0C8
:100D20008A608B80014644221248FFF72DFAFFF7B4
:100D3000D7FF34216846FFF740FA22460EA16846E5
:100D400002F096FF684600F027F8322000F0FAFB28
:100D5000012C03D0022C04D0032C06D10AA10120BF
:100D600001E009A1022000F035F80EB010BD00002E
:100D700000000020B800002041542B43574D4F4441
:100D8000453D2564000000003139322E3136382EC1
:100D9000312E31313100000030B599B00546FFF7F2
:100DA00029FA044664216846FFF707FA2A4606A195
:100DB000684602F05DFFA41CA2B2642369460448A1
:100DC00001F02EFD19B030BD25730D0A00000000A2
:100DD000B800002030B58DB00D4604463421684679
:100DE000FFF7EBF9012C02D0022C03D007E02A46D2
:100DF00007A101E02A460AA1684602F039FF6846C9
:100E0000FFF7CAFF322000F09DFB0DB030BD00009F
:100E100041542B4349505354413D22257322000035
:100E200041542B43495041503D222573220000007C
:100E3000F0B51D4C0E46074699B0A188A068FFF793
:100E4000BCF91AA0FFF7A8FF00252570322000F09A
:100E500079FB19A0FFF7A0FF322000F073FB64219B
:100E60006846FFF7AAF933463A4617A1684602F0EA
:100E7000FFFE6846FFF790FF322000F063FB19A1E8
:100E8000A068FFF7A5F90028F3D018A0FFF784FFAA
:100E9000322000F057FB18A1A068FFF799F900284D
:100EA000F3D0657019B0F0BD0000002041542B4311
:100EB00049504D55583D300041542B4349504D4FFA
:100EC00044453D310000000041542B4349505354E8
:100ED0004152543D22544350222C222573222C256A
:100EE00064000000434F4E4E4543540041542B4391
:100EF000495053454E4400003E00000010B50446E2
:100F0000FFF778F9214682B2BDE81040642301481A
:100F100001F086BCB800002030B599B00C460546FB
:100F200064216846FFF749F923462A460AA1684624
:100F300002F09EFE0D4D4FF4FA746846FFF72CFF49
:100F4000204600F0FFFA0AA1A868FFF741F900283F
:100F5000F3D019B030BD000041542B43574A4150E3
:100F60003D222573222C2225732200000000002040
:100F70005749464920434F4E4E454354454400008F
:100F800072B6FEE706490020C8610648016941F0D3
:100F900004010161016941F04001016170470000F5
:100FA0006803002000200240064A0021D161064962
:100FB0000A6942F002020A614861086940F0400093
:100FC000086170476803002000200240044B0022A3
:100FD000DA61044A136943F0010313610180704729
:100FE000680300200020024014480022C168CB069C
:100FF000134904D5CA6942F00202CA611022C368CB
:101000005B0705D5CB6943F00103CB6142F00402D5
:10101000C369DB0707D0CB6943F00403CB61C16927
:1010200021F00101C161A2F58071013901D0C260D6
:101030007047C16921F00101C16170470020024081
:101040006803002070B5054600F03CFC0646114CD4
:1010500009E0681C07D025B100F034FC801BA842D1
:1010600001D9032070BDE068C007F2D1E0688006B6
:1010700001D52020E060E068C00605D4E069C00723
:1010800002D1E068400703D5FFF7AEFF012070BD35
:10109000002070BD0020024010B590F82110002201
:1010A000022905D00421816380F82020012010BD91
:1010B00001680B6823F00E030B6001680B6823F0D6
:1010C00001030B6090F84030C46B012101FA03F377
:1010D000636080F8211080F82020104610BD0000C9
:1010E0002DE9F05F90F821100024022903D004219B
:1010F0008163012485E001680A6822F00E020A601B
:1011000001680A6822F001020A603F4E3E4FB215A4
:10111000DFF8F4C0DFF8F090DFF8ECA0DFF8E8B01B
:10112000DFF8E4E00168783F13011502ACF1640CCC
:10113000A9F15009AAF13C0AABF1280BAEF1140E4B
:101140004FF48018B14227D9B9420ED0614512D070
:1011500049451DD0514518D0594518D0714501D188
:10116000424615E0294EB14201D1012210E0274E3E
:101170001436B14201D110220AE0244E2836B14281
:1011800006D0224A3C32914201D11A4600E02A465A
:101190001E49091F0A602BE0B94213D0614517D0E0
:1011A000494522D051451DD059451DD0714501D129
:1011B00042461AE0B14202D14FF0807215E0134E60
:1011C000B14201D1012210E0104E1436B14201D1DA
:1011D00010220AE00D4E2836B14206D00B4A3C32AE
:1011E000914201D11A4600E02A46074980394A60F7
:1011F000012180F82110002180F82010416B01B1FD
:1012000088472046BDE8F09F800002400804024065
:101210002DE9F05FC16B0A6801680B68046C4FF040
:10122000040808FA04F8844D844E854FDFF814C290
:10123000DFF81492DFF814A2DFF814B2DFF814E23A
:1012400018EA020F65D05FEA437862D50A68920611
:1012500003D40A6822F004020A60DFF8F0814FF438
:101260008062016808F1140813011402414524D971
:10127000A9420DD0B1420FD0B9421AD0614515D064
:10128000494515D0514501D1120312E0594501D10C
:1012900004220EE0714501D140220AE06D4D143563
:1012A000A94206D06B4A2832914201D11A4600E089
:1012B00022466749091F0A6029E0A94213D0B142BA
:1012C00015D0B94220D061451BD049451BD05145AE
:1012D00002D14FF4800217E0414502D14FF0806205
:1012E00012E0594501D104220EE0714501D140229E
:1012F0000AE0584D1435A94206D0564A2832914288
:1013000001D11A4600E022464B4908394A60C16AB9
:1013100071E04FF0020808FA04F818EA020F70D0E2
:101320005FEA83786DD50A68920606D40A6822F0CF
:101330000A020A60012180F82110DFF810814FF4C1
:101340000072016808F1140813011402414524D900
:10135000A9420DD0B1420FD0B9421AD0614515D083
:10136000494515D0514501D1120312E0594501D12B
:1013700002220EE0714501D120220AE0354D1435DC
:10138000A94206D0334A2832914201D11A4600E0E0
:1013900022462F49091F0A6029E0A94213D0B14211
:1013A00015D0B94220D061451BD049451BD05145CD
:1013B00002D14FF4001217E0414502D14FF0007204
:1013C00012E0594501D102220EE0714501D12022DF
:1013D0000AE0204D1435A94206D01E4A2832914217
:1013E00001D11A4600E02246134908394A6000211B
:1013F00080F82010816A00291CD0BDE8F05F084702
:10140000FFE70825A540154214D01A0712D50A682F
:1014100022F00E020A6090F84020C36B012101FA0D
:1014200002F25A60816380F82110002180F82010B8
:10143000016BE0E7BDE8F09F080002401C0002409D
:101440003000024044000240580002406C0002405C
:10145000080402401C04024030B560B11A4B026817
:1014600014219A4209D2194B1344B3FBF1F18900BC
:10147000016417490AE0012030BD134B5B4213445D
:10148000B3FBF1F1890001640F490839C1630221FE
:1014900080F82110136843F6F0718B43F0E90114D2
:1014A0002143D0E902452C43214304692143446987
:1014B00021438469214319431160002141630122C2
:1014C00042770177084630BD08040240F8FFFDBFAF
:1014D0000000024070B5044690F820000025012865
:1014E0000CD0012084F8200094F821600020012E07
:1014F00006D084F820000225284670BD022070BD69
:10150000022684F82160A0632068066826F00106A0
:1015100006602046FFF76EFBE06A0028206801683D
:1015200002D041F00E0106E021F0040101602068C4
:10153000016841F00A0101602068016841F0010181
:101540000160D9E770B5044600F0BCF90546601C9F
:1015500002D004480078044400F0B4F9401BA042D3
:10156000FAD370BDA40000202DE9F04705462648B7
:101570000F460126017E01290FD001218146017607
:101580002868DFF888804CF25034022808D0A24640
:101590002046FFF757FDA8B131E00220BDE8F087F3
:1015A0002046FFF74FFD08BB0120FFF7EBFC20466C
:1015B000FFF748FDD8F81010064621F00401C8F8DE
:1015C00010101CE04FF0FF303860AC6811E020468E
:1015D000FFF7EAFC5046FFF735FDD8F8101006007B
:1015E00021F00201C8F8101001D03C6007E004F5BA
:1015F0000064D5E9020100EBC120A042E7D8002138
:1016000089F818103046C9E768030020002002401E
:101610000348016941F0800101610020704700002A
:10162000002002402DE9F05F07461C488846002450
:10163000017E15461E46012909D001218146017609
:101640004CF2503A5046FFF7FDFC18B122E0022060
:10165000BDE8F09F012F02D0022F00D00427D3460F
:10166000DFF83CA0220128463146FEF77DFD81B21D
:1016700008EB4400FFF7AAFC5846FFF7E3FCDAF852
:10168000102022F00102CAF8102018B9641CE4B23C
:10169000BC42E7D3002289F81820D9E7680300206C
:1016A00000200240064900200A69120607D5054AB3
:1016B0004A60054A4A600969090600D50120704759
:1016C0000020024023016745AB89EFCD2DE9F84F9B
:1016D000DFF8C891002409F1040A0AF1040B23463B
:1016E0000F270BF1040ED1E00125A54006EA050203
:1016F000AA4276D1DFF8A8C14E68A6EB0C08664571
:101700002BD00DDC032E34D005DC36B3012E19D0DE
:10171000022E2FD11BE0112E16D0122E2AD119E045
:10172000B8F5881F19D006DCB8F5803F15D0B8F59C
:10173000801F1FD111E0B8F5001F0ED0B8F5041FAF
:1017400018D10AE0CB6815E0CB681B1D12E0CB680E
:1017500008330FE0CB680C330CE08B682BB1012B06
:101760004FF0080303D0456104E0042302E0056163
:1017700000E00023FF2A01D8064601E000F104063C
:101780004FEA840501D9A5F12005D6F8008007FAB3
:1017900005FC28EA0C0803FA05F548EA0508C6F82E
:1017A00000804D68ED0070D53E4DAE6946F00106F3
:1017B000AE61AD6924F0030605F0010500953A4DD0
:1017C00006EB050CDCF80850A607360F07FA06F8FA
:1017D00025EA0805DFF8D480404503D14FF0000822
:1017E00025E052E0DFF8C880404502D14FF0010803
:1017F0001DE0DFF8C080404502D14FF0020816E03E
:10180000DFF8B480404502D14FF003080FE0DFF865
:10181000AC80404502D14FF0040808E0DFF8A0801A
:10182000404502D14FF0050801E04FF0060808FAE4
:1018300006F848EA0508CCF808804D68D9F8006039
:10184000ED034D4601D5164300E096432E604D68EA
:10185000DAF80060AD03554601D5164300E0964323
:101860002E604D68DBF80060ED025D4601D5164341
:1018700000E096432E604D68DEF80060AD027546CC
:1018800001D5164300E096432E60641C0A68164694
:10189000E2407FF429AFBDE8F88F0000000401406A
:1018A000000011100010024000000140000801403B
:1018B000000C0140001001400014014000180140DC
:1018C000001C01400148806870470000A40000200F
:1018D00070B5040025D094F83D00002520B984F8A7
:1018E0003C50204600F06AFA242084F83D0020682D
:1018F000016821F0010101602068016841F40041A4
:1019000001602068016821F40041016000F0B2FB31
:101910004A4A6168914201D8494900E049498842F0
:1019200001D2012070BD48492368B0FBF1F15E6827
:1019300026F03F060E435E606368934206D94FF47B
:10194000967359434FF47A73B1FBF3F12368491C42
:101950001E6A26F03F0631431962616891420AD837
:101960004900401EB0FBF1F0401CC0F30B000428FE
:101970001ED204201CE0A368F3B301EBC10202EB0A
:101980000116421EB2FBF6F2521C42F480421205CE
:1019900049D093B301EBC10202EB0111401EB0FB31
:1019A000F1F0401CC0F30B0040F4804040F40040D4
:1019B0002168CA694CF6FF739A431043C861D4E9A1
:1019C000071001432068026822F0C0021143016041
:1019D000D4E9030101432068826848F2FF339A4347
:1019E00011438160D4E9050108432168CA6822F0E7
:1019F000FF021043C86001E00EE016E020680168B5
:101A000041F0010101602564202084F83D00256338
:101A100084F83E50002070BD01EB4106421EB2FB2F
:101A2000F6F2521CB3E70120C2E701EB4101401E70
:101A3000B0FBF1F0401CC0F30B00B7E7A08601003B
:101A400080841E0000093D0040420F002DE9F84F40
:101A50000025DDF82890984617468A4604460095EA
:101A6000FFF730FF064694F83D0020287AD119236D
:101A7000012283492046009601F04EF80028F5D156
:101A800094F83C0001286DD0012084F83C002068C7
:101A90000168C90703D1016841F0010101602068B4
:101AA000016821F400610160222084F83D001020CB
:101AB00084F83E0025646762A4F82A80608D208542
:101AC0007048E06233464A465146204600F01AFF0D
:101AD00000287DD1208DDFF8B081202768B1012852
:101AE00014D00228206801681ED041F48061016092
:101AF0002068416980690090B5E02068416981698A
:101B00000091016841F400710160ACE02068016857
:101B100021F48061016072B6206841698169009199
:101B2000016841F400710AE041F40061016072B69D
:101B30002068416981690091016821F48061016038
:101B400062B690E0032868D801280CD002284B46E2
:101B50004FF000024146204600960FD000F0DCFF17
:101B6000B0BB10E08AE032464946204601F053F807
:101B700070BB20680069616A08706BE000F0CCFF00
:101B800030BB72B634E02068016821F480610160E6
:101B900072B620680069616A0870606A401C606201
:101BA000208D401E2085608D401E6085374846F29E
:101BB000A8110068B0FBF1F0C0EBC00000EB8000A2
:101BC0000090401E009008D020684069C04300E0AB
:101BD00029E040070CD50098F3E744F8305F6773BD
:101BE000A573206940F02000206162B625731AE0D9
:101BF0002068016841F40071016020680069616A31
:101C00000870606A401C6062218D491E2185618DCB
:101C1000491E618562B621681AE03246494620466F
:101C200000F0F9FF10B10120BDE8F88F20680069CD
:101C3000616A0870606A401C6062218D491E2185BE
:101C4000618D491E618521684A69D24352070AD4D1
:101C500009690170606A401C6062208D401E208509
:101C6000608D401E6085208D00287FF46BAF84F866
:101C70003D7084F83E5084F83C50D5E70220D3E70D
:101C8000020010000000FFFF04000100B00000206F
:101C90002DE9F84F1F4690468A460446DDF8289005
:101CA000FFF710FE054694F83D0020287FD1192348
:101CB000012240492046009500F02EFF002876D1F1
:101CC00094F83C00012872D0012084F83C00206880
:101CD0000168C90703D1016841F001010160206872
:101CE000016821F400610160212084F83D0010208A
:101CF00084F83E0000262664C4F824806785608D41
:101D000020852D48E0622B464A465146204600F089
:101D10006FFE90B9206841698069009036E02A46DC
:101D20004946204600F0AAFF50B1206C042804D197
:101D30002068016841F4007101600120BDE8F88F5E
:101D4000606A216800780861606A401C6062618D89
:101D5000491E6185218D491E89B2218522685369FA
:101D6000DB435B070BD451B100781061606A401C03
:101D70006062608D401E6085208D401E20852A4651
:101D80004946204600F0A2FE0028CED1208D002832
:101D9000C5D154F83D0B016841F400710160202069
:101DA00004F81E09E67766770020C7E7FFE7022000
:101DB000C4E70000020010000000FFFF10B586B06D
:101DC0000021009101910291039100680F4988421E
:101DD0001AD10F4CA06940F00800A061A0696946C3
:101DE00000F008000490C020009012200190032011
:101DF00003900848FFF76AFCE06940F40010E061D6
:101E0000E06900F40010049006B010BD00540040DA
:101E100000100240000C0140024881680278114421
:101E200081607047A4000020074810B5016841F0A8
:101E300010010160032000F075F8002000F006F8A2
:101E400000F024F8002010BD0020024070B50D4DB8
:101E500004464FF47A712878B1FBF0F00A4909681A
:101E6000B1FBF0F000F0ECFA48B9102C07D20022D8
:101E70002146501E00F036F800206C6070BD012035
:101E800070BD0000A4000020B00000200C4808B580
:101E9000816941F001018161816901F001010091D5
:101EA000C16941F08051C161C06900F0805000906B
:101EB0000448416821F0E06141F00071416008BDD3
:101EC0000010024000000140002809DB00F01F0262
:101ED000012191404009800000F1E020C0F800118C
:101EE00070470000F0B40E4B1B680C46C3F302238E
:101EF000C3F10705042D00D90425191D072901D2B6
:101F0000002300E0DB1E012606FA05F1491E2140F0
:101F100099409E40761E16403143F0BC01F0D0BE81
:101F20000CED00E0064900F0070208684FF6FF03D9
:101F3000184040EA0220034A10430860704700003E
:101F40000CED00E00000FA052DE9F0470F46050012
:101F500061D0434E306800F00700B84209D23068C3
:101F600020F0070038433060306800F00700B842C6
:101F700051D128683B4C810712D5400703D56068D2
:101F800040F4E06060602878000703D5606840F4A2
:101F9000605060606068A96820F0F00008436060ED
:101FA0002878C00728D06868012810D02168022846
:101FB00010D0890700292EDA616821F0030101435E
:101FC0006160FFF77FFC804641F288390DE02168AF
:101FD0008903EFE78901EDE7FFF774FCA0EB080147
:101FE000494502D90320BDE8F0876068696800F0C0
:101FF0000C00B0EB810FEFD1306800F00700B84261
:102000000BD9306820F0070038433060306800F0AA
:102010000700B84201D00120E5E72878400705D540
:102020006068E96820F4E060084360602878000791
:1020300006D56068296920F4605040EAC1006060FC
:1020400000F038F86168084AC1F30311515CC840D8
:102050000649086006480068FFF7F8FE0020C2E75E
:1020600000200240001002408C5C0008B0000020FC
:10207000A80000200448054900684968044AC1F3E3
:102080000221515CC8407047B0000020001002409F
:102090009C5C00080448054900684968044AC1F38B
:1020A000C221515CC8407047B000002000100240BF
:1020B0009C5C000812A185B00FC98DE80F0014A028
:1020C000144A006804905168134801F00C03042B73
:1020D00010D0082B0ED1C1F38343C9031DF80300B0
:1020E0000AD5516804AAC1F34041515C0A4A5043E1
:1020F000B0FBF1F005B0704708494843FAE700002B
:1021000002030405060708090A0B0C0D0E0F101038
:10211000010200000010024000127A0000093D0098
:102120002DE9F84F040070D02078C04DC00749D089
:102130006868C0F38100012807D06868C0F3810097
:10214000022809D16868C00306D52868800339D5FC
:1021500060680028E7D035E06068B0F5803F0BD0BC
:1021600010B1B0F5A02F11D0286820F4803028607D
:10217000286820F4802002E0286840F4803028603D
:10218000606890B1FFF79EFB06460AE0286840F4BD
:1021900080202860F0E700BFFFF794FB801B6428D5
:1021A00073D828688003F7D50CE0FFF78BFB064651
:1021B00005E000BFFFF786FB801B6428F0D8286885
:1021C0008003F7D420789A4E80074FF001094FF032
:1021D000000839D5686810F00C0F07D06868C0F3A4
:1021E0008100022809D16868C00306D428688007E6
:1021F00014D52069012808D110E02069B0B1C6F8D3
:102200000090FFF75FFB074605E00AE1FFF75AFB86
:10221000C01B0228C4D828688007F7D528686169E0
:1022200020F0F80040EAC10028600DE0C6F8008008
:10223000FFF748FB074604E0FFF744FBC01B0228FA
:1022400023D828688007F7D4207800072CD5794850
:10225000A169D9B1C0F80090FFF734FB074604E04C
:10226000FFF730FBC01B02280FD8686A8007F7D53C
:1022700071484FF4FA510068B0FBF1F0009000BFD4
:102280000098411E0091FAD20EE080E0C0F8008074
:10229000FFF718FB074604E0FFF714FBC01B0228FA
:1022A00075D8686A8007F7D42078400760D5E86958
:1022B0000027C00008D4E86940F08050E861E86970
:1022C000012700F0805000905C480168C90513D4D4
:1022D0000168834641F480710160FFF7F3FA82469A
:1022E00006E000BFFFF7EEFAA0EB0A0064284ED824
:1022F000DBF80000C005F5D5E06801280AD008B178
:10230000052813D0286A20F001002862286A20F0EE
:10231000040002E0286A40F001002862E06841F20F
:10232000883B98B1FFF7CEFA82460BE0286A40F06E
:1023300004002862EEE700BFFFF7C4FAA0EB0A0131
:1023400059455AD8286A8007F6D50CE0FFF7BAFA43
:10235000824605E0FFF7B6FAA0EB0A0159454CD8D2
:10236000286A8007F6D41FB1E86920F08050E86140
:10237000E06988B36968C1F38101022944D0022869
:10238000C6F8608004D0FFF79DFA044638E034E0D8
:10239000FFF798FA074604E0FFF794FAC01B0228FB
:1023A0002BD828688001F7D4206AB0F5803F05D18A
:1023B0006868A16820F4003008436860D4E9080127
:1023C0000843696821F4741108436860C6F8609096
:1023D000FFF778FA044606E025E000BFFFF772FA3F
:1023E000001B022809D828688001F7D51BE000BF30
:1023F000FFF768FA001B022802D90320BDE8F88F16
:1024000028688001F4D40EE00128F7D06868226AB9
:1024100000F48031914204D1616A00F47010884266
:1024200001D00120EAE70020E8E7000000100240A8
:102430000000424280044242B00000200070004090
:1024400010B5401EB0F1807F01D3012010BD4FF0C8
:10245000E02460610F21601701F032FC0020A061D0
:1024600007202061002010BD38B5044690F83E00DA
:1024700020281CD181B17AB194F83C00012816D0F3
:10248000012084F83C002063204601F07FFB0028F7
:1024900003D1216B012901D0012038BD21680A68D0
:1024A0004A680092CA6842F01002CA6038BD022031
:1024B00038BD000010B500680B49884212D10B49A5
:1024C000642201F58E70FFF7CFFF0948006841696B
:1024D00021F004014161054906480A68C26409798E
:1024E00080F8501010BD000000380140FC000020B2
:1024F000180200200C00002070470000F8B50268A8
:1025000004461068D168536910F00F0F4FF00005B2
:1025100054D003F0010601F4907737435FD0C2072F
:1025200005D0CA0503D5226C42F00102226442079D
:1025300005D5DA0703D0226C42F00202226482073A
:1025400005D5DA0703D0226C42F0040222640207A8
:1025500007D501F02002324303D0226C42F008027A
:102560002264226C002A35D0800604D5880602D564
:10257000204601F06AFA20684069216CC0F380109F
:1025800001F008010143204625D001F03DFA206802
:10259000416949061BD5416921F040014161A06BA9
:1025A000A8B158494163A06BFEF79AFD002811D0ED
:1025B000A06B416B01B0BDE8F040084783060ED523
:1025C0008B060CD52046BDE8F84001F03EBA204607
:1025D000FFF792FFF8BDFFF78FFF2564F8BD266B6C
:1025E0002023012E52D1C60650D5CE064ED51068F6
:1025F00050680090506940062AD5A16B0868406871
:102600000004000CEAD0A68D8642E7D9E0858869EF
:10261000202818D0D06820F48070D06020684169EC
:1026200021F0010141612068416921F040014161CF
:1026300084F83E3025632068C16821F01001C16034
:10264000A06BFEF729FDA08DE18D401A81B219E043
:10265000A08DE18D401A81B2E08D0028BED0002906
:10266000BCD0D06820F49070D0602068426922F01D
:102670000102426184F83E3025632068C26822F07E
:102680001002C2602046FFF715FFF8BD05062BD5E6
:102690000D0629D594F83D002128F6D1A068B0F5A3
:1026A000805F01D12069B0B1206A411C216221689C
:1026B00000784860E08C401E0004000CE084E4D107
:1026C0002068C16821F08001C1602068C16841F0C4
:1026D0004001C160F8BD206A0088C0F30800506066
:1026E000206A801C2062E5E74006F3D54806F1D554
:1026F000D168204621F04001D16084F83D3000F0DF
:10270000E8F8F8BD3B39000870B5040004D094F82F
:102710003D00002510B106E0012070BD84F83C505A
:10272000204600F023F8242084F83D002068C1688A
:1027300021F40051C160204601F0E2F920680169EE
:1027400021F4904101612068416921F02A01416131
:102750002068C16841F40051C1602564202084F8DC
:102760003D0084F83E00002070BD000070B586B0CA
:1027700000250646009501950295039500682249BB
:1027800088423FD12149886940F480408861886946
:1027900000F480400490886940F0040088618869F2
:1027A0001B4C00F00400049048150090022001909A
:1027B0000320039069462046FEF788FF2015CDE9E7
:1027C0000005694620460295FEF780FF124C11482D
:1027D000C4E900058020C4E902502561400165611B
:1027E000C4E906502046FEF737FE08B1FEF7C8FBE5
:1027F000B4630022114625206662FFF773FB252093
:10280000FFF762FB06B070BD0038014000100240C7
:1028100000080140580002405C02002070477047E9
:102820002DE9F843044690F83D001F4616460D4634
:1028300020284CD1C5B1BEB194F83C00012846D047
:10284000012084F83C004FF00008C4F840802120AB
:1028500084F83D00FFF736F8A6848146E684A06838
:10286000B0F5805F03D004E00120BDE8F883206963
:1028700028B12E465FF0000584F83C800EE000266B
:10288000FAE78021204601F0B9F9A0B9AEB116F8F7
:10289000010B21684860E08C401EE084E08C4B46D0
:1028A0004FF0000200970028EBD14FF04001204686
:1028B00001F0A4F930B10320D7E735F8020BC0F3DB
:1028C0000800E6E7202084F83D000020CDE7022044
:1028D000CBE77047FEE701684A69D24352050FD43F
:1028E0006FF480624A61002140F8301F2022427359
:1028F0008173026942F00402026101730120704792
:10290000002070472DE9F84F0446C06A1E469346E2
:102910000D4621680A6842F480620A60082807D0E0
:10292000012805D010F5803F02D0206B112804D17A
:102930002068016841F4807101604FF001195B4625
:10294000002249462046009600F0E6F84FF4007851
:1029500040B120680068C00501D5C4F8408003205C
:10296000BDE8F88F2069DFF884A0B0F5804F0FD064
:102970000620216800EAD51747F0F00008613346C9
:102980005A460AF10601204600F0FAF858BB03E067
:10299000E8B240F001001CE02168E8B2086133466B
:1029A0005A465146204600F0EBF8E0B920684169EC
:1029B00081690091016841F4807101605B460022E9
:1029C00049462046009600F0A7F80028C1D147F0FC
:1029D000F1002168086133465A465146204600F00E
:1029E000CFF80028BCD00120BAE7000002000100A7
:1029F000F8B50446C06A1E460D461746082807D09B
:102A0000012805D010F5803F02D0206B122804D198
:102A10002068016841F480710160134600224FF084
:102A200001112046009600F077F840B12068006858
:102A3000C00502D54FF4007020640320F8BD206962
:102A4000B0F5804F0ED00620216800EAD51040F086
:102A5000F000086133463A460B49204600F090F8F2
:102A600078B902E005F0FE0000E0E8B221680861F4
:102A7000054933463A46891F204600F081F8002870
:102A8000DCD00120F8BD0000080001002DE9FC4168
:102A90000F46002101911646D0258DF8040005242B
:102AA000012301AA294608480094FFF7F1F840B92C
:102AB00033463A46294604480094FEF7C7FF0028EB
:102AC00000D00120BDE8FC81E402002070B516466C
:102AD0000D4604460DE02046FFF7FDFE08B101203B
:102AE00070BD681C05D0FEF7EDFE801BA84207D81C
:102AF00035B120684069C0434007ECD4002070BD68
:102B0000002044F8300F20216173A073216941F047
:102B1000200121612073E2E72DE9F0471E4690462F
:102B20000D460446C1F30747DDF8209008E0701C0D
:102B300006D0FEF7C7FEA0EB0900B0420FD876B171
:102B40002068012F18D0806925EA00000004000CDD
:102B500014D000214145EAD00020BDE8F0870020D4
:102B600044F8300F20216173A073216941F02001E6
:102B7000216120730120F0E74069E5E70121E9E7E1
:102B80002DE9F0479A4691460E46044600254FF03F
:102B90002008C1F3074725E020684069C04340058D
:102BA00014D42068016841F40071016021686FF459
:102BB00080604861256384F83D8084F83E50206C35
:102BC00040F00400206484F83C501FE0B9F1FF3F5E
:102BD00008D0FEF777FEA0EB0A0149450CD8B9F101
:102BE000000F09D02068012F13D0806926EA000069
:102BF0000004000C0BD0CFE744F8305F84F80D8060
:102C0000A573206940F02000206125730120BDE8F4
:102C1000F0874069EAE72DE9F041002590460E462D
:102C20000446202717E04069C043C0060CD454F87E
:102C3000301B6FF01000486144F810596777A57792
:102C4000206A2062257717E0FEF73CFEA0EB080023
:102C5000B04208D83EB120684169C9434906E2D470
:102C60000020BDE8F08144F8305F6773A5732069E8
:102C700040F02000206125730120F2E770B5164670
:102C80000D4604460DE02046FFF725FE08B1012061
:102C900070BD681C05D0FEF715FE801BA84207D842
:102CA00035B120684069C0430006ECD4002070BDF7
:102CB000002044F8300F20216173A073216941F096
:102CC000200121612073E2E71CB5002201928DF8FA
:102CD000040005208DF805100090D021022301AAE0
:102CE0000348FEF7D5FF002800D001201CBD0000DE
:102CF000E40200202DE9F05FDFF87080DFF87090CB
:102D0000834600244FF07E5A58F82400FDF72AFD30
:102D1000184A194BFDF749FBFDF737FD06465146AA
:102D2000FDF76FFA01463046FDF7F5FA59F82470C1
:102D300005465BF824003946FDF7B5FA2946FDF74C
:102D4000B8FA3946FDF75DFA49F82400294650469D
:102D5000FDF7A9FA3146FDF7ACFA48F82400641CE7
:102D6000062CD1DB0248BDE8F09F00008C0000205B
:102D700050030020A4703D0AD7A3C03F10B582F0D5
:102D80000042029C83F0004384F0004480E81E006F
:102D900010BD000070B580216B20FFF795FF642007
:102DA000FEF7D0FB274C20680178007901F007027C
:102DB000402101EA801111436B20FFF785FF642059
:102DC000FEF7C0FB2068C07800F007011A20FFF76B
:102DD0007BFF20681825407805EAC0011B20FFF71B
:102DE00073FF2068807805EAC0011C20FFF76CFFA4
:102DF000042000F03FF82068817831B1012907D024
:102E0000022913D0032906D113E04FF0625101E0EB
:102E10004FF064516160407870B101280ED00228F3
:102E20000ED0032801D10848A06070BD4FF0665154
:102E3000F0E74FF06851EDE70448F5E70448F3E7A1
:102E40000448F1E77400002050A08B3A50A00B39E1
:102E500050A08B3950A00B3A10B50C4601465422B5
:102E60000248FDF791F90248046010BDE402002019
:102E70007400002001461920FFF726BF2DE9F04F0E
:102E8000FE4899B04FF0FF3401680B9141680991F9
:102E900081680891C068079021460B98FDF779FA80
:102EA000109021460998FDF774FA11902146089870
:102EB000FDF76FFA0F9021460798FDF76AFA0E901A
:102EC00001210B98FDF765FA069001210998FDF79D
:102ED00060FA059001210898FDF75BFA0490012142
:102EE0000798FDF756FAE64F0D9039680846FDF74A
:102EF000E0F9E44D804629680846FDF7DAF9E24E2C
:102F0000044631680846FDF7D4F92146FDF779F902
:102F10004146FDF776F9FDF725FC02F02FFEFDF79F
:102F200034FC044610F0FF4F7ED03068214680F01C
:102F30000040FDF7F0F906462868214680F0004081
:102F4000FDF7E9F905463868214680F00040FDF7B5
:102F5000E2F9044608990698FDF7ABF90746079988
:102F60000598FDF7A6F93946FDF79DF93146FDF7BD
:102F70009AF9824607990498FDF79BF90646099944
:102F80000698FDF796F93146FDF73BF92946FDF71E
:102F90008AF9814608990498FDF78BF90546099945
:102FA0000598FDF786F94FF07E51FDF77FF9294628
:102FB000FDF779F92146FDF776F9DDE9054580460B
:102FC00001212046049F0D9EFDF7E3F903900121A6
:102FD0003846FDF7DEF9159051463846FDF769F998
:102FE000834649462046FDF764F95946FDF75BF9EB
:102FF000834641460398FDF75CF90390494628460D
:10300000FDF757F9179051463046FDF752F91799D9
:10301000FDF7F7F80399FDF746F903905146284666
:10302000FDF747F9414600E0C8E102901598FDF729
:1030300040F9054649463046FDF73BF92946FDF77C
:1030400032F90299FDF72FF9054649463846FDF752
:1030500030F9064651462046FDF72BF93146FDF77B
:10306000D0F806460146FDF724F980462946084671
:10307000FDF71FF9039907460846FDF71AF90446BC
:1030800059460846FDF715F92146FDF7BAF83946C5
:10309000FDF7B7F84146FDF7B4F8FDF763FB02F022
:1030A0006DFDFDF772FB044601465846FDF733F906
:1030B0000A9021460398FDF72EF9039021462846F1
:1030C000FDF729F9029021463046FDF724F90190D9
:1030D00002990D98FDF7EDF8064601990498FDF761
:1030E000E8F805460A990598FDF7E3F804460399C0
:1030F0000698FDF7DEF82146FDF7D5F82946FDF7DD
:10310000D2F83146FDF77DF8054603990D98FDF795
:10311000D0F807460A990498FDF7CBF806460199BE
:103120000598FDF7C6F8044602990698FDF7C1F820
:103130002146FDF766F83146FDF7B5F83946FDF74B
:10314000B2F807460A990D98FDF7B3F88046DDE915
:103150000310FDF7AEF8064602990598FDF7A9F8A9
:10316000044601990698FDF7A4F82146FDF79BF85F
:103170003146FDF746F84146FDF795F806464348C7
:10318000016828460091FDF794F8414C2169884672
:10319000FDF78FF82168FDF734F8206005463846C2
:1031A0000099FDF786F84146FDF783F86168FDF761
:1031B00028F86060074630460099FDF77AF84146E6
:1031C000FDF777F8A168FDF71CF8DFF8C880064620
:1031D000A0602946D8F80000FDF765F8C8F800009F
:1031E000DFF8B48005463946D8F80000FDF75BF8F3
:1031F000C8F80000DFF8A48007463146D8F8000080
:10320000FDF751F80646C8F8000031460E98FDF764
:1032100050F8814639460F98FDF74BF880461198D3
:10322000294680F00040FDF744F84146FDF73BF8A1
:103230004946FDF738F8804639460E98FDF739F8CB
:10324000824631460F98FDF734F88146294610989A
:10325000FDF72FF84946FCF7D4FF5146FDF723F858
:10326000814629460E98FDF724F883463146119889
:10327000FDF71FF882463946109811E0C40200207D
:1032800044000020400000203C0000201C000020E2
:1032900060000020480000204C000020500000206A
:1032A000FDF707F85146FCF7FEFF5946FCF7A9FF6A
:1032B000824629460F98FCF7FCFF054639461198CF
:1032C000FCF7F7FF074631461098FCF7F2FF394646
:1032D000FCF797FF2946FCF7E6FF0646E0680A99E7
:1032E0000746FCF7E6FF4146FCF7E0FF0099FCF7D4
:1032F000E0FF0B99FCF785FF044638460399FCF77D
:10330000D8FF4946FCF7D2FF0099FCF7D2FF099994
:10331000FCF777FF054638460299FCF7CAFF51468D
:10332000FCF7C4FF0099FCF7C4FF0899FCF769FF9C
:10333000804638460199FCF7BCFF3146FCF7B6FFE2
:103340000099FCF7B6FF0799FCF75BFF06460146BC
:10335000FCF7AFFF824641460846FCF7AAFF8146CC
:1033600029460846FCF7A5FF074621460846FCF714
:10337000A0FF3946FCF745FF4946FCF742FF51469E
:10338000FCF73FFFFDF7EEF902F0F8FBFDF7FDF962
:10339000074601462046FCF7BEFF0A4C394620602E
:1033A0002846FCF7B8FF606039464046FCF7B3FF9B
:1033B000A06039463046FCF7AEFFE06019B0BDE8CA
:1033C000F08F0000C4020020FEE7FEE70FB42DE9F5
:1033D000F04F87B00C4615A9DDF8509091E8800DAC
:1033E00015461E4659464846FCF763FF0490514671
:1033F0003046FCF75EFF019041462846FCF759FF36
:10340000009039462046FCF754FF0099FCF74BFF2B
:103410000199FCF748FF0499FCF745FF03905146DA
:103420004846FCF746FF009059463046FCF741FFFE
:10343000019039462846FCF73CFF0490414620465F
:10344000FCF737FF0499FCF7DCFE0199FCF7D9FE85
:103450000099FCF728FF049041464846FCF729FFF5
:10346000019039463046FCF724FF00905946284623
:10347000FCF71FFF059051462046FCF71AFF0599FF
:10348000FCF711FF0099FCF7BCFE0199FCF7B9FEAF
:10349000059039464846FCF70CFF07464146304642
:1034A000FCF707FF064651462846FCF702FF054693
:1034B00059462046FCF7FDFE2946FCF7A2FE3146A0
:1034C000FCF7F1FE3946FCF79CFE0DF10C0C0346AF
:1034D0009CE80700109C84E80F0007B0BDE8F00FDF
:1034E0005DF814FB704700002DE9FC5F914C8846A5
:1034F000064615460020214602F040FB4FF0C04230
:103500008D4BFCF7F9FFFDF740F98C4F2146F86031
:10351000002002F033FB00221346FCF7EDFFFDF71D
:1035200034F9294638610846FCF7C3FE0446414693
:103530000846FCF7BEFE054631460846FCF7B9FED4
:103540002946FCF75EFE2146FCF75BFEFDF70AF913
:1035500002F014FBFDF719F9044610F0FF4F7DD07F
:1035600021463046FCF7D7FE054621464046FCF78B
:10357000D2FEFDF7F7F801F02DFBFDF706F9704ECE
:103580003060FDF7EFF801F035FE07460C4685F098
:103590000040FDF7E7F83A462346FDF71FF801F033
:1035A00019FBFDF7F2F8674C674D20600020471EBD
:1035B0003A4601462860FDF780F801F01BFEFDF752
:1035C000E4F882462868FDF7CDF83A46FDF775F82D
:1035D00002F07CFAFDF7D9F881462068FDF7C2F8C1
:1035E0003A46FDF76AF801F005FEFDF7CEF8804691
:1035F0002068FDF7B7F83A46FDF75FF802F066FA83
:10360000FDF7C3F805463068FDF7ACF83A46FDF71C
:1036100054F801F0EFFDFDF7B8F883463068FDF788
:10362000A1F83A46FDF749F802F050FAFDF7ADF877
:1036300006462946FCF73DFE49460190FCF739FE57
:10364000044641465846FCF734FE51460090FCF7CC
:1036500030FE2146FCF7D5FD3C4C00E068E0074613
:10366000206029465846FCF724FE83464946FCF76D
:1036700020FE054641463046FCF71BFE804651467B
:10368000FCF717FE2946FCF70EFE06466060404632
:103690004946FCF70EFE054658465146FCF709FE22
:1036A0002946FCF7AEFD0546A06051460198FCF79F
:1036B00000FE804649460098FCF7FBFD4146FCF7BA
:1036C000F2FD0146E060FCF7F4FD8046294608461D
:1036D000FCF7EFFD054631460846FCF7EAFD0646D5
:1036E00039460846FCF7E5FD3146FCF78AFD2946D8
:1036F000FCF787FD4146FCF784FDFDF733F802F047
:103700003DFAFDF742F8054629462068FCF703FE1E
:10371000206029466068FCF7FEFD60602946A068CD
:10372000FCF7F9FDA0602946E068FCF7F4FDE060D5
:10373000BDE8FC9F0000E83F51C1F03F6000002061
:10374000240000202000002028000020C4020020C7
:103750001FB5062269463B20FFF798F928B90622D3
:1037600002A94320FFF792F958B11448FEF7B0F8C8
:10377000FFF710FB12480168491C0160012004B0EA
:1037800010BDBDF8000041BA0E480180BDF802101E
:1037900049BA4180BDF8041049BA8180BDF80800DB
:1037A00041BA0848801D0180BDF80A1049BA41801D
:1037B000BDF80C1049BA81800020E0E7E402002047
:1037C0005E000020800000207047000070B51249A4
:1037D0000020124B044601F10C0200BF03EB8005F0
:1037E000D5F8006841F8206026F00046C6F1FF4693
:1037F000002E01D541F82040D5F80C5842F8205051
:1038000025F00045C5F1FF45002D01D542F82040C7
:10381000401C0328E2DB70BD3803002000F00308E1
:103820002DE9F04F85B0814600262B4D01200096F2
:10383000CDE9010588460390FDF734FF04A96846E9
:10384000FDF792FEDFF894B00024AA4624485D46B6
:1038500000EB8407D7F800084BF8240020F0004064
:10386000C0F1FF40002801D545F8246059F8241024
:1038700055F82400FCF7C5FC45F8240002460AEB85
:10388000840100230220FDF7CDFE144DD7F80C086B
:103890000C3545F8240020F00040C0F1FF4000281E
:1038A00001D545F8246058F8241055F82400FCF799
:1038B000A8FC094945F824000C31024601EB8401BB
:1038C00000230220FDF7AEFE641C032CBEDBFDF7D7
:1038D0009FFE05B0BDE8F08F00F803083803002014
:1038E00000F00308FEF798BA10B590B0282168469A
:1038F000FCF763FC14210AA8FCF75FFC022000908F
:103900000120049010200024059007946846FEF7DB
:1039100007FC08B172B6FEE70F20CDE90A040C944B
:103920000D9400210AA80E94FEF70EFB002801D08A
:1039300072B6FEE710B010BD704710B5406A0021A6
:10394000C185C184FEF7D8FD10BD70B5446A2068FA
:10395000406994F83D10C0F3C0100025212904D11E
:1039600018B1E584204600F067F82068406994F8B3
:103970003E10C0F38010222904D118B1E5852046FD
:1039800000F042F8206C40F0100020642046FEF762
:10399000B3FD70BD10B50146406A09680968890623
:1039A0001BD40021C1850168CA6822F48072CA60F4
:1039B00001684A6922F001024A6101684A6922F0FD
:1039C00040024A61202180F83E10016B012904D198
:1039D0000168CA6822F01002CA60016B012902D096
:1039E000FEF71CFF10BD818DFEF764FD10BD10B504
:1039F000406A016B012902D0FEF711FF10BD818DD5
:103A00004908FEF757FD10BD0168CA6822F490729C
:103A1000CA6001684A6922F001024A61016B01290A
:103A200004D10168CA6822F01002CA60202180F81F
:103A30003E100021016370470168CA6822F0C0028D
:103A4000CA60202180F83D10704708B590F83E10FC
:103A5000222901D0022008BD82684FF480539A4287
:103A600001D1016921B1816A9A421BD04AB10AE0B1
:103A70000268816A5268C2F308020A80816A891C5E
:103A800008E0026972B10268526802F07F020A70AF
:103A9000816A491C8162C18D491E0904090CC185D6
:103AA00003D019E002685268F1E70168CA6822F0A1
:103AB0002002CA600168CA6822F48072CA60016884
:103AC0004A6922F001024A61202180F83E10016B10
:103AD000012903D0FEF7A2FE002008BD00210163EA
:103AE0000168CA6822F01002CA6001680A68D2063A
:103AF00002D50A6849680091818DFEF7DBFCEBE78F
:103B000010B5044600680169E26821F44051114390
:103B100001612169A0680843616908432168CA6896
:103B200041F20C639A430243CA6020684169A2696A
:103B300021F440711143416113492068884202D148
:103B4000FEF7A8FA01E0FEF795FA00EBC00101EBE1
:103B50000010616864228900B0FBF1F1B1FBF2F062
:103B60006FF01803434301EB8303322101EB031190
:103B7000B1FBF2F101F0F00202EB001001F00F01D5
:103B800008442168886010BD0038014038B5816262
:103B900082850025134604460564222084F83E00F1
:103BA000A26B13489062A26B1248D062A26B1248BB
:103BB0001063A06B0A4645632168A06B091DFDF7E1
:103BC00089FC206801684168009184F83C50C16814
:103BD00041F48071C1602068416941F00101416197
:103BE0002068416941F040014161002038BD00007A
:103BF00095390008EF3900084B3900082DE9F041EC
:103C0000984617460E460446069D1DE0681C1BD0CC
:103C10002DB1FDF757FEA0EB0800A84214D920688B
:103C2000C16821F4D071C1602068416921F00101AF
:103C30004161202084F83D0084F83E00002084F893
:103C40003C000320BDE8F0812068006836EA0000EF
:103C500004D00020B842D9D00020F3E70120F9E7D2
:103C60000148FEF74BBC000018020020FEE70000F0
:103C70000FB4084B10B504A902AA039800F00EFC7B
:103C8000044602A9002000F0A0FF204610BC5DF809
:103C900014FB0000CB4B0008490050EAC12018BFBC
:103CA00004204A0D18BF40F0010040F2FF72B2EB51
:103CB000515F08BF40F00200012808BF052070478F
:103CC0000907090E002804DB00F1E02080F8001449
:103CD000704700F00F0000F1E02080F8141D7047DD
:103CE0002DE9F74F144696B00021C4E90211179947
:103CF000089121F00045CA498D4206DC1799C4E9B4
:103D0000000119B00020BDE8F08FC649DFF818A304
:103D1000A9423CDD0899C54E0029C54FC54A1799EF
:103D2000534619DDFCF7E2FB554506D0C24AC34BAA
:103D3000FCF7DCFBC4E900010AE04FF0D352BF4BB3
:103D4000FCF7D4FB32463B46FCF7D0FBC4E900014C
:103D500019B00120BDE8F08FFCF727FB554506D0D0
:103D6000B54AB64BFCF721FBC4E900010AE04FF06D
:103D7000D352B24BFCF719FB32463B46FCF715FB1E
:103D8000C4E9000119B04FF0FF30BDE8F08FAC4935
:103D9000A942179978DB21F000488346A94AAA4B2B
:103DA0004146FCF7A9FB0022A84BFCF7FEFAFCF702
:103DB000BAFC0990FCF7A6FC06460F469D4A5346FE
:103DC000FCF79AFB5A464346FCF793FB80468A462B
:103DD000994A9A4B30463946FCF78EFB2A0D01254D
:103DE0000B9242465346FCF784FB032DC4E90001C5
:103DF00039D00B98C1F30A51401A05EB451111391E
:103E0000814230DA9248C346784400EB0510CDF881
:103E10001CA00C90D0E9002330463946FCF76CFB1F
:103E2000CDE9020102460B4658460799FCF75EFBB6
:103E300080468A4602460B4658460799FCF756FBD1
:103E4000DDE90223FCF752FB83460C9803913946C7
:103E5000D0E902233046FCF74FFB5A46039BFCF7A0
:103E600045FB6D1CBDE708980028A2BF099819B052
:103E7000BDE8F08F616881F000416160099819B078
:103E80004042BDE8F08FFFE7C1F3130141F4801118
:103E90000E911799C1F30A51A1F2F532511102F0B6
:103EA0001F08C8F12002129200220C920D92694A5A
:103EB0007A4402EB810101F1140C0DA95FF00607B1
:103EC000DCF80020DCF8045002FA08F3129AD1F86A
:103ED00000A025FA02F21A430E9BA2FB0356A2FB96
:103EE00000329A4415449A4534BF4FF0010B4FF00D
:103EF000000B51F8043C05EB0B0E7344954234BFA4
:103F0000012200221644BBF1000F02D0AB4202D9BD
:103F100003E0AB4201D2012200E0002241F808A9EF
:103F20003244E1E801237F1EACF1040CC8D10898AB
:103F3000DDE90A6500F10050800F11900898099F93
:103F40008000FCF7DFFB80468A463846FCF7C2FD5E
:103F50006FF01D02FCF7B1FB074630460591FCF7F8
:103F6000B9FD6FF03D02FCF7A8FBCDE90310284630
:103F7000FCF7B0FD6FF05D02FCF79FFB06460246C2
:103F80000B460191DDE90310FCF70FFA3A46059B59
:103F9000FCF70BFA42465346FCF707FA00200D46A1
:103FA000834642465346FCF7A1FA3A46059BFCF786
:103FB0009DFADDE90332FCF799FA3246019BFCF7E2
:103FC00098FADFF89880244A4346FCF795FA0646AB
:103FD0000F46234A234B58462946FCF78DFA3246B2
:103FE0003B46FCF7E2F90F4606464FF0A84243462F
:103FF00058462946FCF780FA32463B46FCF7D5F98D
:10400000179A12F0004F04D0119A81F000415242E9
:104010001192C4E90001119819B0BDE8F08F0000B9
:10402000FB21E93F7CD90240FB21F93F7370032E4D
:104030008A19A33B000040543163621A61B4D03D39
:10404000FB21394183C8C96D305FE43F0000E03F88
:10405000BC1F0000441F0000182D4454FB21F93DF3
:104060003326A611460B113C2DE9FF4D21F00048E7
:1040700007460C46B8F1795F08DAFCF754FB0028D4
:1040800001BF0020324904B0BDE8F08D3A46234616
:1040900010461946FCF730FA054602462D480E46F2
:1040A0000B460621784400F05DF82A463346FCF7BB
:1040B00023FADDE9022382468B4638462146FCF787
:1040C0001BFA04460F4652465B4628463146FCF72B
:1040D00013FA22463B46FCF709FA07468A464FF098
:1040E000FF3228463146FCF7E8FA1B4A90450ADAC7
:1040F0003A465346FCF7FAF904B00022BDE8F04D09
:10410000134BFCF7F6B9154A4245A8BFA8F50015B0
:104110004FF00004B8BF124D22462B46FCF7E6F9DB
:104120000646884622462B4600200949FCF7DEF960
:1041300004460D463A46534630464146FCF7D6F90A
:1041400004B022462B46BDE8F04DFCF7D2B9000082
:104150000000F03FE81C00003333D33F0000E93F8C
:104160000000D23F2DE9F0414F1E00EBC70104468D
:10417000D1E9000115461E4637F006020DD02A4649
:104180003346FCF7B9F97F1E04EBC703D3E90023DC
:10419000FCF70BF937F00602F1D1022F25D0042FDE
:1041A00013D0062F18BFBDE8F0812A463346FCF72E
:1041B000A3F9D4E90A23FCF7F8F82A463346FCF7BA
:1041C0009BF9D4E90823FCF7F0F82A463346FCF7BC
:1041D00093F9D4E90623FCF7E8F82A463346FCF7BE
:1041E0008BF9D4E90423FCF7E0F82A463346FCF7C0
:1041F00083F9D4E90223FCF7D8F82A463346FCF7C2
:104200007BF9D4E90023BDE8F041FCF7CEB800000B
:104210002DE9FF4D054621F0004084B00C46B0F179
:10422000795F0BDA2846FFF737FD042808BF00F056
:1042300065F8284608B02146BDE8F08D2A460B46B1
:104240001046FCF759F906460F462A462346FCF766
:1042500053F9804626488A4632463B460521784433
:10426000FFF780FF83461098029160B3214A224BEA
:1042700040465146FCF740F9CDE900015A46404618
:104280005146029BFCF738F982468846DDE9060173
:104290004FF0FF32FCF711FA52464346FCF726F97D
:1042A00032463B46FCF728F9DDE90623FCF71EF908
:1042B000DDE90023FCF71AF908B02A462346BDE8D9
:1042C000F04DFCF716B90B465A4630463946FCF716
:1042D00013F9084A084BFCF768F842465346FCF7C6
:1042E0000BF908B02A462346BDE8F04DFCF75DB84F
:1042F0002E1C0000495555555555C5BF024A002092
:104300001107FCF7DAB9000001FDFFFF02E008C861
:10431000121F08C1002AFAD170477047002001E03F
:1043200001C1121F002AFBD170470000014908603B
:1043300070470000B40000202DE9FF5FDDE9022096
:10434000010DDDF838B0024318D044F61050A1F248
:10435000FF3141430D140F98012820D0A5EB0B002D
:10436000401C5FEA000A4FF00004474EDFF81C9142
:10437000A046504616D5CAF1000728E00F98012440
:1043800043A2012808D0002100980F9BC0E900211A
:10439000C0E90243BDE8FF9F6FEA0B01F4E7CBF1F0
:1043A0000000DEE7074612E0F80707D02246334652
:1043B00040464946FCF7A0F88046894622463346E7
:1043C00010461946FCF798F804460E467F10002F59
:1043D000EAD1DDE90201BAF1000F42464B4602DAAA
:1043E000FCF78AF801E0FCF7F9F804460E460022D3
:1043F000284BFCF749FB03D84FF0FF30014607E09C
:104400000022254B20463146FBF7CFFFFCF724FB6B
:10441000102409E0002C0ADB0A220023FCF7E7F94C
:10442000019B30321A55641E50EA0102F2D1641C1D
:10443000019AC4F1110314440F9A012A03D00122F6
:1044400008430DD10AE0084304D000204FF0110BBF
:104450000F9080E7A3EB0B056D1E0DE05B4504DDBF
:104460004FF0000205F1010504E003DA4FF000020D
:10447000A5F10105002AECD000980F99C0E902319E
:10448000C0E9004586E70000000024400000F03F3E
:10449000300000000000F0430000E03F2DE9FF4F36
:1044A00095B09B468946064600250FE2252877D120
:1044B00000242746F84A0121059400E0044316F839
:1044C000013F203B01FA03F01042F7D130782A284F
:1044D00011D06FF02F033078A0F13002092A16D8DE
:1044E000059A44F0020402EB820203EB42021044FC
:1044F000761C0590EFE759F8042B0592002A03DAA1
:10450000504244F40054059044F00204761C307884
:104510002E2816D116F8010F44F004042A280DD0D5
:104520006FF02F023078A0F13003092B09D807EB88
:10453000870302EB4303C718761CF3E759F8047BA3
:10454000761C30786C280FD006DC4C2817D06828F1
:104550000DD06A2814D104E0742810D07A280FD125
:104560000DE044F400140AE044F4801401E044F443
:1045700040147278824202D104F58014761C761CB5
:10458000307866280BD013DC582877D009DC002857
:1045900075D04528F6D04628F4D047281AD19DE199
:1045A00018E0632835D0642879D0652812D195E1C8
:1045B000702873D008DC6728F1D069286FD06E2886
:1045C0000DD06F2806D1B5E073282CD0752875D092
:1045D000782874D05A46179990476D1C75E1C4F33A
:1045E0000250022809D003280DD0D9F80010042861
:1045F0000DD00D6009F1040967E1D9F80010EA1740
:10460000C1E90052F6E7D9F800100D80F2E70D700D
:10461000F0E719F8041B8DF8001000208DF8010058
:10462000EA46012003E059F804AB4FF0FF30610780
:104630004FF0000102D40DE008F101018846B942B3
:104640000FDA8045F8DB1AF808100029F4D108E0E9
:1046500008F1010188468142FADB1AF808100029A6
:10466000F6D105985B46A0EB080721463846179A15
:1046700000F094FA284400EB080507E04DE029E13A
:104680000DE01AF8010B5A4617999047B8F1010846
:10469000F7D25B4621463846179A13E142E00A22D8
:1046A0000092C4F302524FF0000A022A08D059F8CF
:1046B00004CB032A4FEAEC710AD00DE029E02AE08E
:1046C00009F1070121F00702F2E802C1914609E071
:1046D0000FFA8CFC4FEAEC71042A03D14FFA8CFCE0
:1046E0004FEAEC71002907DA0A460021DCF1000CE0
:1046F00061EB02012D2202E0220504D52B228DF868
:104700000420012203E0E20701D02022F7E79046CF
:1047100059E00A2102E010220DE010214FF0000ABA
:1047200000910BE010224FF0000A44F00404082727
:10473000009203E008224FF0000A0092C4F30252F4
:10474000022A05D059F804CB0021032A08D009E039
:1047500009F1070121F00702F2E802C1914605E0E4
:104760001FFA8CFC042A01D10CF0FF0C4FF000085A
:10477000220728D5702806D0009B83F0100353EA47
:104780000A0305D00EE040228DF80420012208E043
:104790005CEA010206D030228DF804208DF8050075
:1047A00002229046009B83F0080353EA0A030AD1D1
:1047B0005CEA010201D1620705D530228DF80420A0
:1047C0004FF001087F1E582804D034A003900EA893
:1047D00002900DE036A0F9E753466046009AFCF7D8
:1047E00006F884460398825C0298401E029002708C
:1047F0005CEA0100F0D1029806A9081A00F1200A2B
:10480000600702D524F4803400E00127574502DD1B
:10481000A7EB0A0000E0002000EB0A0100900598D9
:104820004144401A0590E00306D45B462146179A9E
:10483000059800F0B3F90544002706E001A85A46A0
:10484000C05D179990476D1C7F1C4745F6DBE00360
:104850000CD55B462146179A059800F09FF9054450
:1048600004E030205A46179990476D1C0099481E65
:1048700000900029F5DC08E0029802995A46007879
:10488000491C0291179990476D1CBAF10001AAF1D9
:10489000010AF1DC65E10000092801003031323302
:1048A000343536373839616263646566000000006C
:1048B0003031323334353637383941424344454656
:1048C0000000000000F058F90544761C30780028FC
:1048D0007FF4ECAD19B02846BDE8F08F620700D434
:1048E000062709F1070222F0070CFCE80223E14643
:1048F00003F000485FEA080C02D00FF2702C0DE0C4
:104900005FEA045C02D50FF2682C07E05FEAC47C22
:1049100002D00FF2602C01E0AFF2700C4FF0FF38C4
:1049200023F00043CDF850C065280CD006DC4528A4
:1049300009D046281DD047283DD13DE0662818D033
:1049400067287ED138E00021112F01DB112000E023
:10495000781CCDE9000106A90EA8FFF7EDFCDDE902
:104960000F010E9A03910021009207F1010A0491B0
:104970004DE04FF000400097CDE9011006A90EA8C8
:10498000FFF7DAFCDDE90F0203920E9B119900227A
:10499000DDF80CA00093049211B9791C00EB010A18
:1049A000B7EB0A0004D4C0F1FF3007F1010A04900C
:1049B000AAEB0700019044E0012F00DA0127002153
:1049C000112F01DD112000E03846CDE9000106A9D4
:1049D0000EA8FFF7B1FCDDE90F010E9A039100214B
:1049E00004910092BA4621070CD40399514500DA8C
:1049F0008A46BAF1010F05DD009AAAF10101515C66
:104A0000302908D0B84202DA10F1040F06DA012189
:104A1000CDE9011015E0AAF10101E9E7002805DC64
:104A2000049901440491AAEB000102E0411C5145A4
:104A300000DD8A460499401A401C01904FF0004066
:104A40000290200704D40198504501DBCDF8048082
:104A500000208DF84F0002980DF14F07B0F1004F84
:104A600025D02B200E9002984FF0020800280CDA77
:104A7000404202902D200E9007E00A210298FBF799
:104A8000A0FE3031029007F8011DB8F10001A8F135
:104A90000108F2DC02980028EFD1791E0E98087008
:104AA000307800F0200040F0450007F8020D12A811
:104AB000C01B00F107081498007800B1012000EB3A
:104AC0000A01019801EBE07105984144401A401E2B
:104AD0000590E00306D45B462146179A059800F03E
:104AE0005DF805441498007818B15A461799904714
:104AF0006D1CE00324D55B462146179A059800F00B
:104B00004DF805441CE00498002807DBDDE90301AB
:104B1000884203DD0098405C179901E01799302026
:104B20005A469047049805F10105401C04900198ED
:104B3000401E019004D12E205A46179990476D1CB3
:104B4000BAF10001AAF1010ADDDC05E017F8010B5A
:104B50005A46179990476D1CB8F10001A8F1010859
:104B6000F4DC5B462146179A0598ABE62D00000061
:104B70002B000000200000002DE9F0410446002534
:104B80001E461746880404D405E039462020B04765
:104B90006D1C641EF9D52846BDE8F0812DE9F04171
:104BA000044600251E469046C80301D5302700E084
:104BB0002027880404D505E041463846B0476D1CDF
:104BC000641EF9D52846BDE8F0810A68531C0B60C5
:104BD000107070472DE9F04D904F21F0004A86B0DB
:104BE00005460C46BA4530DBAAEB070028430CD03B
:104BF0008B48824501DC1CD1DDB106B02846BDE8FA
:104C0000F04D4FF00102FBF758BD864A864B28460F
:104C1000FBF772FC07460E46844A854B2846214620
:104C2000FBF76AFC06B03A463346BDE8F04DFBF7A9
:104C3000BCBB0120FFF77AFB06B00022BDE8F04DB7
:104C4000134610461146FBF7C9BC7A48824542DA42
:104C5000BAF1795F0BDA2846FFF71EF8042808BF7F
:104C6000FFF74CFB284606B02146BDE8F08D2A46EA
:104C70000B461046FBF740FC834602466E480E4644
:104C80000B4606217844FFF76DFA5A463346FBF788
:104C900033FC804669488A465A46334604217844A4
:104CA000FFF760FA5A463346FBF726FC00223B46E4
:104CB000FBF77BFB02460B4640465146FBF78EFC5A
:104CC0002A462346FBF718FC06B02A462346BDE8D1
:104CD000F04DFBF76ABB284624F0004100223D4618
:104CE0003B46FBF706FC4FF0FF32FBF7E6FC0646BF
:104CF000024653480F460B4606217844FFF732FA26
:104D000032463B46FBF7F8FBCDE900014D48324601
:104D10003B4604217844FFF725FA32463B46FBF731
:104D2000EBFB00222B46FBF740FB8346029130460B
:104D3000394600F023FF804643480D46504517DCB6
:104D4000DDE900015A46029BFBF748FC42462B4630
:104D5000FBF7D2FB42462B46FBF727FB0122FBF772
:104D6000ACFC304A304BFBF7C1FB304A304B4CE0D7
:104D70004FF0000A52460B464046FBF716FBCDE9C2
:104D8000031052462B4610461946FBF7B5FB324638
:104D90003B46FBF7AEFBDDE90332FBF71FFC0646A3
:104DA0000F46DDE900015A46029BFBF717FC8346DC
:104DB0000091012230463946FBF77FFC194A1A4B15
:104DC000FBF797FB06460F46012240462946FBF7B4
:104DD00074FC5A46009BFBF78FFB32463B46FBF7C1
:104DE00085FB07460E46012250462946FBF765FC27
:104DF0000E4DDFF858802A464346FBF77AFB3A46C9
:104E00003346FBF776FB2A464346FBF772FB002C42
:104E1000D8BF81F0004106B0BDE8F08D0000F03F42
:104E20000000F07F075C143326A6913C182D4454F3
:104E3000FB21F93F0000E03F201000003610000089
:104E4000AA0F0000C00F00003333EF3FFB21E93F02
:104E50002DE9F84F04460D4621F0004000917449B9
:104E6000814213DC7349884201DC08D13CB1204601
:104E70002946BDE8F84F4FF00102FBF71EBC6E4813
:104E8000002DCCBF6D496E49BDE8F88F6D49814258
:104E900011DD6D498142D8BF4FF0FF366DDD2046F0
:104EA0002946FEF7F9FE042808BFFFF727FA204637
:104EB0002946BDE8F88F6549654F25F000458142D8
:104EC00033DD6449814219DD002632464FF08043CC
:104ED00020462946FBF769FA80468A460122204689
:104EE0002946FBF7EAFB00223B46FBF7FFFA424666
:104EF0005346FBF773FB04460D463EE001260022B5
:104F0000BA463B4620462946FBF74FFA80460F46F5
:104F10000022534620462946FBF7E8FA42463B4624
:104F2000FBF75CFB04460D4627E04B4981421BDD45
:104F3000DFF8288102260022434620462946FBF757
:104F4000DBFA00223B46FBF730FA07468A4600228E
:104F5000434620462946FBF7C9FA3A465346FBF733
:104F60003DFB04460D4608E0032622462B46002062
:104F70003B49FBF733FB04460D4622462B461046C1
:104F80001946FBF7B9FA8B46824602460B46FBF7F9
:104F9000B3FA07460246334888460B460621784452
:104FA000FFF7E0F852465B46FBF7A6FA82462E482A
:104FB0008B463A46434605217844FFF7D3F83A46F4
:104FC0004346FBF799FA02460B46002E50465946D7
:104FD0000CDAFBF7EAF922462B46FBF78DFA01B013
:104FE00022462B46BDE8F04FFBF783BAFBF7DDF90D
:104FF00022462B46FBF780FA1C4A7A4402EBC60392
:10500000D3E90023FBF772FA22462B46FBF76EFA30
:10501000174A7A4402EBC603D3E90023FBF769FA87
:10502000009A002AB8BF81F00041BDE8F88F000067
:10503000000010440000F07F182D4454FB21F93F7C
:10504000FB21F9BF0000DC3F0000203E0000F33FE1
:105050000000F03F0000E63F008003400000F83F02
:105060000000F0BFBE0D00007C0D00001A0D000016
:10507000E20C00002DE9F04D9446CCF1000423F041
:1050800000464CEA0404524F46EAD4749A468846D5
:1050900021F00042BC4206D8454240EA050442EAFB
:1050A000D474BC4204D9BDE8F04D6246FBF77DB92B
:1050B000AAF14055A5F17F6555EA0C040BD00224F6
:1050C00004EAAA74434DDFF810E144EAD87452EAC6
:1050D000000B04D00CE0BDE8F04DFFF7B9BE002C8A
:1050E00014BF012CBDE8F08D022C30D0032C32D03F
:1050F00056EA0C0B0AD0BE4220D1BA4209D126F0A2
:10510000804622F080423346114617E000291ADB20
:1051100025E0DFF8C8B0FB44002C04BFDBE9000148
:10512000BDE8F08D012C02BFDBE9000181F00041F8
:10513000BDE8F08D022C0AD0032C0CD0BA4212D15B
:10514000B8F1000F0BDA23482549BDE8F08D284659
:105150002449BDE8F08D28467146BDE8F08D1D4814
:105160002149BDE8F08D921B12153C2AC4BF194895
:105170001D490EDCBAF1000FBEBF12F13C0F00203A
:10518000014606DB6246FBF729FA21F00041FFF7F2
:105190005FFE002C08BFBDE8F08D012C04BF81F03C
:1051A0000041BDE8F08D114A114B022C07D0FBF7EE
:1051B0009DF92A46BDE8F04D0A4BFBF797B9FBF77E
:1051C00095F92A46BDE8F04D064BFBF792B9000071
:1051D0000000F07F182D4454FB2109C0A60C0000EC
:1051E000FB21F9BFFB210940FB21F93F075C143388
:1051F00026A6A13C00B5284B21F0004287B09A4278
:10520000DCBF0022134631DD244B9A420DD168B930
:105210004FF00100FFF78AF8002207B0134610464E
:1052200011465DF804EBFBF7D9B906DB07B04FF088
:1052300001025DF804EBFBF740BA02AAFEF750FD4D
:1052400010F0030104BF0DF1080C9CE80F000DD015
:10525000012001290ED0022914D00DF1080C009074
:105260009CE80F00FEF7D4FF07B000BDFEF7FCFE80
:1052700007B000BD0DF1080C00909CE80F00FEF790
:10528000C7FF05E00DF1080C9CE80F00FEF7ECFEEF
:1052900007B081F0004100BDFB21E93F0000F07F35
:1052A0002DE9F0473F4CD4F80C8041464046FBF7CF
:1052B00000F8A668054631463046FAF7FAFF294657
:1052C000FAF79FFF0121FBF764F84FF07E5949463A
:1052D000FAF7ECFFFBF746FA05460F464146206811
:1052E000FAF7E7FF804631466068FAF7E2FF414689
:1052F000FAF787FF0121FBF74CF8FBF733FA2A4650
:105300003B46FFF7B7FEFBF740FA27490860E16824
:105310006068FAF7CEFF0546A1682068FAF7C9FF72
:105320002946FAF7C0FF0121FBF733F8FBF71AFA19
:10533000FFF750FCFBF729FA1C490860D4F80880F5
:1053400041464046FAF7B5FF6668054631463046A5
:10535000FAF7AFFF2946FAF754FF0121FBF719F8D6
:105360004946FAF7A3FFFBF7FDF907460D4640460D
:10537000E168FAF79EFF804631462068FAF799FF08
:105380004146FAF73EFF0121FBF703F8FBF7EAF984
:105390003A462B46FFF76EFEFBF7F7F90449086023
:1053A000BDE8F087C4020020280000202000002073
:1053B000240000209CB0FCF737FDFEF795FAFC486E
:1053C000816941F020018161816901F02001009132
:1053D000816941F004018161816901F0040100915A
:1053E000816941F008018161816901F00801009142
:1053F000416941F0010141614069002200F0010072
:10540000009011460F20FCF76DFD0F20FCF75CFDAE
:10541000E94DE848002428604FF46130C5E90104F3
:105420000C20EC60C5E90440AC612846EC61FDF756
:105430006BF908B172B6FEE7DF48E0495438016005
:10544000DF49C0E901144FF48041C0E903414461E0
:105450008461C4610462FCF73BFA08B172B6FEE7EE
:10546000D54819A95438FDF7F7FC8DF866408DF83A
:10547000644001208DF867008DF865008DF8684064
:10548000FDF788FCFEF7A2F96422CE49CA48FCF772
:10549000EBFF2868416921F0040141616423C94A96
:1054A0000321C548FBF738FCFBF7BAFBDFF818B35C
:1054B000DFF818A3C64D03E0012817D0FBF7B0FBB7
:1054C0000028F9D1C24D6988E868FBF7B1FC0024D7
:1054D000EC6485F8504025462E46A146FCF7F2F9CB
:1054E00011900027FEF734F928B111E0D5E9010148
:1054F000FBF712FDE6E7BBF90010BBF904000C4412
:10550000BBF90210064409F101000D4400F0FF0947
:105510007F1C0A2FE6DB4846FBF7EFF807460890AA
:105520002046FBF7E1F8DAF800100291FAF7C1FE25
:105530003946FAF7F0FE80462846089FFBF7D4F874
:105540000299FAF7B6FE3946FAF7E5FE07460898DB
:1055500005903046FBF7C8F80299FAF7AAFE0599BC
:10556000FAF7D9FE024617F0FF4F05D118F0FF4FAA
:1055700002D112F0FF4FB4D041463846FDF7B4FFD8
:105580000126FCF79FF9934C12900020214600F071
:10559000F5FA4FF0C042904BFAF7AEFFFBF7F5F883
:1055A0008E4908600020214600F0E8FA00221346E8
:1055B000FAF7A2FFFBF7E9F889490860844889A156
:1055C0004C30FAF705FE30B1FBF78AFB64217D48C9
:1055D000FAF7F3FD76E77E4883A14C30FAF7F8FD41
:1055E00048B17B484C3001794C3801700021C164CE
:1055F00080F85010E2E700240594A046A1460694E6
:10560000254618210BA80494FAF7D7FDFCF75AF9A0
:1056100011990190401AFBF770F87549FAF749FEA5
:105620006B4900270861019811901EE0FEF790F881
:10563000D0B9BBF90010BBF902200C4405996D1CD0
:1056400011440591BBF904000699EDB20844069097
:105650006848B0F90210B0F900208944B0F904009C
:1056600004999044084404907F1CB742DEDB002D6F
:10567000A4D094FBF5F0FBF737F85F4F3968FAF7E1
:10568000C0FDDAF800100C46FAF713FE0B900598EF
:1056900090FBF5F0FBF728F87968FAF7B2FD2146A0
:1056A000FAF707FE0C90069890FBF5F0FBF71CF854
:1056B000B968FAF7A6FD2146FAF7FBFD0D9098FBB5
:1056C000F5F0FBF711F84D4C2168FAF79AFD4C49BB
:1056D00009680F46FAF7EDFD0E9099FBF5F0FBF720
:1056E00003F86168FAF78DFD3946FAF7E2FD0F908D
:1056F000049890FBF5F0FAF7F7FFA168FAF781FD3F
:105700003946FAF7D6FDDFF8C880109098F8000007
:1057100043284CD04D287BD051287AD1129901983A
:105720000126401A42F21071884205D92B483549AA
:1057300001602B48344901600BA8FDF7DBFA0168D2
:10574000C8F834104168C8F830108168454681F0C7
:105750000041C8F83810C168C8F840100169C8F89D
:105760003C10406980F00040C8F84400FDF786FB1B
:10577000FFF796FD00F028FA2969286A0C46FAF727
:1057800098FDA96AFAF73DFDA86208902146686A6B
:10579000FAF78FFDE96AFAF734FDE8621B4F0990CA
:1057A00039466869FAF785FDFAF7DCFF32E082E0F6
:1057B0000010024000380140180200200054004050
:1057C000801A0600FC0000208000002078000020E5
:1057D0000C0000200000E83F51C1F03F6C000020A9
:1057E0007000002065656500636D643A000000008C
:1057F0006F12833A86000020380300204403002003
:105800007C000020EC51383D0AD7A33C000034C393
:10581000C3E04FE0DFF80C92834B4A46FAF7DEFE16
:10582000FAF7B3FF686102908049A869FAF741FD71
:10583000FAF798FF4A467C4BFAF7D0FEFAF7A5FF35
:105840000446A8613946E869FAF733FDFAF78AFF9A
:105850004A46754BFAF7C2FEFAF797FFE861A96C62
:105860000322B1FBF2F302FB1311002922D1FAF754
:1058700079FF05460F462046FAF774FF044689462D
:105880000298FAF76FFFCDE902010998FAF76AFF6B
:10589000CDE900010898FAF765FFCDE90449CDE9A3
:1058A00006570B46024662A16848FEF7E1F96748D1
:1058B000FBF724FB6BE00B98C8F8300007900C98BE
:1058C000C8F8340008900D98C8F8380000900E9879
:1058D000C8F83C0003900F9CC8F840401098C8F8E6
:1058E0004400FAF73FFF05460F462046FAF73AFF15
:1058F000044689460398FAF735FFCDE9031000986E
:10590000FAF730FF189000910898FAF72BFFCDE9CD
:1059100015100798FAF726FFCDE908570B460399AB
:10592000CDE906490591024600991898CDE9020192
:10593000DDE91510CDE9000145A14448FEF798F9CD
:105940004248FBF7DBFAD8F84800A0F598518839AF
:105950001DD148A13D48FEF78BF93C48FBF7CEFA34
:105960000A20FBF7EFFD4FA13848FEF781F93748D1
:10597000FBF7C4FAFBF7BCF80A2650A13348FEF740
:1059800077F93248FBF7BAFA0A20FBF7DBFDD8F8C3
:105990004810491CC8F8481010E601260BA8FDF76E
:1059A000A9F90268C8F8342001924268C8F830208A
:1059B0001392826882F00042C8F838200292C468CC
:1059C000C8F840400269C8F83C200392406980F062
:1059D0000040C8F84400FAF7C5FE05460F462046C9
:1059E000FAF7C0FE814607910398FAF7BBFECDE9AE
:1059F00004010298FAF7B6FECDE902010198FAF720
:105A0000B1FE044601911398FAF7ACFECDE90857B0
:105A100002460B460EA10D48CDF818900094FEF7F3
:105A200027F944E71F85EB51B81E094000003443B5
:105A300021252E31662C252E31662C252E31662C03
:105A4000252E31662C252E31660D0A0060010020BE
:105A500021252E31662C252E31662C252E31662CE3
:105A6000252E31662C252E31662C252E31660D0A09
:105A7000000000004769752063616D206269656EF2
:105A80002064756E672079656E207472656E206D76
:105A90006174207068616E67206E67616E670D0AC1
:105AA00000000000426174206461752068696575BA
:105AB000206368696E680D0A00000000486965751A
:105AC000206368696E68206F6B0D0A0000B5294B72
:105AD00021F0004287B09A4203DC00221346009274
